{"contracts/Airdrop.sol":{"Airdrop":{"abi":[{"inputs":[{"internalType":"address","name":"_token","type":"address"}],"stateMutability":"nonpayable","type":"constructor"},{"inputs":[{"internalType":"address","name":"owner","type":"address"}],"name":"OwnableInvalidOwner","type":"error"},{"inputs":[{"internalType":"address","name":"account","type":"address"}],"name":"OwnableUnauthorizedAccount","type":"error"},{"anonymous":false,"inputs":[{"indexed":true,"internalType":"address","name":"manager","type":"address"},{"indexed":false,"internalType":"uint256","name":"totalAmount","type":"uint256"},{"indexed":false,"internalType":"uint256","name":"numBeneficiaries","type":"uint256"}],"name":"GroupCreated","type":"event"},{"anonymous":false,"inputs":[{"indexed":true,"internalType":"address","name":"previousOwner","type":"address"},{"indexed":true,"internalType":"address","name":"newOwner","type":"address"}],"name":"OwnershipTransferred","type":"event"},{"anonymous":false,"inputs":[{"indexed":true,"internalType":"address","name":"beneficiary","type":"address"},{"indexed":false,"internalType":"uint256","name":"amount","type":"uint256"}],"name":"VoucherCreated","type":"event"},{"anonymous":false,"inputs":[{"indexed":true,"internalType":"address","name":"thirdParty","type":"address"},{"indexed":false,"internalType":"uint256","name":"amount","type":"uint256"}],"name":"Withdrawal","type":"event"},{"inputs":[],"name":"amountPerBeneficiary","outputs":[{"internalType":"uint256","name":"","type":"uint256"}],"stateMutability":"view","type":"function"},{"inputs":[{"internalType":"address","name":"","type":"address"}],"name":"balances","outputs":[{"internalType":"uint256","name":"","type":"uint256"}],"stateMutability":"view","type":"function"},{"inputs":[{"internalType":"address","name":"","type":"address"}],"name":"beneficiaries","outputs":[{"internalType":"bool","name":"","type":"bool"}],"stateMutability":"view","type":"function"},{"inputs":[{"internalType":"uint256","name":"_totalAmount","type":"uint256"},{"internalType":"uint256","name":"_numBeneficiaries","type":"uint256"}],"name":"createGroup","outputs":[],"stateMutability":"nonpayable","type":"function"},{"inputs":[{"internalType":"address","name":"_beneficiary","type":"address"},{"internalType":"uint256","name":"_amount","type":"uint256"}],"name":"createVoucher","outputs":[],"stateMutability":"nonpayable","type":"function"},{"inputs":[{"internalType":"address","name":"_beneficiary","type":"address"}],"name":"joinGroup","outputs":[],"stateMutability":"nonpayable","type":"function"},{"inputs":[],"name":"numBeneficiaries","outputs":[{"internalType":"uint256","name":"","type":"uint256"}],"stateMutability":"view","type":"function"},{"inputs":[],"name":"owner","outputs":[{"internalType":"address","name":"","type":"address"}],"stateMutability":"view","type":"function"},{"inputs":[],"name":"renounceOwnership","outputs":[],"stateMutability":"nonpayable","type":"function"},{"inputs":[],"name":"token","outputs":[{"internalType":"contract IERC20","name":"","type":"address"}],"stateMutability":"view","type":"function"},{"inputs":[],"name":"totalAmount","outputs":[{"internalType":"uint256","name":"","type":"uint256"}],"stateMutability":"view","type":"function"},{"inputs":[{"internalType":"address","name":"newOwner","type":"address"}],"name":"transferOwnership","outputs":[],"stateMutability":"nonpayable","type":"function"},{"inputs":[{"internalType":"address","name":"_thirdParty","type":"address"},{"internalType":"uint256","name":"_amount","type":"uint256"}],"name":"withdraw","outputs":[],"stateMutability":"nonpayable","type":"function"}],"evm":{"bytecode":{"linkReferences":{},"object":"60806040523480156200001157600080fd5b506040516200121838038062001218833981810160405281019062000037919062000235565b33600073ffffffffffffffffffffffffffffffffffffffff168173ffffffffffffffffffffffffffffffffffffffff1603620000ad5760006040517f1e4fbdf7000000000000000000000000000000000000000000000000000000008152600401620000a4919062000278565b60405180910390fd5b620000be816200010760201b60201c565b5080600160006101000a81548173ffffffffffffffffffffffffffffffffffffffff021916908373ffffffffffffffffffffffffffffffffffffffff1602179055505062000295565b60008060009054906101000a900473ffffffffffffffffffffffffffffffffffffffff169050816000806101000a81548173ffffffffffffffffffffffffffffffffffffffff021916908373ffffffffffffffffffffffffffffffffffffffff1602179055508173ffffffffffffffffffffffffffffffffffffffff168173ffffffffffffffffffffffffffffffffffffffff167f8be0079c531659141344cd1fd0a4f28419497f9722a3daafe3b4186f6b6457e060405160405180910390a35050565b600080fd5b600073ffffffffffffffffffffffffffffffffffffffff82169050919050565b6000620001fd82620001d0565b9050919050565b6200020f81620001f0565b81146200021b57600080fd5b50565b6000815190506200022f8162000204565b92915050565b6000602082840312156200024e576200024d620001cb565b5b60006200025e848285016200021e565b91505092915050565b6200027281620001f0565b82525050565b60006020820190506200028f600083018462000267565b92915050565b610f7380620002a56000396000f3fe608060405234801561001057600080fd5b50600436106100cf5760003560e01c8063980cb3ac1161008c578063cfb64afe11610066578063cfb64afe146101ec578063f2fde38b1461020a578063f3fef3a314610226578063fc0c546a14610242576100cf565b8063980cb3ac146101965780639a824c4f146101b2578063cb22d41b146101ce576100cf565b806301567739146100d45780631a39d8ef1461010457806327e235e314610122578063715018a6146101525780638da5cb5b1461015c57806394daf2ab1461017a575b600080fd5b6100ee60048036038101906100e99190610a5c565b610260565b6040516100fb9190610aa4565b60405180910390f35b61010c610280565b6040516101199190610ad8565b60405180910390f35b61013c60048036038101906101379190610a5c565b610286565b6040516101499190610ad8565b60405180910390f35b61015a61029e565b005b6101646102b2565b6040516101719190610b02565b60405180910390f35b610194600480360381019061018f9190610b49565b6102db565b005b6101b060048036038101906101ab9190610b89565b610498565b005b6101cc60048036038101906101c79190610a5c565b6105b7565b005b6101d66106f3565b6040516101e39190610ad8565b60405180910390f35b6101f46106f9565b6040516102019190610ad8565b60405180910390f35b610224600480360381019061021f9190610a5c565b6106ff565b005b610240600480360381019061023b9190610b49565b610785565b005b61024a610880565b6040516102579190610c28565b60405180910390f35b60056020528060005260406000206000915054906101000a900460ff1681565b60025481565b60066020528060005260406000206000915090505481565b6102a66108a6565b6102b0600061092d565b565b60008060009054906101000a900473ffffffffffffffffffffffffffffffffffffffff16905090565b60011515600560008473ffffffffffffffffffffffffffffffffffffffff1673ffffffffffffffffffffffffffffffffffffffff16815260200190815260200160002060009054906101000a900460ff1615151461036e576040517f08c379a000000000000000000000000000000000000000000000000000000000815260040161036590610ca0565b60405180910390fd5b80600660008473ffffffffffffffffffffffffffffffffffffffff1673ffffffffffffffffffffffffffffffffffffffff1681526020019081526020016000205410156103f0576040517f08c379a00000000000000000000000000000000000000000000000000000000081526004016103e790610d0c565b60405180910390fd5b80600660008473ffffffffffffffffffffffffffffffffffffffff1673ffffffffffffffffffffffffffffffffffffffff168152602001908152602001600020600082825461043f9190610d5b565b925050819055508173ffffffffffffffffffffffffffffffffffffffff167f7637461bd399750f08b28bfbc01b40957d63b4d2dce5ef805a99bc94390635678260405161048c9190610ad8565b60405180910390a25050565b6104a06108a6565b816002819055508060038190555080826104ba9190610dbe565b600481905550600160009054906101000a900473ffffffffffffffffffffffffffffffffffffffff1673ffffffffffffffffffffffffffffffffffffffff166323b872dd3330856040518463ffffffff1660e01b815260040161051f93929190610def565b6020604051808303816000875af115801561053e573d6000803e3d6000fd5b505050506040513d601f19601f820116820180604052508101906105629190610e52565b503373ffffffffffffffffffffffffffffffffffffffff167fb9bed5e9893e4c14e02d675e2d4d7f758b6de9caae770ac8e6de20e17f1a84a883836040516105ab929190610e7f565b60405180910390a25050565b6105bf6108a6565b60001515600560008373ffffffffffffffffffffffffffffffffffffffff1673ffffffffffffffffffffffffffffffffffffffff16815260200190815260200160002060009054906101000a900460ff16151514610652576040517f08c379a000000000000000000000000000000000000000000000000000000000815260040161064990610ef4565b60405180910390fd5b6001600560008373ffffffffffffffffffffffffffffffffffffffff1673ffffffffffffffffffffffffffffffffffffffff16815260200190815260200160002060006101000a81548160ff021916908315150217905550600454600660008373ffffffffffffffffffffffffffffffffffffffff1673ffffffffffffffffffffffffffffffffffffffff1681526020019081526020016000208190555050565b60035481565b60045481565b6107076108a6565b600073ffffffffffffffffffffffffffffffffffffffff168173ffffffffffffffffffffffffffffffffffffffff16036107795760006040517f1e4fbdf70000000000000000000000000000000000000000000000000000000081526004016107709190610b02565b60405180910390fd5b6107828161092d565b50565b61078d6108a6565b600160009054906101000a900473ffffffffffffffffffffffffffffffffffffffff1673ffffffffffffffffffffffffffffffffffffffff1663a9059cbb83836040518363ffffffff1660e01b81526004016107ea929190610f14565b6020604051808303816000875af1158015610809573d6000803e3d6000fd5b505050506040513d601f19601f8201168201806040525081019061082d9190610e52565b508173ffffffffffffffffffffffffffffffffffffffff167f7fcf532c15f0a6db0bd6d0e038bea71d30d808c7d98cb3bf7268a95bf5081b65826040516108749190610ad8565b60405180910390a25050565b600160009054906101000a900473ffffffffffffffffffffffffffffffffffffffff1681565b6108ae6109f1565b73ffffffffffffffffffffffffffffffffffffffff166108cc6102b2565b73ffffffffffffffffffffffffffffffffffffffff161461092b576108ef6109f1565b6040517f118cdaa70000000000000000000000000000000000000000000000000000000081526004016109229190610b02565b60405180910390fd5b565b60008060009054906101000a900473ffffffffffffffffffffffffffffffffffffffff169050816000806101000a81548173ffffffffffffffffffffffffffffffffffffffff021916908373ffffffffffffffffffffffffffffffffffffffff1602179055508173ffffffffffffffffffffffffffffffffffffffff168173ffffffffffffffffffffffffffffffffffffffff167f8be0079c531659141344cd1fd0a4f28419497f9722a3daafe3b4186f6b6457e060405160405180910390a35050565b600033905090565b600080fd5b600073ffffffffffffffffffffffffffffffffffffffff82169050919050565b6000610a29826109fe565b9050919050565b610a3981610a1e565b8114610a4457600080fd5b50565b600081359050610a5681610a30565b92915050565b600060208284031215610a7257610a716109f9565b5b6000610a8084828501610a47565b91505092915050565b60008115159050919050565b610a9e81610a89565b82525050565b6000602082019050610ab96000830184610a95565b92915050565b6000819050919050565b610ad281610abf565b82525050565b6000602082019050610aed6000830184610ac9565b92915050565b610afc81610a1e565b82525050565b6000602082019050610b176000830184610af3565b92915050565b610b2681610abf565b8114610b3157600080fd5b50565b600081359050610b4381610b1d565b92915050565b60008060408385031215610b6057610b5f6109f9565b5b6000610b6e85828601610a47565b9250506020610b7f85828601610b34565b9150509250929050565b60008060408385031215610ba057610b9f6109f9565b5b6000610bae85828601610b34565b9250506020610bbf85828601610b34565b9150509250929050565b6000819050919050565b6000610bee610be9610be4846109fe565b610bc9565b6109fe565b9050919050565b6000610c0082610bd3565b9050919050565b6000610c1282610bf5565b9050919050565b610c2281610c07565b82525050565b6000602082019050610c3d6000830184610c19565b92915050565b600082825260208201905092915050565b7f4e6f7420612062656e6566696369617279000000000000000000000000000000600082015250565b6000610c8a601183610c43565b9150610c9582610c54565b602082019050919050565b60006020820190508181036000830152610cb981610c7d565b9050919050565b7f496e73756666696369656e742062616c616e6365000000000000000000000000600082015250565b6000610cf6601483610c43565b9150610d0182610cc0565b602082019050919050565b60006020820190508181036000830152610d2581610ce9565b9050919050565b7f4e487b7100000000000000000000000000000000000000000000000000000000600052601160045260246000fd5b6000610d6682610abf565b9150610d7183610abf565b9250828203905081811115610d8957610d88610d2c565b5b92915050565b7f4e487b7100000000000000000000000000000000000000000000000000000000600052601260045260246000fd5b6000610dc982610abf565b9150610dd483610abf565b925082610de457610de3610d8f565b5b828204905092915050565b6000606082019050610e046000830186610af3565b610e116020830185610af3565b610e1e6040830184610ac9565b949350505050565b610e2f81610a89565b8114610e3a57600080fd5b50565b600081519050610e4c81610e26565b92915050565b600060208284031215610e6857610e676109f9565b5b6000610e7684828501610e3d565b91505092915050565b6000604082019050610e946000830185610ac9565b610ea16020830184610ac9565b9392505050565b7f416c726561647920612062656e65666963696172790000000000000000000000600082015250565b6000610ede601583610c43565b9150610ee982610ea8565b602082019050919050565b60006020820190508181036000830152610f0d81610ed1565b9050919050565b6000604082019050610f296000830185610af3565b610f366020830184610ac9565b939250505056fea2646970667358221220cdbd62423782bb0c5d6671f110e83e34598bb5c0cef9d24d71ddb80a0aea531b64736f6c63430008180033","opcodes":"PUSH1 0x80 PUSH1 0x40 MSTORE CALLVALUE DUP1 ISZERO PUSH3 0x11 JUMPI PUSH1 0x0 DUP1 REVERT JUMPDEST POP PUSH1 0x40 MLOAD PUSH3 0x1218 CODESIZE SUB DUP1 PUSH3 0x1218 DUP4 CODECOPY DUP2 DUP2 ADD PUSH1 0x40 MSTORE DUP2 ADD SWAP1 PUSH3 0x37 SWAP2 SWAP1 PUSH3 0x235 JUMP JUMPDEST CALLER PUSH1 0x0 PUSH20 0xFFFFFFFFFFFFFFFFFFFFFFFFFFFFFFFFFFFFFFFF AND DUP2 PUSH20 0xFFFFFFFFFFFFFFFFFFFFFFFFFFFFFFFFFFFFFFFF AND SUB PUSH3 0xAD JUMPI PUSH1 0x0 PUSH1 0x40 MLOAD PUSH32 0x1E4FBDF700000000000000000000000000000000000000000000000000000000 DUP2 MSTORE PUSH1 0x4 ADD PUSH3 0xA4 SWAP2 SWAP1 PUSH3 0x278 JUMP JUMPDEST PUSH1 0x40 MLOAD DUP1 SWAP2 SUB SWAP1 REVERT JUMPDEST PUSH3 0xBE DUP2 PUSH3 0x107 PUSH1 0x20 SHL PUSH1 0x20 SHR JUMP JUMPDEST POP DUP1 PUSH1 0x1 PUSH1 0x0 PUSH2 0x100 EXP DUP2 SLOAD DUP2 PUSH20 0xFFFFFFFFFFFFFFFFFFFFFFFFFFFFFFFFFFFFFFFF MUL NOT AND SWAP1 DUP4 PUSH20 0xFFFFFFFFFFFFFFFFFFFFFFFFFFFFFFFFFFFFFFFF AND MUL OR SWAP1 SSTORE POP POP PUSH3 0x295 JUMP JUMPDEST PUSH1 0x0 DUP1 PUSH1 0x0 SWAP1 SLOAD SWAP1 PUSH2 0x100 EXP SWAP1 DIV PUSH20 0xFFFFFFFFFFFFFFFFFFFFFFFFFFFFFFFFFFFFFFFF AND SWAP1 POP DUP2 PUSH1 0x0 DUP1 PUSH2 0x100 EXP DUP2 SLOAD DUP2 PUSH20 0xFFFFFFFFFFFFFFFFFFFFFFFFFFFFFFFFFFFFFFFF MUL NOT AND SWAP1 DUP4 PUSH20 0xFFFFFFFFFFFFFFFFFFFFFFFFFFFFFFFFFFFFFFFF AND MUL OR SWAP1 SSTORE POP DUP2 PUSH20 0xFFFFFFFFFFFFFFFFFFFFFFFFFFFFFFFFFFFFFFFF AND DUP2 PUSH20 0xFFFFFFFFFFFFFFFFFFFFFFFFFFFFFFFFFFFFFFFF AND PUSH32 0x8BE0079C531659141344CD1FD0A4F28419497F9722A3DAAFE3B4186F6B6457E0 PUSH1 0x40 MLOAD PUSH1 0x40 MLOAD DUP1 SWAP2 SUB SWAP1 LOG3 POP POP JUMP JUMPDEST PUSH1 0x0 DUP1 REVERT JUMPDEST PUSH1 0x0 PUSH20 0xFFFFFFFFFFFFFFFFFFFFFFFFFFFFFFFFFFFFFFFF DUP3 AND SWAP1 POP SWAP2 SWAP1 POP JUMP JUMPDEST PUSH1 0x0 PUSH3 0x1FD DUP3 PUSH3 0x1D0 JUMP JUMPDEST SWAP1 POP SWAP2 SWAP1 POP JUMP JUMPDEST PUSH3 0x20F DUP2 PUSH3 0x1F0 JUMP JUMPDEST DUP2 EQ PUSH3 0x21B JUMPI PUSH1 0x0 DUP1 REVERT JUMPDEST POP JUMP JUMPDEST PUSH1 0x0 DUP2 MLOAD SWAP1 POP PUSH3 0x22F DUP2 PUSH3 0x204 JUMP JUMPDEST SWAP3 SWAP2 POP POP JUMP JUMPDEST PUSH1 0x0 PUSH1 0x20 DUP3 DUP5 SUB SLT ISZERO PUSH3 0x24E JUMPI PUSH3 0x24D PUSH3 0x1CB JUMP JUMPDEST JUMPDEST PUSH1 0x0 PUSH3 0x25E DUP5 DUP3 DUP6 ADD PUSH3 0x21E JUMP JUMPDEST SWAP2 POP POP SWAP3 SWAP2 POP POP JUMP JUMPDEST PUSH3 0x272 DUP2 PUSH3 0x1F0 JUMP JUMPDEST DUP3 MSTORE POP POP JUMP JUMPDEST PUSH1 0x0 PUSH1 0x20 DUP3 ADD SWAP1 POP PUSH3 0x28F PUSH1 0x0 DUP4 ADD DUP5 PUSH3 0x267 JUMP JUMPDEST SWAP3 SWAP2 POP POP JUMP JUMPDEST PUSH2 0xF73 DUP1 PUSH3 0x2A5 PUSH1 0x0 CODECOPY PUSH1 0x0 RETURN INVALID PUSH1 0x80 PUSH1 0x40 MSTORE CALLVALUE DUP1 ISZERO PUSH2 0x10 JUMPI PUSH1 0x0 DUP1 REVERT JUMPDEST POP PUSH1 0x4 CALLDATASIZE LT PUSH2 0xCF JUMPI PUSH1 0x0 CALLDATALOAD PUSH1 0xE0 SHR DUP1 PUSH4 0x980CB3AC GT PUSH2 0x8C JUMPI DUP1 PUSH4 0xCFB64AFE GT PUSH2 0x66 JUMPI DUP1 PUSH4 0xCFB64AFE EQ PUSH2 0x1EC JUMPI DUP1 PUSH4 0xF2FDE38B EQ PUSH2 0x20A JUMPI DUP1 PUSH4 0xF3FEF3A3 EQ PUSH2 0x226 JUMPI DUP1 PUSH4 0xFC0C546A EQ PUSH2 0x242 JUMPI PUSH2 0xCF JUMP JUMPDEST DUP1 PUSH4 0x980CB3AC EQ PUSH2 0x196 JUMPI DUP1 PUSH4 0x9A824C4F EQ PUSH2 0x1B2 JUMPI DUP1 PUSH4 0xCB22D41B EQ PUSH2 0x1CE JUMPI PUSH2 0xCF JUMP JUMPDEST DUP1 PUSH4 0x1567739 EQ PUSH2 0xD4 JUMPI DUP1 PUSH4 0x1A39D8EF EQ PUSH2 0x104 JUMPI DUP1 PUSH4 0x27E235E3 EQ PUSH2 0x122 JUMPI DUP1 PUSH4 0x715018A6 EQ PUSH2 0x152 JUMPI DUP1 PUSH4 0x8DA5CB5B EQ PUSH2 0x15C JUMPI DUP1 PUSH4 0x94DAF2AB EQ PUSH2 0x17A JUMPI JUMPDEST PUSH1 0x0 DUP1 REVERT JUMPDEST PUSH2 0xEE PUSH1 0x4 DUP1 CALLDATASIZE SUB DUP2 ADD SWAP1 PUSH2 0xE9 SWAP2 SWAP1 PUSH2 0xA5C JUMP JUMPDEST PUSH2 0x260 JUMP JUMPDEST PUSH1 0x40 MLOAD PUSH2 0xFB SWAP2 SWAP1 PUSH2 0xAA4 JUMP JUMPDEST PUSH1 0x40 MLOAD DUP1 SWAP2 SUB SWAP1 RETURN JUMPDEST PUSH2 0x10C PUSH2 0x280 JUMP JUMPDEST PUSH1 0x40 MLOAD PUSH2 0x119 SWAP2 SWAP1 PUSH2 0xAD8 JUMP JUMPDEST PUSH1 0x40 MLOAD DUP1 SWAP2 SUB SWAP1 RETURN JUMPDEST PUSH2 0x13C PUSH1 0x4 DUP1 CALLDATASIZE SUB DUP2 ADD SWAP1 PUSH2 0x137 SWAP2 SWAP1 PUSH2 0xA5C JUMP JUMPDEST PUSH2 0x286 JUMP JUMPDEST PUSH1 0x40 MLOAD PUSH2 0x149 SWAP2 SWAP1 PUSH2 0xAD8 JUMP JUMPDEST PUSH1 0x40 MLOAD DUP1 SWAP2 SUB SWAP1 RETURN JUMPDEST PUSH2 0x15A PUSH2 0x29E JUMP JUMPDEST STOP JUMPDEST PUSH2 0x164 PUSH2 0x2B2 JUMP JUMPDEST PUSH1 0x40 MLOAD PUSH2 0x171 SWAP2 SWAP1 PUSH2 0xB02 JUMP JUMPDEST PUSH1 0x40 MLOAD DUP1 SWAP2 SUB SWAP1 RETURN JUMPDEST PUSH2 0x194 PUSH1 0x4 DUP1 CALLDATASIZE SUB DUP2 ADD SWAP1 PUSH2 0x18F SWAP2 SWAP1 PUSH2 0xB49 JUMP JUMPDEST PUSH2 0x2DB JUMP JUMPDEST STOP JUMPDEST PUSH2 0x1B0 PUSH1 0x4 DUP1 CALLDATASIZE SUB DUP2 ADD SWAP1 PUSH2 0x1AB SWAP2 SWAP1 PUSH2 0xB89 JUMP JUMPDEST PUSH2 0x498 JUMP JUMPDEST STOP JUMPDEST PUSH2 0x1CC PUSH1 0x4 DUP1 CALLDATASIZE SUB DUP2 ADD SWAP1 PUSH2 0x1C7 SWAP2 SWAP1 PUSH2 0xA5C JUMP JUMPDEST PUSH2 0x5B7 JUMP JUMPDEST STOP JUMPDEST PUSH2 0x1D6 PUSH2 0x6F3 JUMP JUMPDEST PUSH1 0x40 MLOAD PUSH2 0x1E3 SWAP2 SWAP1 PUSH2 0xAD8 JUMP JUMPDEST PUSH1 0x40 MLOAD DUP1 SWAP2 SUB SWAP1 RETURN JUMPDEST PUSH2 0x1F4 PUSH2 0x6F9 JUMP JUMPDEST PUSH1 0x40 MLOAD PUSH2 0x201 SWAP2 SWAP1 PUSH2 0xAD8 JUMP JUMPDEST PUSH1 0x40 MLOAD DUP1 SWAP2 SUB SWAP1 RETURN JUMPDEST PUSH2 0x224 PUSH1 0x4 DUP1 CALLDATASIZE SUB DUP2 ADD SWAP1 PUSH2 0x21F SWAP2 SWAP1 PUSH2 0xA5C JUMP JUMPDEST PUSH2 0x6FF JUMP JUMPDEST STOP JUMPDEST PUSH2 0x240 PUSH1 0x4 DUP1 CALLDATASIZE SUB DUP2 ADD SWAP1 PUSH2 0x23B SWAP2 SWAP1 PUSH2 0xB49 JUMP JUMPDEST PUSH2 0x785 JUMP JUMPDEST STOP JUMPDEST PUSH2 0x24A PUSH2 0x880 JUMP JUMPDEST PUSH1 0x40 MLOAD PUSH2 0x257 SWAP2 SWAP1 PUSH2 0xC28 JUMP JUMPDEST PUSH1 0x40 MLOAD DUP1 SWAP2 SUB SWAP1 RETURN JUMPDEST PUSH1 0x5 PUSH1 0x20 MSTORE DUP1 PUSH1 0x0 MSTORE PUSH1 0x40 PUSH1 0x0 KECCAK256 PUSH1 0x0 SWAP2 POP SLOAD SWAP1 PUSH2 0x100 EXP SWAP1 DIV PUSH1 0xFF AND DUP2 JUMP JUMPDEST PUSH1 0x2 SLOAD DUP2 JUMP JUMPDEST PUSH1 0x6 PUSH1 0x20 MSTORE DUP1 PUSH1 0x0 MSTORE PUSH1 0x40 PUSH1 0x0 KECCAK256 PUSH1 0x0 SWAP2 POP SWAP1 POP SLOAD DUP2 JUMP JUMPDEST PUSH2 0x2A6 PUSH2 0x8A6 JUMP JUMPDEST PUSH2 0x2B0 PUSH1 0x0 PUSH2 0x92D JUMP JUMPDEST JUMP JUMPDEST PUSH1 0x0 DUP1 PUSH1 0x0 SWAP1 SLOAD SWAP1 PUSH2 0x100 EXP SWAP1 DIV PUSH20 0xFFFFFFFFFFFFFFFFFFFFFFFFFFFFFFFFFFFFFFFF AND SWAP1 POP SWAP1 JUMP JUMPDEST PUSH1 0x1 ISZERO ISZERO PUSH1 0x5 PUSH1 0x0 DUP5 PUSH20 0xFFFFFFFFFFFFFFFFFFFFFFFFFFFFFFFFFFFFFFFF AND PUSH20 0xFFFFFFFFFFFFFFFFFFFFFFFFFFFFFFFFFFFFFFFF AND DUP2 MSTORE PUSH1 0x20 ADD SWAP1 DUP2 MSTORE PUSH1 0x20 ADD PUSH1 0x0 KECCAK256 PUSH1 0x0 SWAP1 SLOAD SWAP1 PUSH2 0x100 EXP SWAP1 DIV PUSH1 0xFF AND ISZERO ISZERO EQ PUSH2 0x36E JUMPI PUSH1 0x40 MLOAD PUSH32 0x8C379A000000000000000000000000000000000000000000000000000000000 DUP2 MSTORE PUSH1 0x4 ADD PUSH2 0x365 SWAP1 PUSH2 0xCA0 JUMP JUMPDEST PUSH1 0x40 MLOAD DUP1 SWAP2 SUB SWAP1 REVERT JUMPDEST DUP1 PUSH1 0x6 PUSH1 0x0 DUP5 PUSH20 0xFFFFFFFFFFFFFFFFFFFFFFFFFFFFFFFFFFFFFFFF AND PUSH20 0xFFFFFFFFFFFFFFFFFFFFFFFFFFFFFFFFFFFFFFFF AND DUP2 MSTORE PUSH1 0x20 ADD SWAP1 DUP2 MSTORE PUSH1 0x20 ADD PUSH1 0x0 KECCAK256 SLOAD LT ISZERO PUSH2 0x3F0 JUMPI PUSH1 0x40 MLOAD PUSH32 0x8C379A000000000000000000000000000000000000000000000000000000000 DUP2 MSTORE PUSH1 0x4 ADD PUSH2 0x3E7 SWAP1 PUSH2 0xD0C JUMP JUMPDEST PUSH1 0x40 MLOAD DUP1 SWAP2 SUB SWAP1 REVERT JUMPDEST DUP1 PUSH1 0x6 PUSH1 0x0 DUP5 PUSH20 0xFFFFFFFFFFFFFFFFFFFFFFFFFFFFFFFFFFFFFFFF AND PUSH20 0xFFFFFFFFFFFFFFFFFFFFFFFFFFFFFFFFFFFFFFFF AND DUP2 MSTORE PUSH1 0x20 ADD SWAP1 DUP2 MSTORE PUSH1 0x20 ADD PUSH1 0x0 KECCAK256 PUSH1 0x0 DUP3 DUP3 SLOAD PUSH2 0x43F SWAP2 SWAP1 PUSH2 0xD5B JUMP JUMPDEST SWAP3 POP POP DUP2 SWAP1 SSTORE POP DUP2 PUSH20 0xFFFFFFFFFFFFFFFFFFFFFFFFFFFFFFFFFFFFFFFF AND PUSH32 0x7637461BD399750F08B28BFBC01B40957D63B4D2DCE5EF805A99BC9439063567 DUP3 PUSH1 0x40 MLOAD PUSH2 0x48C SWAP2 SWAP1 PUSH2 0xAD8 JUMP JUMPDEST PUSH1 0x40 MLOAD DUP1 SWAP2 SUB SWAP1 LOG2 POP POP JUMP JUMPDEST PUSH2 0x4A0 PUSH2 0x8A6 JUMP JUMPDEST DUP2 PUSH1 0x2 DUP2 SWAP1 SSTORE POP DUP1 PUSH1 0x3 DUP2 SWAP1 SSTORE POP DUP1 DUP3 PUSH2 0x4BA SWAP2 SWAP1 PUSH2 0xDBE JUMP JUMPDEST PUSH1 0x4 DUP2 SWAP1 SSTORE POP PUSH1 0x1 PUSH1 0x0 SWAP1 SLOAD SWAP1 PUSH2 0x100 EXP SWAP1 DIV PUSH20 0xFFFFFFFFFFFFFFFFFFFFFFFFFFFFFFFFFFFFFFFF AND PUSH20 0xFFFFFFFFFFFFFFFFFFFFFFFFFFFFFFFFFFFFFFFF AND PUSH4 0x23B872DD CALLER ADDRESS DUP6 PUSH1 0x40 MLOAD DUP5 PUSH4 0xFFFFFFFF AND PUSH1 0xE0 SHL DUP2 MSTORE PUSH1 0x4 ADD PUSH2 0x51F SWAP4 SWAP3 SWAP2 SWAP1 PUSH2 0xDEF JUMP JUMPDEST PUSH1 0x20 PUSH1 0x40 MLOAD DUP1 DUP4 SUB DUP2 PUSH1 0x0 DUP8 GAS CALL ISZERO DUP1 ISZERO PUSH2 0x53E JUMPI RETURNDATASIZE PUSH1 0x0 DUP1 RETURNDATACOPY RETURNDATASIZE PUSH1 0x0 REVERT JUMPDEST POP POP POP POP PUSH1 0x40 MLOAD RETURNDATASIZE PUSH1 0x1F NOT PUSH1 0x1F DUP3 ADD AND DUP3 ADD DUP1 PUSH1 0x40 MSTORE POP DUP2 ADD SWAP1 PUSH2 0x562 SWAP2 SWAP1 PUSH2 0xE52 JUMP JUMPDEST POP CALLER PUSH20 0xFFFFFFFFFFFFFFFFFFFFFFFFFFFFFFFFFFFFFFFF AND PUSH32 0xB9BED5E9893E4C14E02D675E2D4D7F758B6DE9CAAE770AC8E6DE20E17F1A84A8 DUP4 DUP4 PUSH1 0x40 MLOAD PUSH2 0x5AB SWAP3 SWAP2 SWAP1 PUSH2 0xE7F JUMP JUMPDEST PUSH1 0x40 MLOAD DUP1 SWAP2 SUB SWAP1 LOG2 POP POP JUMP JUMPDEST PUSH2 0x5BF PUSH2 0x8A6 JUMP JUMPDEST PUSH1 0x0 ISZERO ISZERO PUSH1 0x5 PUSH1 0x0 DUP4 PUSH20 0xFFFFFFFFFFFFFFFFFFFFFFFFFFFFFFFFFFFFFFFF AND PUSH20 0xFFFFFFFFFFFFFFFFFFFFFFFFFFFFFFFFFFFFFFFF AND DUP2 MSTORE PUSH1 0x20 ADD SWAP1 DUP2 MSTORE PUSH1 0x20 ADD PUSH1 0x0 KECCAK256 PUSH1 0x0 SWAP1 SLOAD SWAP1 PUSH2 0x100 EXP SWAP1 DIV PUSH1 0xFF AND ISZERO ISZERO EQ PUSH2 0x652 JUMPI PUSH1 0x40 MLOAD PUSH32 0x8C379A000000000000000000000000000000000000000000000000000000000 DUP2 MSTORE PUSH1 0x4 ADD PUSH2 0x649 SWAP1 PUSH2 0xEF4 JUMP JUMPDEST PUSH1 0x40 MLOAD DUP1 SWAP2 SUB SWAP1 REVERT JUMPDEST PUSH1 0x1 PUSH1 0x5 PUSH1 0x0 DUP4 PUSH20 0xFFFFFFFFFFFFFFFFFFFFFFFFFFFFFFFFFFFFFFFF AND PUSH20 0xFFFFFFFFFFFFFFFFFFFFFFFFFFFFFFFFFFFFFFFF AND DUP2 MSTORE PUSH1 0x20 ADD SWAP1 DUP2 MSTORE PUSH1 0x20 ADD PUSH1 0x0 KECCAK256 PUSH1 0x0 PUSH2 0x100 EXP DUP2 SLOAD DUP2 PUSH1 0xFF MUL NOT AND SWAP1 DUP4 ISZERO ISZERO MUL OR SWAP1 SSTORE POP PUSH1 0x4 SLOAD PUSH1 0x6 PUSH1 0x0 DUP4 PUSH20 0xFFFFFFFFFFFFFFFFFFFFFFFFFFFFFFFFFFFFFFFF AND PUSH20 0xFFFFFFFFFFFFFFFFFFFFFFFFFFFFFFFFFFFFFFFF AND DUP2 MSTORE PUSH1 0x20 ADD SWAP1 DUP2 MSTORE PUSH1 0x20 ADD PUSH1 0x0 KECCAK256 DUP2 SWAP1 SSTORE POP POP JUMP JUMPDEST PUSH1 0x3 SLOAD DUP2 JUMP JUMPDEST PUSH1 0x4 SLOAD DUP2 JUMP JUMPDEST PUSH2 0x707 PUSH2 0x8A6 JUMP JUMPDEST PUSH1 0x0 PUSH20 0xFFFFFFFFFFFFFFFFFFFFFFFFFFFFFFFFFFFFFFFF AND DUP2 PUSH20 0xFFFFFFFFFFFFFFFFFFFFFFFFFFFFFFFFFFFFFFFF AND SUB PUSH2 0x779 JUMPI PUSH1 0x0 PUSH1 0x40 MLOAD PUSH32 0x1E4FBDF700000000000000000000000000000000000000000000000000000000 DUP2 MSTORE PUSH1 0x4 ADD PUSH2 0x770 SWAP2 SWAP1 PUSH2 0xB02 JUMP JUMPDEST PUSH1 0x40 MLOAD DUP1 SWAP2 SUB SWAP1 REVERT JUMPDEST PUSH2 0x782 DUP2 PUSH2 0x92D JUMP JUMPDEST POP JUMP JUMPDEST PUSH2 0x78D PUSH2 0x8A6 JUMP JUMPDEST PUSH1 0x1 PUSH1 0x0 SWAP1 SLOAD SWAP1 PUSH2 0x100 EXP SWAP1 DIV PUSH20 0xFFFFFFFFFFFFFFFFFFFFFFFFFFFFFFFFFFFFFFFF AND PUSH20 0xFFFFFFFFFFFFFFFFFFFFFFFFFFFFFFFFFFFFFFFF AND PUSH4 0xA9059CBB DUP4 DUP4 PUSH1 0x40 MLOAD DUP4 PUSH4 0xFFFFFFFF AND PUSH1 0xE0 SHL DUP2 MSTORE PUSH1 0x4 ADD PUSH2 0x7EA SWAP3 SWAP2 SWAP1 PUSH2 0xF14 JUMP JUMPDEST PUSH1 0x20 PUSH1 0x40 MLOAD DUP1 DUP4 SUB DUP2 PUSH1 0x0 DUP8 GAS CALL ISZERO DUP1 ISZERO PUSH2 0x809 JUMPI RETURNDATASIZE PUSH1 0x0 DUP1 RETURNDATACOPY RETURNDATASIZE PUSH1 0x0 REVERT JUMPDEST POP POP POP POP PUSH1 0x40 MLOAD RETURNDATASIZE PUSH1 0x1F NOT PUSH1 0x1F DUP3 ADD AND DUP3 ADD DUP1 PUSH1 0x40 MSTORE POP DUP2 ADD SWAP1 PUSH2 0x82D SWAP2 SWAP1 PUSH2 0xE52 JUMP JUMPDEST POP DUP2 PUSH20 0xFFFFFFFFFFFFFFFFFFFFFFFFFFFFFFFFFFFFFFFF AND PUSH32 0x7FCF532C15F0A6DB0BD6D0E038BEA71D30D808C7D98CB3BF7268A95BF5081B65 DUP3 PUSH1 0x40 MLOAD PUSH2 0x874 SWAP2 SWAP1 PUSH2 0xAD8 JUMP JUMPDEST PUSH1 0x40 MLOAD DUP1 SWAP2 SUB SWAP1 LOG2 POP POP JUMP JUMPDEST PUSH1 0x1 PUSH1 0x0 SWAP1 SLOAD SWAP1 PUSH2 0x100 EXP SWAP1 DIV PUSH20 0xFFFFFFFFFFFFFFFFFFFFFFFFFFFFFFFFFFFFFFFF AND DUP2 JUMP JUMPDEST PUSH2 0x8AE PUSH2 0x9F1 JUMP JUMPDEST PUSH20 0xFFFFFFFFFFFFFFFFFFFFFFFFFFFFFFFFFFFFFFFF AND PUSH2 0x8CC PUSH2 0x2B2 JUMP JUMPDEST PUSH20 0xFFFFFFFFFFFFFFFFFFFFFFFFFFFFFFFFFFFFFFFF AND EQ PUSH2 0x92B JUMPI PUSH2 0x8EF PUSH2 0x9F1 JUMP JUMPDEST PUSH1 0x40 MLOAD PUSH32 0x118CDAA700000000000000000000000000000000000000000000000000000000 DUP2 MSTORE PUSH1 0x4 ADD PUSH2 0x922 SWAP2 SWAP1 PUSH2 0xB02 JUMP JUMPDEST PUSH1 0x40 MLOAD DUP1 SWAP2 SUB SWAP1 REVERT JUMPDEST JUMP JUMPDEST PUSH1 0x0 DUP1 PUSH1 0x0 SWAP1 SLOAD SWAP1 PUSH2 0x100 EXP SWAP1 DIV PUSH20 0xFFFFFFFFFFFFFFFFFFFFFFFFFFFFFFFFFFFFFFFF AND SWAP1 POP DUP2 PUSH1 0x0 DUP1 PUSH2 0x100 EXP DUP2 SLOAD DUP2 PUSH20 0xFFFFFFFFFFFFFFFFFFFFFFFFFFFFFFFFFFFFFFFF MUL NOT AND SWAP1 DUP4 PUSH20 0xFFFFFFFFFFFFFFFFFFFFFFFFFFFFFFFFFFFFFFFF AND MUL OR SWAP1 SSTORE POP DUP2 PUSH20 0xFFFFFFFFFFFFFFFFFFFFFFFFFFFFFFFFFFFFFFFF AND DUP2 PUSH20 0xFFFFFFFFFFFFFFFFFFFFFFFFFFFFFFFFFFFFFFFF AND PUSH32 0x8BE0079C531659141344CD1FD0A4F28419497F9722A3DAAFE3B4186F6B6457E0 PUSH1 0x40 MLOAD PUSH1 0x40 MLOAD DUP1 SWAP2 SUB SWAP1 LOG3 POP POP JUMP JUMPDEST PUSH1 0x0 CALLER SWAP1 POP SWAP1 JUMP JUMPDEST PUSH1 0x0 DUP1 REVERT JUMPDEST PUSH1 0x0 PUSH20 0xFFFFFFFFFFFFFFFFFFFFFFFFFFFFFFFFFFFFFFFF DUP3 AND SWAP1 POP SWAP2 SWAP1 POP JUMP JUMPDEST PUSH1 0x0 PUSH2 0xA29 DUP3 PUSH2 0x9FE JUMP JUMPDEST SWAP1 POP SWAP2 SWAP1 POP JUMP JUMPDEST PUSH2 0xA39 DUP2 PUSH2 0xA1E JUMP JUMPDEST DUP2 EQ PUSH2 0xA44 JUMPI PUSH1 0x0 DUP1 REVERT JUMPDEST POP JUMP JUMPDEST PUSH1 0x0 DUP2 CALLDATALOAD SWAP1 POP PUSH2 0xA56 DUP2 PUSH2 0xA30 JUMP JUMPDEST SWAP3 SWAP2 POP POP JUMP JUMPDEST PUSH1 0x0 PUSH1 0x20 DUP3 DUP5 SUB SLT ISZERO PUSH2 0xA72 JUMPI PUSH2 0xA71 PUSH2 0x9F9 JUMP JUMPDEST JUMPDEST PUSH1 0x0 PUSH2 0xA80 DUP5 DUP3 DUP6 ADD PUSH2 0xA47 JUMP JUMPDEST SWAP2 POP POP SWAP3 SWAP2 POP POP JUMP JUMPDEST PUSH1 0x0 DUP2 ISZERO ISZERO SWAP1 POP SWAP2 SWAP1 POP JUMP JUMPDEST PUSH2 0xA9E DUP2 PUSH2 0xA89 JUMP JUMPDEST DUP3 MSTORE POP POP JUMP JUMPDEST PUSH1 0x0 PUSH1 0x20 DUP3 ADD SWAP1 POP PUSH2 0xAB9 PUSH1 0x0 DUP4 ADD DUP5 PUSH2 0xA95 JUMP JUMPDEST SWAP3 SWAP2 POP POP JUMP JUMPDEST PUSH1 0x0 DUP2 SWAP1 POP SWAP2 SWAP1 POP JUMP JUMPDEST PUSH2 0xAD2 DUP2 PUSH2 0xABF JUMP JUMPDEST DUP3 MSTORE POP POP JUMP JUMPDEST PUSH1 0x0 PUSH1 0x20 DUP3 ADD SWAP1 POP PUSH2 0xAED PUSH1 0x0 DUP4 ADD DUP5 PUSH2 0xAC9 JUMP JUMPDEST SWAP3 SWAP2 POP POP JUMP JUMPDEST PUSH2 0xAFC DUP2 PUSH2 0xA1E JUMP JUMPDEST DUP3 MSTORE POP POP JUMP JUMPDEST PUSH1 0x0 PUSH1 0x20 DUP3 ADD SWAP1 POP PUSH2 0xB17 PUSH1 0x0 DUP4 ADD DUP5 PUSH2 0xAF3 JUMP JUMPDEST SWAP3 SWAP2 POP POP JUMP JUMPDEST PUSH2 0xB26 DUP2 PUSH2 0xABF JUMP JUMPDEST DUP2 EQ PUSH2 0xB31 JUMPI PUSH1 0x0 DUP1 REVERT JUMPDEST POP JUMP JUMPDEST PUSH1 0x0 DUP2 CALLDATALOAD SWAP1 POP PUSH2 0xB43 DUP2 PUSH2 0xB1D JUMP JUMPDEST SWAP3 SWAP2 POP POP JUMP JUMPDEST PUSH1 0x0 DUP1 PUSH1 0x40 DUP4 DUP6 SUB SLT ISZERO PUSH2 0xB60 JUMPI PUSH2 0xB5F PUSH2 0x9F9 JUMP JUMPDEST JUMPDEST PUSH1 0x0 PUSH2 0xB6E DUP6 DUP3 DUP7 ADD PUSH2 0xA47 JUMP JUMPDEST SWAP3 POP POP PUSH1 0x20 PUSH2 0xB7F DUP6 DUP3 DUP7 ADD PUSH2 0xB34 JUMP JUMPDEST SWAP2 POP POP SWAP3 POP SWAP3 SWAP1 POP JUMP JUMPDEST PUSH1 0x0 DUP1 PUSH1 0x40 DUP4 DUP6 SUB SLT ISZERO PUSH2 0xBA0 JUMPI PUSH2 0xB9F PUSH2 0x9F9 JUMP JUMPDEST JUMPDEST PUSH1 0x0 PUSH2 0xBAE DUP6 DUP3 DUP7 ADD PUSH2 0xB34 JUMP JUMPDEST SWAP3 POP POP PUSH1 0x20 PUSH2 0xBBF DUP6 DUP3 DUP7 ADD PUSH2 0xB34 JUMP JUMPDEST SWAP2 POP POP SWAP3 POP SWAP3 SWAP1 POP JUMP JUMPDEST PUSH1 0x0 DUP2 SWAP1 POP SWAP2 SWAP1 POP JUMP JUMPDEST PUSH1 0x0 PUSH2 0xBEE PUSH2 0xBE9 PUSH2 0xBE4 DUP5 PUSH2 0x9FE JUMP JUMPDEST PUSH2 0xBC9 JUMP JUMPDEST PUSH2 0x9FE JUMP JUMPDEST SWAP1 POP SWAP2 SWAP1 POP JUMP JUMPDEST PUSH1 0x0 PUSH2 0xC00 DUP3 PUSH2 0xBD3 JUMP JUMPDEST SWAP1 POP SWAP2 SWAP1 POP JUMP JUMPDEST PUSH1 0x0 PUSH2 0xC12 DUP3 PUSH2 0xBF5 JUMP JUMPDEST SWAP1 POP SWAP2 SWAP1 POP JUMP JUMPDEST PUSH2 0xC22 DUP2 PUSH2 0xC07 JUMP JUMPDEST DUP3 MSTORE POP POP JUMP JUMPDEST PUSH1 0x0 PUSH1 0x20 DUP3 ADD SWAP1 POP PUSH2 0xC3D PUSH1 0x0 DUP4 ADD DUP5 PUSH2 0xC19 JUMP JUMPDEST SWAP3 SWAP2 POP POP JUMP JUMPDEST PUSH1 0x0 DUP3 DUP3 MSTORE PUSH1 0x20 DUP3 ADD SWAP1 POP SWAP3 SWAP2 POP POP JUMP JUMPDEST PUSH32 0x4E6F7420612062656E6566696369617279000000000000000000000000000000 PUSH1 0x0 DUP3 ADD MSTORE POP JUMP JUMPDEST PUSH1 0x0 PUSH2 0xC8A PUSH1 0x11 DUP4 PUSH2 0xC43 JUMP JUMPDEST SWAP2 POP PUSH2 0xC95 DUP3 PUSH2 0xC54 JUMP JUMPDEST PUSH1 0x20 DUP3 ADD SWAP1 POP SWAP2 SWAP1 POP JUMP JUMPDEST PUSH1 0x0 PUSH1 0x20 DUP3 ADD SWAP1 POP DUP2 DUP2 SUB PUSH1 0x0 DUP4 ADD MSTORE PUSH2 0xCB9 DUP2 PUSH2 0xC7D JUMP JUMPDEST SWAP1 POP SWAP2 SWAP1 POP JUMP JUMPDEST PUSH32 0x496E73756666696369656E742062616C616E6365000000000000000000000000 PUSH1 0x0 DUP3 ADD MSTORE POP JUMP JUMPDEST PUSH1 0x0 PUSH2 0xCF6 PUSH1 0x14 DUP4 PUSH2 0xC43 JUMP JUMPDEST SWAP2 POP PUSH2 0xD01 DUP3 PUSH2 0xCC0 JUMP JUMPDEST PUSH1 0x20 DUP3 ADD SWAP1 POP SWAP2 SWAP1 POP JUMP JUMPDEST PUSH1 0x0 PUSH1 0x20 DUP3 ADD SWAP1 POP DUP2 DUP2 SUB PUSH1 0x0 DUP4 ADD MSTORE PUSH2 0xD25 DUP2 PUSH2 0xCE9 JUMP JUMPDEST SWAP1 POP SWAP2 SWAP1 POP JUMP JUMPDEST PUSH32 0x4E487B7100000000000000000000000000000000000000000000000000000000 PUSH1 0x0 MSTORE PUSH1 0x11 PUSH1 0x4 MSTORE PUSH1 0x24 PUSH1 0x0 REVERT JUMPDEST PUSH1 0x0 PUSH2 0xD66 DUP3 PUSH2 0xABF JUMP JUMPDEST SWAP2 POP PUSH2 0xD71 DUP4 PUSH2 0xABF JUMP JUMPDEST SWAP3 POP DUP3 DUP3 SUB SWAP1 POP DUP2 DUP2 GT ISZERO PUSH2 0xD89 JUMPI PUSH2 0xD88 PUSH2 0xD2C JUMP JUMPDEST JUMPDEST SWAP3 SWAP2 POP POP JUMP JUMPDEST PUSH32 0x4E487B7100000000000000000000000000000000000000000000000000000000 PUSH1 0x0 MSTORE PUSH1 0x12 PUSH1 0x4 MSTORE PUSH1 0x24 PUSH1 0x0 REVERT JUMPDEST PUSH1 0x0 PUSH2 0xDC9 DUP3 PUSH2 0xABF JUMP JUMPDEST SWAP2 POP PUSH2 0xDD4 DUP4 PUSH2 0xABF JUMP JUMPDEST SWAP3 POP DUP3 PUSH2 0xDE4 JUMPI PUSH2 0xDE3 PUSH2 0xD8F JUMP JUMPDEST JUMPDEST DUP3 DUP3 DIV SWAP1 POP SWAP3 SWAP2 POP POP JUMP JUMPDEST PUSH1 0x0 PUSH1 0x60 DUP3 ADD SWAP1 POP PUSH2 0xE04 PUSH1 0x0 DUP4 ADD DUP7 PUSH2 0xAF3 JUMP JUMPDEST PUSH2 0xE11 PUSH1 0x20 DUP4 ADD DUP6 PUSH2 0xAF3 JUMP JUMPDEST PUSH2 0xE1E PUSH1 0x40 DUP4 ADD DUP5 PUSH2 0xAC9 JUMP JUMPDEST SWAP5 SWAP4 POP POP POP POP JUMP JUMPDEST PUSH2 0xE2F DUP2 PUSH2 0xA89 JUMP JUMPDEST DUP2 EQ PUSH2 0xE3A JUMPI PUSH1 0x0 DUP1 REVERT JUMPDEST POP JUMP JUMPDEST PUSH1 0x0 DUP2 MLOAD SWAP1 POP PUSH2 0xE4C DUP2 PUSH2 0xE26 JUMP JUMPDEST SWAP3 SWAP2 POP POP JUMP JUMPDEST PUSH1 0x0 PUSH1 0x20 DUP3 DUP5 SUB SLT ISZERO PUSH2 0xE68 JUMPI PUSH2 0xE67 PUSH2 0x9F9 JUMP JUMPDEST JUMPDEST PUSH1 0x0 PUSH2 0xE76 DUP5 DUP3 DUP6 ADD PUSH2 0xE3D JUMP JUMPDEST SWAP2 POP POP SWAP3 SWAP2 POP POP JUMP JUMPDEST PUSH1 0x0 PUSH1 0x40 DUP3 ADD SWAP1 POP PUSH2 0xE94 PUSH1 0x0 DUP4 ADD DUP6 PUSH2 0xAC9 JUMP JUMPDEST PUSH2 0xEA1 PUSH1 0x20 DUP4 ADD DUP5 PUSH2 0xAC9 JUMP JUMPDEST SWAP4 SWAP3 POP POP POP JUMP JUMPDEST PUSH32 0x416C726561647920612062656E65666963696172790000000000000000000000 PUSH1 0x0 DUP3 ADD MSTORE POP JUMP JUMPDEST PUSH1 0x0 PUSH2 0xEDE PUSH1 0x15 DUP4 PUSH2 0xC43 JUMP JUMPDEST SWAP2 POP PUSH2 0xEE9 DUP3 PUSH2 0xEA8 JUMP JUMPDEST PUSH1 0x20 DUP3 ADD SWAP1 POP SWAP2 SWAP1 POP JUMP JUMPDEST PUSH1 0x0 PUSH1 0x20 DUP3 ADD SWAP1 POP DUP2 DUP2 SUB PUSH1 0x0 DUP4 ADD MSTORE PUSH2 0xF0D DUP2 PUSH2 0xED1 JUMP JUMPDEST SWAP1 POP SWAP2 SWAP1 POP JUMP JUMPDEST PUSH1 0x0 PUSH1 0x40 DUP3 ADD SWAP1 POP PUSH2 0xF29 PUSH1 0x0 DUP4 ADD DUP6 PUSH2 0xAF3 JUMP JUMPDEST PUSH2 0xF36 PUSH1 0x20 DUP4 ADD DUP5 PUSH2 0xAC9 JUMP JUMPDEST SWAP4 SWAP3 POP POP POP JUMP INVALID LOG2 PUSH5 0x6970667358 0x22 SLT KECCAK256 0xCD 0xBD PUSH3 0x423782 0xBB 0xC TSTORE PUSH7 0x71F110E83E3459 DUP12 0xB5 0xC0 0xCE 0xF9 0xD2 0x4D PUSH18 0xDDB80A0AEA531B64736F6C63430008180033 "},"methodIdentifiers":{"amountPerBeneficiary()":"cfb64afe","balances(address)":"27e235e3","beneficiaries(address)":"01567739","createGroup(uint256,uint256)":"980cb3ac","createVoucher(address,uint256)":"94daf2ab","joinGroup(address)":"9a824c4f","numBeneficiaries()":"cb22d41b","owner()":"8da5cb5b","renounceOwnership()":"715018a6","token()":"fc0c546a","totalAmount()":"1a39d8ef","transferOwnership(address)":"f2fde38b","withdraw(address,uint256)":"f3fef3a3"}}}}}