{"contracts/MerkleProof.sol":{"MerkleProof":{"abi":[{"inputs":[{"internalType":"bytes32[]","name":"proof","type":"bytes32[]"},{"internalType":"bytes32","name":"root","type":"bytes32"},{"internalType":"bytes32","name":"leaf","type":"bytes32"},{"internalType":"uint256","name":"index","type":"uint256"}],"name":"verify","outputs":[{"internalType":"bool","name":"","type":"bool"}],"stateMutability":"pure","type":"function"}],"evm":{"bytecode":{"linkReferences":{},"object":"608060405234801561001057600080fd5b50610502806100206000396000f3fe608060405234801561001057600080fd5b506004361061002b5760003560e01c806321fb335c14610030575b600080fd5b61004a60048036038101906100459190610306565b610060565b60405161005791906103a4565b60405180910390f35b60008083905060005b865181101561011e576000878281518110610087576100866103bf565b5b6020026020010151905060006002866100a0919061041d565b036100d55782816040516020016100b892919061046f565b604051602081830303815290604052805190602001209250610101565b80836040516020016100e892919061046f565b6040516020818303038152906040528051906020012092505b60028561010e919061049b565b9450508080600101915050610069565b50848114915050949350505050565b6000604051905090565b600080fd5b600080fd5b600080fd5b6000601f19601f8301169050919050565b7f4e487b7100000000000000000000000000000000000000000000000000000000600052604160045260246000fd5b61018f82610146565b810181811067ffffffffffffffff821117156101ae576101ad610157565b5b80604052505050565b60006101c161012d565b90506101cd8282610186565b919050565b600067ffffffffffffffff8211156101ed576101ec610157565b5b602082029050602081019050919050565b600080fd5b6000819050919050565b61021681610203565b811461022157600080fd5b50565b6000813590506102338161020d565b92915050565b600061024c610247846101d2565b6101b7565b9050808382526020820190506020840283018581111561026f5761026e6101fe565b5b835b8181101561029857806102848882610224565b845260208401935050602081019050610271565b5050509392505050565b600082601f8301126102b7576102b6610141565b5b81356102c7848260208601610239565b91505092915050565b6000819050919050565b6102e3816102d0565b81146102ee57600080fd5b50565b600081359050610300816102da565b92915050565b600080600080608085870312156103205761031f610137565b5b600085013567ffffffffffffffff81111561033e5761033d61013c565b5b61034a878288016102a2565b945050602061035b87828801610224565b935050604061036c87828801610224565b925050606061037d878288016102f1565b91505092959194509250565b60008115159050919050565b61039e81610389565b82525050565b60006020820190506103b96000830184610395565b92915050565b7f4e487b7100000000000000000000000000000000000000000000000000000000600052603260045260246000fd5b7f4e487b7100000000000000000000000000000000000000000000000000000000600052601260045260246000fd5b6000610428826102d0565b9150610433836102d0565b925082610443576104426103ee565b5b828206905092915050565b6000819050919050565b61046961046482610203565b61044e565b82525050565b600061047b8285610458565b60208201915061048b8284610458565b6020820191508190509392505050565b60006104a6826102d0565b91506104b1836102d0565b9250826104c1576104c06103ee565b5b82820490509291505056fea2646970667358221220d8e516208fea5fea7088ceabf75b9bd936f77b3b009de4bad4a317a018b0de3c64736f6c63430008180033","opcodes":"PUSH1 0x80 PUSH1 0x40 MSTORE CALLVALUE DUP1 ISZERO PUSH2 0x10 JUMPI PUSH1 0x0 DUP1 REVERT JUMPDEST POP PUSH2 0x502 DUP1 PUSH2 0x20 PUSH1 0x0 CODECOPY PUSH1 0x0 RETURN INVALID PUSH1 0x80 PUSH1 0x40 MSTORE CALLVALUE DUP1 ISZERO PUSH2 0x10 JUMPI PUSH1 0x0 DUP1 REVERT JUMPDEST POP PUSH1 0x4 CALLDATASIZE LT PUSH2 0x2B JUMPI PUSH1 0x0 CALLDATALOAD PUSH1 0xE0 SHR DUP1 PUSH4 0x21FB335C EQ PUSH2 0x30 JUMPI JUMPDEST PUSH1 0x0 DUP1 REVERT JUMPDEST PUSH2 0x4A PUSH1 0x4 DUP1 CALLDATASIZE SUB DUP2 ADD SWAP1 PUSH2 0x45 SWAP2 SWAP1 PUSH2 0x306 JUMP JUMPDEST PUSH2 0x60 JUMP JUMPDEST PUSH1 0x40 MLOAD PUSH2 0x57 SWAP2 SWAP1 PUSH2 0x3A4 JUMP JUMPDEST PUSH1 0x40 MLOAD DUP1 SWAP2 SUB SWAP1 RETURN JUMPDEST PUSH1 0x0 DUP1 DUP4 SWAP1 POP PUSH1 0x0 JUMPDEST DUP7 MLOAD DUP2 LT ISZERO PUSH2 0x11E JUMPI PUSH1 0x0 DUP8 DUP3 DUP2 MLOAD DUP2 LT PUSH2 0x87 JUMPI PUSH2 0x86 PUSH2 0x3BF JUMP JUMPDEST JUMPDEST PUSH1 0x20 MUL PUSH1 0x20 ADD ADD MLOAD SWAP1 POP PUSH1 0x0 PUSH1 0x2 DUP7 PUSH2 0xA0 SWAP2 SWAP1 PUSH2 0x41D JUMP JUMPDEST SUB PUSH2 0xD5 JUMPI DUP3 DUP2 PUSH1 0x40 MLOAD PUSH1 0x20 ADD PUSH2 0xB8 SWAP3 SWAP2 SWAP1 PUSH2 0x46F JUMP JUMPDEST PUSH1 0x40 MLOAD PUSH1 0x20 DUP2 DUP4 SUB SUB DUP2 MSTORE SWAP1 PUSH1 0x40 MSTORE DUP1 MLOAD SWAP1 PUSH1 0x20 ADD KECCAK256 SWAP3 POP PUSH2 0x101 JUMP JUMPDEST DUP1 DUP4 PUSH1 0x40 MLOAD PUSH1 0x20 ADD PUSH2 0xE8 SWAP3 SWAP2 SWAP1 PUSH2 0x46F JUMP JUMPDEST PUSH1 0x40 MLOAD PUSH1 0x20 DUP2 DUP4 SUB SUB DUP2 MSTORE SWAP1 PUSH1 0x40 MSTORE DUP1 MLOAD SWAP1 PUSH1 0x20 ADD KECCAK256 SWAP3 POP JUMPDEST PUSH1 0x2 DUP6 PUSH2 0x10E SWAP2 SWAP1 PUSH2 0x49B JUMP JUMPDEST SWAP5 POP POP DUP1 DUP1 PUSH1 0x1 ADD SWAP2 POP POP PUSH2 0x69 JUMP JUMPDEST POP DUP5 DUP2 EQ SWAP2 POP POP SWAP5 SWAP4 POP POP POP POP JUMP JUMPDEST PUSH1 0x0 PUSH1 0x40 MLOAD SWAP1 POP SWAP1 JUMP JUMPDEST PUSH1 0x0 DUP1 REVERT JUMPDEST PUSH1 0x0 DUP1 REVERT JUMPDEST PUSH1 0x0 DUP1 REVERT JUMPDEST PUSH1 0x0 PUSH1 0x1F NOT PUSH1 0x1F DUP4 ADD AND SWAP1 POP SWAP2 SWAP1 POP JUMP JUMPDEST PUSH32 0x4E487B7100000000000000000000000000000000000000000000000000000000 PUSH1 0x0 MSTORE PUSH1 0x41 PUSH1 0x4 MSTORE PUSH1 0x24 PUSH1 0x0 REVERT JUMPDEST PUSH2 0x18F DUP3 PUSH2 0x146 JUMP JUMPDEST DUP2 ADD DUP2 DUP2 LT PUSH8 0xFFFFFFFFFFFFFFFF DUP3 GT OR ISZERO PUSH2 0x1AE JUMPI PUSH2 0x1AD PUSH2 0x157 JUMP JUMPDEST JUMPDEST DUP1 PUSH1 0x40 MSTORE POP POP POP JUMP JUMPDEST PUSH1 0x0 PUSH2 0x1C1 PUSH2 0x12D JUMP JUMPDEST SWAP1 POP PUSH2 0x1CD DUP3 DUP3 PUSH2 0x186 JUMP JUMPDEST SWAP2 SWAP1 POP JUMP JUMPDEST PUSH1 0x0 PUSH8 0xFFFFFFFFFFFFFFFF DUP3 GT ISZERO PUSH2 0x1ED JUMPI PUSH2 0x1EC PUSH2 0x157 JUMP JUMPDEST JUMPDEST PUSH1 0x20 DUP3 MUL SWAP1 POP PUSH1 0x20 DUP2 ADD SWAP1 POP SWAP2 SWAP1 POP JUMP JUMPDEST PUSH1 0x0 DUP1 REVERT JUMPDEST PUSH1 0x0 DUP2 SWAP1 POP SWAP2 SWAP1 POP JUMP JUMPDEST PUSH2 0x216 DUP2 PUSH2 0x203 JUMP JUMPDEST DUP2 EQ PUSH2 0x221 JUMPI PUSH1 0x0 DUP1 REVERT JUMPDEST POP JUMP JUMPDEST PUSH1 0x0 DUP2 CALLDATALOAD SWAP1 POP PUSH2 0x233 DUP2 PUSH2 0x20D JUMP JUMPDEST SWAP3 SWAP2 POP POP JUMP JUMPDEST PUSH1 0x0 PUSH2 0x24C PUSH2 0x247 DUP5 PUSH2 0x1D2 JUMP JUMPDEST PUSH2 0x1B7 JUMP JUMPDEST SWAP1 POP DUP1 DUP4 DUP3 MSTORE PUSH1 0x20 DUP3 ADD SWAP1 POP PUSH1 0x20 DUP5 MUL DUP4 ADD DUP6 DUP2 GT ISZERO PUSH2 0x26F JUMPI PUSH2 0x26E PUSH2 0x1FE JUMP JUMPDEST JUMPDEST DUP4 JUMPDEST DUP2 DUP2 LT ISZERO PUSH2 0x298 JUMPI DUP1 PUSH2 0x284 DUP9 DUP3 PUSH2 0x224 JUMP JUMPDEST DUP5 MSTORE PUSH1 0x20 DUP5 ADD SWAP4 POP POP PUSH1 0x20 DUP2 ADD SWAP1 POP PUSH2 0x271 JUMP JUMPDEST POP POP POP SWAP4 SWAP3 POP POP POP JUMP JUMPDEST PUSH1 0x0 DUP3 PUSH1 0x1F DUP4 ADD SLT PUSH2 0x2B7 JUMPI PUSH2 0x2B6 PUSH2 0x141 JUMP JUMPDEST JUMPDEST DUP2 CALLDATALOAD PUSH2 0x2C7 DUP5 DUP3 PUSH1 0x20 DUP7 ADD PUSH2 0x239 JUMP JUMPDEST SWAP2 POP POP SWAP3 SWAP2 POP POP JUMP JUMPDEST PUSH1 0x0 DUP2 SWAP1 POP SWAP2 SWAP1 POP JUMP JUMPDEST PUSH2 0x2E3 DUP2 PUSH2 0x2D0 JUMP JUMPDEST DUP2 EQ PUSH2 0x2EE JUMPI PUSH1 0x0 DUP1 REVERT JUMPDEST POP JUMP JUMPDEST PUSH1 0x0 DUP2 CALLDATALOAD SWAP1 POP PUSH2 0x300 DUP2 PUSH2 0x2DA JUMP JUMPDEST SWAP3 SWAP2 POP POP JUMP JUMPDEST PUSH1 0x0 DUP1 PUSH1 0x0 DUP1 PUSH1 0x80 DUP6 DUP8 SUB SLT ISZERO PUSH2 0x320 JUMPI PUSH2 0x31F PUSH2 0x137 JUMP JUMPDEST JUMPDEST PUSH1 0x0 DUP6 ADD CALLDATALOAD PUSH8 0xFFFFFFFFFFFFFFFF DUP2 GT ISZERO PUSH2 0x33E JUMPI PUSH2 0x33D PUSH2 0x13C JUMP JUMPDEST JUMPDEST PUSH2 0x34A DUP8 DUP3 DUP9 ADD PUSH2 0x2A2 JUMP JUMPDEST SWAP5 POP POP PUSH1 0x20 PUSH2 0x35B DUP8 DUP3 DUP9 ADD PUSH2 0x224 JUMP JUMPDEST SWAP4 POP POP PUSH1 0x40 PUSH2 0x36C DUP8 DUP3 DUP9 ADD PUSH2 0x224 JUMP JUMPDEST SWAP3 POP POP PUSH1 0x60 PUSH2 0x37D DUP8 DUP3 DUP9 ADD PUSH2 0x2F1 JUMP JUMPDEST SWAP2 POP POP SWAP3 SWAP6 SWAP2 SWAP5 POP SWAP3 POP JUMP JUMPDEST PUSH1 0x0 DUP2 ISZERO ISZERO SWAP1 POP SWAP2 SWAP1 POP JUMP JUMPDEST PUSH2 0x39E DUP2 PUSH2 0x389 JUMP JUMPDEST DUP3 MSTORE POP POP JUMP JUMPDEST PUSH1 0x0 PUSH1 0x20 DUP3 ADD SWAP1 POP PUSH2 0x3B9 PUSH1 0x0 DUP4 ADD DUP5 PUSH2 0x395 JUMP JUMPDEST SWAP3 SWAP2 POP POP JUMP JUMPDEST PUSH32 0x4E487B7100000000000000000000000000000000000000000000000000000000 PUSH1 0x0 MSTORE PUSH1 0x32 PUSH1 0x4 MSTORE PUSH1 0x24 PUSH1 0x0 REVERT JUMPDEST PUSH32 0x4E487B7100000000000000000000000000000000000000000000000000000000 PUSH1 0x0 MSTORE PUSH1 0x12 PUSH1 0x4 MSTORE PUSH1 0x24 PUSH1 0x0 REVERT JUMPDEST PUSH1 0x0 PUSH2 0x428 DUP3 PUSH2 0x2D0 JUMP JUMPDEST SWAP2 POP PUSH2 0x433 DUP4 PUSH2 0x2D0 JUMP JUMPDEST SWAP3 POP DUP3 PUSH2 0x443 JUMPI PUSH2 0x442 PUSH2 0x3EE JUMP JUMPDEST JUMPDEST DUP3 DUP3 MOD SWAP1 POP SWAP3 SWAP2 POP POP JUMP JUMPDEST PUSH1 0x0 DUP2 SWAP1 POP SWAP2 SWAP1 POP JUMP JUMPDEST PUSH2 0x469 PUSH2 0x464 DUP3 PUSH2 0x203 JUMP JUMPDEST PUSH2 0x44E JUMP JUMPDEST DUP3 MSTORE POP POP JUMP JUMPDEST PUSH1 0x0 PUSH2 0x47B DUP3 DUP6 PUSH2 0x458 JUMP JUMPDEST PUSH1 0x20 DUP3 ADD SWAP2 POP PUSH2 0x48B DUP3 DUP5 PUSH2 0x458 JUMP JUMPDEST PUSH1 0x20 DUP3 ADD SWAP2 POP DUP2 SWAP1 POP SWAP4 SWAP3 POP POP POP JUMP JUMPDEST PUSH1 0x0 PUSH2 0x4A6 DUP3 PUSH2 0x2D0 JUMP JUMPDEST SWAP2 POP PUSH2 0x4B1 DUP4 PUSH2 0x2D0 JUMP JUMPDEST SWAP3 POP DUP3 PUSH2 0x4C1 JUMPI PUSH2 0x4C0 PUSH2 0x3EE JUMP JUMPDEST JUMPDEST DUP3 DUP3 DIV SWAP1 POP SWAP3 SWAP2 POP POP JUMP INVALID LOG2 PUSH5 0x6970667358 0x22 SLT KECCAK256 0xD8 0xE5 AND KECCAK256 DUP16 0xEA PUSH0 0xEA PUSH17 0x88CEABF75B9BD936F77B3B009DE4BAD4A3 OR LOG0 XOR 0xB0 0xDE EXTCODECOPY PUSH5 0x736F6C6343 STOP ADDMOD XOR STOP CALLER "},"methodIdentifiers":{"verify(bytes32[],bytes32,bytes32,uint256)":"21fb335c"}}}}}