{"contracts/Airdrop.sol":{"Airdrop":{"abi":[{"inputs":[{"internalType":"address","name":"_token","type":"address"}],"stateMutability":"nonpayable","type":"constructor"},{"inputs":[{"internalType":"address","name":"owner","type":"address"}],"name":"OwnableInvalidOwner","type":"error"},{"inputs":[{"internalType":"address","name":"account","type":"address"}],"name":"OwnableUnauthorizedAccount","type":"error"},{"anonymous":false,"inputs":[{"indexed":true,"internalType":"address","name":"manager","type":"address"},{"indexed":false,"internalType":"uint256","name":"totalAmount","type":"uint256"},{"indexed":false,"internalType":"uint256","name":"numBeneficiaries","type":"uint256"}],"name":"GroupCreated","type":"event"},{"anonymous":false,"inputs":[{"indexed":true,"internalType":"address","name":"previousOwner","type":"address"},{"indexed":true,"internalType":"address","name":"newOwner","type":"address"}],"name":"OwnershipTransferred","type":"event"},{"anonymous":false,"inputs":[{"indexed":true,"internalType":"bytes32","name":"beneficiary","type":"bytes32"},{"indexed":false,"internalType":"uint256","name":"amount","type":"uint256"}],"name":"VoucherCreated","type":"event"},{"anonymous":false,"inputs":[{"indexed":true,"internalType":"address","name":"thirdParty","type":"address"},{"indexed":false,"internalType":"uint256","name":"amount","type":"uint256"}],"name":"Withdrawal","type":"event"},{"inputs":[],"name":"amountPerBeneficiary","outputs":[{"internalType":"uint256","name":"","type":"uint256"}],"stateMutability":"view","type":"function"},{"inputs":[{"internalType":"bytes32","name":"","type":"bytes32"}],"name":"balances","outputs":[{"internalType":"uint256","name":"","type":"uint256"}],"stateMutability":"view","type":"function"},{"inputs":[{"internalType":"bytes32","name":"","type":"bytes32"}],"name":"beneficiaries","outputs":[{"internalType":"bool","name":"","type":"bool"}],"stateMutability":"view","type":"function"},{"inputs":[{"internalType":"uint256","name":"_totalAmount","type":"uint256"},{"internalType":"address[]","name":"_beneficiaries","type":"address[]"}],"name":"createGroup","outputs":[],"stateMutability":"nonpayable","type":"function"},{"inputs":[{"internalType":"bytes32","name":"_beneficiary","type":"bytes32"},{"internalType":"uint256","name":"_amount","type":"uint256"}],"name":"createVoucher","outputs":[{"internalType":"bool","name":"","type":"bool"}],"stateMutability":"nonpayable","type":"function"},{"inputs":[{"internalType":"bytes32","name":"_beneficiary","type":"bytes32"}],"name":"getBalance","outputs":[{"internalType":"uint256","name":"","type":"uint256"}],"stateMutability":"view","type":"function"},{"inputs":[],"name":"getBeneficiaryHashes","outputs":[{"internalType":"bytes32[]","name":"","type":"bytes32[]"}],"stateMutability":"view","type":"function"},{"inputs":[],"name":"getTotalAmount","outputs":[{"internalType":"uint256","name":"","type":"uint256"}],"stateMutability":"view","type":"function"},{"inputs":[{"internalType":"bytes32","name":"_beneficiary","type":"bytes32"}],"name":"joinGroup","outputs":[],"stateMutability":"nonpayable","type":"function"},{"inputs":[],"name":"owner","outputs":[{"internalType":"address","name":"","type":"address"}],"stateMutability":"view","type":"function"},{"inputs":[],"name":"renounceOwnership","outputs":[],"stateMutability":"nonpayable","type":"function"},{"inputs":[{"internalType":"address","name":"newOwner","type":"address"}],"name":"transferOwnership","outputs":[],"stateMutability":"nonpayable","type":"function"},{"inputs":[{"internalType":"address","name":"_thirdParty","type":"address"},{"internalType":"uint256","name":"_amount","type":"uint256"}],"name":"withdraw","outputs":[],"stateMutability":"nonpayable","type":"function"}],"evm":{"bytecode":{"linkReferences":{},"object":"60806040523480156200001157600080fd5b506040516200288638038062002886833981810160405281019062000037919062000235565b33600073ffffffffffffffffffffffffffffffffffffffff168173ffffffffffffffffffffffffffffffffffffffff1603620000ad5760006040517f1e4fbdf7000000000000000000000000000000000000000000000000000000008152600401620000a4919062000278565b60405180910390fd5b620000be816200010760201b60201c565b5080600160006101000a81548173ffffffffffffffffffffffffffffffffffffffff021916908373ffffffffffffffffffffffffffffffffffffffff1602179055505062000295565b60008060009054906101000a900473ffffffffffffffffffffffffffffffffffffffff169050816000806101000a81548173ffffffffffffffffffffffffffffffffffffffff021916908373ffffffffffffffffffffffffffffffffffffffff1602179055508173ffffffffffffffffffffffffffffffffffffffff168173ffffffffffffffffffffffffffffffffffffffff167f8be0079c531659141344cd1fd0a4f28419497f9722a3daafe3b4186f6b6457e060405160405180910390a35050565b600080fd5b600073ffffffffffffffffffffffffffffffffffffffff82169050919050565b6000620001fd82620001d0565b9050919050565b6200020f81620001f0565b81146200021b57600080fd5b50565b6000815190506200022f8162000204565b92915050565b6000602082840312156200024e576200024d620001cb565b5b60006200025e848285016200021e565b91505092915050565b6200027281620001f0565b82525050565b60006020820190506200028f600083018462000267565b92915050565b6125e180620002a56000396000f3fe60806040523480156200001157600080fd5b5060043610620000e25760003560e01c80638da5cb5b1162000099578063cfb64afe116200006f578063cfb64afe1462000251578063f2fde38b1462000273578063f3fef3a31462000293578063fb0135d114620002b357620000e2565b80638da5cb5b14620001c35780638e73946114620001e5578063a6f936ac146200021b57620000e2565b806339cd53ee14620000e757806343923fdf146200011d57806364790ae6146200013f57806365ac4341146200015f578063715018a614620001815780638909aa3f146200018d575b600080fd5b620001056004803603810190620000ff919062000c0a565b620002d3565b60405162000114919062000c59565b60405180910390f35b62000127620002f3565b60405162000136919062000d44565b60405180910390f35b6200015d600480360381019062000157919062000f7d565b6200039d565b005b62000169620004d9565b60405162000178919062000ff4565b60405180910390f35b6200018b620004ed565b005b620001ab6004803603810190620001a5919062000c0a565b62000505565b604051620001ba919062000ff4565b60405180910390f35b620001cd6200051d565b604051620001dc919062001022565b60405180910390f35b620002036004803603810190620001fd919062000c0a565b62000546565b60405162000212919062000ff4565b60405180910390f35b6200023960048036038101906200023391906200103f565b6200056d565b60405162000248919062000c59565b60405180910390f35b6200025b62000668565b6040516200026a919062000ff4565b60405180910390f35b6200029160048036038101906200028b919062001086565b6200066e565b005b620002b16004803603810190620002ab9190620010b8565b620006fb565b005b620002d16004803603810190620002cb919062000c0a565b620007f5565b005b60076020528060005260406000206000915054906101000a900460ff1681565b6060620002ff620008bc565b600260009054906101000a900473ffffffffffffffffffffffffffffffffffffffff1673ffffffffffffffffffffffffffffffffffffffff1663174f6e746040518163ffffffff1660e01b8152600401600060405180830381865afa1580156200036d573d6000803e3d6000fd5b505050506040513d6000823e3d601f19601f82011682018060405250810190620003989190620011ec565b905090565b620003a7620008bc565b816003819055508051600481905550600454600354620003c891906200129b565b600581905550620003d9816200094c565b600160009054906101000a900473ffffffffffffffffffffffffffffffffffffffff1673ffffffffffffffffffffffffffffffffffffffff1663a9059cbb306003546040518363ffffffff1660e01b81526004016200043a929190620012d3565b6020604051808303816000875af11580156200045a573d6000803e3d6000fd5b505050506040513d601f19601f8201168201806040525081019062000480919062001331565b503373ffffffffffffffffffffffffffffffffffffffff167fb9bed5e9893e4c14e02d675e2d4d7f758b6de9caae770ac8e6de20e17f1a84a883600454604051620004cd92919062001363565b60405180910390a25050565b6000620004e5620008bc565b600354905090565b620004f7620008bc565b62000503600062000ae1565b565b60086020528060005260406000206000915090505481565b60008060009054906101000a900473ffffffffffffffffffffffffffffffffffffffff16905090565b600062000552620008bc565b60086000838152602001908152602001600020549050919050565b6000600115156007600085815260200190815260200160002060009054906101000a900460ff16151514620005d9576040517f08c379a0000000000000000000000000000000000000000000000000000000008152600401620005d090620013f1565b60405180910390fd5b816008600085815260200190815260200160002054101562000632576040517f08c379a0000000000000000000000000000000000000000000000000000000008152600401620006299062001463565b60405180910390fd5b8160086000858152602001908152602001600020600082825462000657919062001485565b925050819055506001905092915050565b60055481565b62000678620008bc565b600073ffffffffffffffffffffffffffffffffffffffff168173ffffffffffffffffffffffffffffffffffffffff1603620006ed5760006040517f1e4fbdf7000000000000000000000000000000000000000000000000000000008152600401620006e4919062001022565b60405180910390fd5b620006f88162000ae1565b50565b600160009054906101000a900473ffffffffffffffffffffffffffffffffffffffff1673ffffffffffffffffffffffffffffffffffffffff1663a9059cbb83836040518363ffffffff1660e01b81526004016200075a929190620012d3565b6020604051808303816000875af11580156200077a573d6000803e3d6000fd5b505050506040513d601f19601f82011682018060405250810190620007a0919062001331565b508173ffffffffffffffffffffffffffffffffffffffff167f7fcf532c15f0a6db0bd6d0e038bea71d30d808c7d98cb3bf7268a95bf5081b6582604051620007e9919062000ff4565b60405180910390a25050565b600015156007600083815260200190815260200160002060009054906101000a900460ff161515146200085f576040517f08c379a0000000000000000000000000000000000000000000000000000000008152600401620008569062001510565b60405180910390fd5b60016007600083815260200190815260200160002060006101000a81548160ff021916908315150217905550600554600860008381526020019081526020016000206000828254620008b2919062001532565b9250508190555050565b620008c662000ba5565b73ffffffffffffffffffffffffffffffffffffffff16620008e66200051d565b73ffffffffffffffffffffffffffffffffffffffff16146200094a576200090c62000ba5565b6040517f118cdaa700000000000000000000000000000000000000000000000000000000815260040162000941919062001022565b60405180910390fd5b565b806040516200095b9062000bad565b6200096791906200163b565b604051809103906000f08015801562000984573d6000803e3d6000fd5b50600260006101000a81548173ffffffffffffffffffffffffffffffffffffffff021916908373ffffffffffffffffffffffffffffffffffffffff1602179055506000600260009054906101000a900473ffffffffffffffffffffffffffffffffffffffff1673ffffffffffffffffffffffffffffffffffffffff1663174f6e746040518163ffffffff1660e01b8152600401600060405180830381865afa15801562000a35573d6000803e3d6000fd5b505050506040513d6000823e3d601f19601f8201168201806040525081019062000a609190620011ec565b905060005b815181101562000adc5762000a9782828151811062000a895762000a886200165f565b5b6020026020010151620007f5565b6005546008600084848151811062000ab45762000ab36200165f565b5b6020026020010151815260200190815260200160002081905550808060010191505062000a65565b505050565b60008060009054906101000a900473ffffffffffffffffffffffffffffffffffffffff169050816000806101000a81548173ffffffffffffffffffffffffffffffffffffffff021916908373ffffffffffffffffffffffffffffffffffffffff1602179055508173ffffffffffffffffffffffffffffffffffffffff168173ffffffffffffffffffffffffffffffffffffffff167f8be0079c531659141344cd1fd0a4f28419497f9722a3daafe3b4186f6b6457e060405160405180910390a35050565b600033905090565b610f1d806200168f83390190565b6000604051905090565b600080fd5b600080fd5b6000819050919050565b62000be48162000bcf565b811462000bf057600080fd5b50565b60008135905062000c048162000bd9565b92915050565b60006020828403121562000c235762000c2262000bc5565b5b600062000c338482850162000bf3565b91505092915050565b60008115159050919050565b62000c538162000c3c565b82525050565b600060208201905062000c70600083018462000c48565b92915050565b600081519050919050565b600082825260208201905092915050565b6000819050602082019050919050565b62000cad8162000bcf565b82525050565b600062000cc1838362000ca2565b60208301905092915050565b6000602082019050919050565b600062000ce78262000c76565b62000cf3818562000c81565b935062000d008362000c92565b8060005b8381101562000d3757815162000d1b888262000cb3565b975062000d288362000ccd565b92505060018101905062000d04565b5085935050505092915050565b6000602082019050818103600083015262000d60818462000cda565b905092915050565b6000819050919050565b62000d7d8162000d68565b811462000d8957600080fd5b50565b60008135905062000d9d8162000d72565b92915050565b600080fd5b6000601f19601f8301169050919050565b7f4e487b7100000000000000000000000000000000000000000000000000000000600052604160045260246000fd5b62000df38262000da8565b810181811067ffffffffffffffff8211171562000e155762000e1462000db9565b5b80604052505050565b600062000e2a62000bbb565b905062000e38828262000de8565b919050565b600067ffffffffffffffff82111562000e5b5762000e5a62000db9565b5b602082029050602081019050919050565b600080fd5b600073ffffffffffffffffffffffffffffffffffffffff82169050919050565b600062000e9e8262000e71565b9050919050565b62000eb08162000e91565b811462000ebc57600080fd5b50565b60008135905062000ed08162000ea5565b92915050565b600062000eed62000ee78462000e3d565b62000e1e565b9050808382526020820190506020840283018581111562000f135762000f1262000e6c565b5b835b8181101562000f40578062000f2b888262000ebf565b84526020840193505060208101905062000f15565b5050509392505050565b600082601f83011262000f625762000f6162000da3565b5b813562000f7484826020860162000ed6565b91505092915050565b6000806040838503121562000f975762000f9662000bc5565b5b600062000fa78582860162000d8c565b925050602083013567ffffffffffffffff81111562000fcb5762000fca62000bca565b5b62000fd98582860162000f4a565b9150509250929050565b62000fee8162000d68565b82525050565b60006020820190506200100b600083018462000fe3565b92915050565b6200101c8162000e91565b82525050565b600060208201905062001039600083018462001011565b92915050565b6000806040838503121562001059576200105862000bc5565b5b6000620010698582860162000bf3565b92505060206200107c8582860162000d8c565b9150509250929050565b6000602082840312156200109f576200109e62000bc5565b5b6000620010af8482850162000ebf565b91505092915050565b60008060408385031215620010d257620010d162000bc5565b5b6000620010e28582860162000ebf565b9250506020620010f58582860162000d8c565b9150509250929050565b600067ffffffffffffffff8211156200111d576200111c62000db9565b5b602082029050602081019050919050565b6000815190506200113f8162000bd9565b92915050565b60006200115c6200115684620010ff565b62000e1e565b9050808382526020820190506020840283018581111562001182576200118162000e6c565b5b835b81811015620011af57806200119a88826200112e565b84526020840193505060208101905062001184565b5050509392505050565b600082601f830112620011d157620011d062000da3565b5b8151620011e384826020860162001145565b91505092915050565b60006020828403121562001205576200120462000bc5565b5b600082015167ffffffffffffffff81111562001226576200122562000bca565b5b6200123484828501620011b9565b91505092915050565b7f4e487b7100000000000000000000000000000000000000000000000000000000600052601260045260246000fd5b7f4e487b7100000000000000000000000000000000000000000000000000000000600052601160045260246000fd5b6000620012a88262000d68565b9150620012b58362000d68565b925082620012c857620012c76200123d565b5b828204905092915050565b6000604082019050620012ea600083018562001011565b620012f9602083018462000fe3565b9392505050565b6200130b8162000c3c565b81146200131757600080fd5b50565b6000815190506200132b8162001300565b92915050565b6000602082840312156200134a576200134962000bc5565b5b60006200135a848285016200131a565b91505092915050565b60006040820190506200137a600083018562000fe3565b62001389602083018462000fe3565b9392505050565b600082825260208201905092915050565b7f4e6f7420612062656e6566696369617279000000000000000000000000000000600082015250565b6000620013d960118362001390565b9150620013e682620013a1565b602082019050919050565b600060208201905081810360008301526200140c81620013ca565b9050919050565b7f496e73756666696369656e742062616c616e6365000000000000000000000000600082015250565b60006200144b60148362001390565b9150620014588262001413565b602082019050919050565b600060208201905081810360008301526200147e816200143c565b9050919050565b6000620014928262000d68565b91506200149f8362000d68565b9250828203905081811115620014ba57620014b96200126c565b5b92915050565b7f416c726561647920612062656e65666963696172790000000000000000000000600082015250565b6000620014f860158362001390565b91506200150582620014c0565b602082019050919050565b600060208201905081810360008301526200152b81620014e9565b9050919050565b60006200153f8262000d68565b91506200154c8362000d68565b92508282019050808211156200156757620015666200126c565b5b92915050565b600081519050919050565b600082825260208201905092915050565b6000819050602082019050919050565b620015a48162000e91565b82525050565b6000620015b8838362001599565b60208301905092915050565b6000602082019050919050565b6000620015de826200156d565b620015ea818562001578565b9350620015f78362001589565b8060005b838110156200162e578151620016128882620015aa565b97506200161f83620015c4565b925050600181019050620015fb565b5085935050505092915050565b60006020820190508181036000830152620016578184620015d1565b905092915050565b7f4e487b7100000000000000000000000000000000000000000000000000000000600052603260045260246000fdfe60806040523480156200001157600080fd5b5060405162000f1d38038062000f1d833981810160405281019062000037919062000471565b600081905060005b8151811015620000c5576000828281518110620000615762000060620004c2565b5b60200260200101516040516020016200007b919062000541565b60405160208183030381529060405280519060200120908060018154018082558091505060019003906000526020600020016000909190919091505580806001019150506200003f565b5060006001908054620000da9291906200020d565b5060008151905060005b6000821115620002035760005b60018362000100919062000597565b811015620001db576000808284620001199190620005d2565b815481106200012d576200012c620004c2565b5b90600052602060002001546000600184866200014a9190620005d2565b620001569190620005d2565b815481106200016a5762000169620004c2565b5b9060005260206000200154604051602001620001889291906200063c565b604051602081830303815290604052805190602001209080600181540180825580915050600190039060005260206000200160009091909190915055600281620001d39190620005d2565b9050620000f1565b508181620001ea9190620005d2565b9050600282620001fb91906200069b565b9150620000e4565b50505050620006d3565b828054828255906000526020600020908101928215620002515760005260206000209182015b828111156200025057825482559160010191906001019062000233565b5b50905062000260919062000264565b5090565b5b808211156200027f57600081600090555060010162000265565b5090565b6000604051905090565b600080fd5b600080fd5b600080fd5b6000601f19601f8301169050919050565b7f4e487b7100000000000000000000000000000000000000000000000000000000600052604160045260246000fd5b620002e7826200029c565b810181811067ffffffffffffffff82111715620003095762000308620002ad565b5b80604052505050565b60006200031e62000283565b90506200032c8282620002dc565b919050565b600067ffffffffffffffff8211156200034f576200034e620002ad565b5b602082029050602081019050919050565b600080fd5b600073ffffffffffffffffffffffffffffffffffffffff82169050919050565b6000620003928262000365565b9050919050565b620003a48162000385565b8114620003b057600080fd5b50565b600081519050620003c48162000399565b92915050565b6000620003e1620003db8462000331565b62000312565b9050808382526020820190506020840283018581111562000407576200040662000360565b5b835b818110156200043457806200041f8882620003b3565b84526020840193505060208101905062000409565b5050509392505050565b600082601f83011262000456576200045562000297565b5b815162000468848260208601620003ca565b91505092915050565b6000602082840312156200048a57620004896200028d565b5b600082015167ffffffffffffffff811115620004ab57620004aa62000292565b5b620004b9848285016200043e565b91505092915050565b7f4e487b7100000000000000000000000000000000000000000000000000000000600052603260045260246000fd5b60008160601b9050919050565b60006200050b82620004f1565b9050919050565b60006200051f82620004fe565b9050919050565b6200053b620005358262000385565b62000512565b82525050565b60006200054f828462000526565b60148201915081905092915050565b6000819050919050565b7f4e487b7100000000000000000000000000000000000000000000000000000000600052601160045260246000fd5b6000620005a4826200055e565b9150620005b1836200055e565b9250828203905081811115620005cc57620005cb62000568565b5b92915050565b6000620005df826200055e565b9150620005ec836200055e565b925082820190508082111562000607576200060662000568565b5b92915050565b6000819050919050565b6000819050919050565b6200063662000630826200060d565b62000617565b82525050565b60006200064a828562000621565b6020820191506200065c828462000621565b6020820191508190509392505050565b7f4e487b7100000000000000000000000000000000000000000000000000000000600052601260045260246000fd5b6000620006a8826200055e565b9150620006b5836200055e565b925082620006c857620006c76200066c565b5b828204905092915050565b61083a80620006e36000396000f3fe608060405234801561001057600080fd5b50600436106100575760003560e01c8063174f6e741461005c57806321fb335c1461007a5780633ff721ba146100aa578063501895ae146100da5780635ca1e1651461010a575b600080fd5b610064610128565b6040516100719190610393565b60405180910390f35b610094600480360381019061008f9190610584565b610180565b6040516100a19190610622565b60405180910390f35b6100c460048036038101906100bf919061063d565b61024d565b6040516100d19190610679565b60405180910390f35b6100f460048036038101906100ef919061063d565b610271565b6040516101019190610679565b60405180910390f35b610112610295565b60405161011f9190610679565b60405180910390f35b6060600180548060200260200160405190810160405280929190818152602001828054801561017657602002820191906000526020600020905b815481526020019060010190808311610162575b5050505050905090565b60008083905060005b865181101561023e5760008782815181106101a7576101a6610694565b5b6020026020010151905060006002866101c091906106f2565b036101f55782816040516020016101d8929190610744565b604051602081830303815290604052805190602001209250610221565b8083604051602001610208929190610744565b6040516020818303038152906040528051906020012092505b60028561022e919061079f565b9450508080600101915050610189565b50848114915050949350505050565b6001818154811061025d57600080fd5b906000526020600020016000915090505481565b6000818154811061028157600080fd5b906000526020600020016000915090505481565b60008060016000805490506102aa91906107d0565b815481106102bb576102ba610694565b5b9060005260206000200154905090565b600081519050919050565b600082825260208201905092915050565b6000819050602082019050919050565b6000819050919050565b61030a816102f7565b82525050565b600061031c8383610301565b60208301905092915050565b6000602082019050919050565b6000610340826102cb565b61034a81856102d6565b9350610355836102e7565b8060005b8381101561038657815161036d8882610310565b975061037883610328565b925050600181019050610359565b5085935050505092915050565b600060208201905081810360008301526103ad8184610335565b905092915050565b6000604051905090565b600080fd5b600080fd5b600080fd5b6000601f19601f8301169050919050565b7f4e487b7100000000000000000000000000000000000000000000000000000000600052604160045260246000fd5b610417826103ce565b810181811067ffffffffffffffff82111715610436576104356103df565b5b80604052505050565b60006104496103b5565b9050610455828261040e565b919050565b600067ffffffffffffffff821115610475576104746103df565b5b602082029050602081019050919050565b600080fd5b610494816102f7565b811461049f57600080fd5b50565b6000813590506104b18161048b565b92915050565b60006104ca6104c58461045a565b61043f565b905080838252602082019050602084028301858111156104ed576104ec610486565b5b835b81811015610516578061050288826104a2565b8452602084019350506020810190506104ef565b5050509392505050565b600082601f830112610535576105346103c9565b5b81356105458482602086016104b7565b91505092915050565b6000819050919050565b6105618161054e565b811461056c57600080fd5b50565b60008135905061057e81610558565b92915050565b6000806000806080858703121561059e5761059d6103bf565b5b600085013567ffffffffffffffff8111156105bc576105bb6103c4565b5b6105c887828801610520565b94505060206105d9878288016104a2565b93505060406105ea878288016104a2565b92505060606105fb8782880161056f565b91505092959194509250565b60008115159050919050565b61061c81610607565b82525050565b60006020820190506106376000830184610613565b92915050565b600060208284031215610653576106526103bf565b5b60006106618482850161056f565b91505092915050565b610673816102f7565b82525050565b600060208201905061068e600083018461066a565b92915050565b7f4e487b7100000000000000000000000000000000000000000000000000000000600052603260045260246000fd5b7f4e487b7100000000000000000000000000000000000000000000000000000000600052601260045260246000fd5b60006106fd8261054e565b91506107088361054e565b925082610718576107176106c3565b5b828206905092915050565b6000819050919050565b61073e610739826102f7565b610723565b82525050565b6000610750828561072d565b602082019150610760828461072d565b6020820191508190509392505050565b7f4e487b7100000000000000000000000000000000000000000000000000000000600052601160045260246000fd5b60006107aa8261054e565b91506107b58361054e565b9250826107c5576107c46106c3565b5b828204905092915050565b60006107db8261054e565b91506107e68361054e565b92508282039050818111156107fe576107fd610770565b5b9291505056fea2646970667358221220654eac042aac8e155a9bf9385bb16e963dbb6e97c32e2b66fb50cf09062992e064736f6c63430008180033a2646970667358221220ed61f190fe76c727b8ed27eda68d99c9f227c2caf7b071fce87431da41b77fab64736f6c63430008180033","opcodes":"PUSH1 0x80 PUSH1 0x40 MSTORE CALLVALUE DUP1 ISZERO PUSH3 0x11 JUMPI PUSH1 0x0 DUP1 REVERT JUMPDEST POP PUSH1 0x40 MLOAD PUSH3 0x2886 CODESIZE SUB DUP1 PUSH3 0x2886 DUP4 CODECOPY DUP2 DUP2 ADD PUSH1 0x40 MSTORE DUP2 ADD SWAP1 PUSH3 0x37 SWAP2 SWAP1 PUSH3 0x235 JUMP JUMPDEST CALLER PUSH1 0x0 PUSH20 0xFFFFFFFFFFFFFFFFFFFFFFFFFFFFFFFFFFFFFFFF AND DUP2 PUSH20 0xFFFFFFFFFFFFFFFFFFFFFFFFFFFFFFFFFFFFFFFF AND SUB PUSH3 0xAD JUMPI PUSH1 0x0 PUSH1 0x40 MLOAD PUSH32 0x1E4FBDF700000000000000000000000000000000000000000000000000000000 DUP2 MSTORE PUSH1 0x4 ADD PUSH3 0xA4 SWAP2 SWAP1 PUSH3 0x278 JUMP JUMPDEST PUSH1 0x40 MLOAD DUP1 SWAP2 SUB SWAP1 REVERT JUMPDEST PUSH3 0xBE DUP2 PUSH3 0x107 PUSH1 0x20 SHL PUSH1 0x20 SHR JUMP JUMPDEST POP DUP1 PUSH1 0x1 PUSH1 0x0 PUSH2 0x100 EXP DUP2 SLOAD DUP2 PUSH20 0xFFFFFFFFFFFFFFFFFFFFFFFFFFFFFFFFFFFFFFFF MUL NOT AND SWAP1 DUP4 PUSH20 0xFFFFFFFFFFFFFFFFFFFFFFFFFFFFFFFFFFFFFFFF AND MUL OR SWAP1 SSTORE POP POP PUSH3 0x295 JUMP JUMPDEST PUSH1 0x0 DUP1 PUSH1 0x0 SWAP1 SLOAD SWAP1 PUSH2 0x100 EXP SWAP1 DIV PUSH20 0xFFFFFFFFFFFFFFFFFFFFFFFFFFFFFFFFFFFFFFFF AND SWAP1 POP DUP2 PUSH1 0x0 DUP1 PUSH2 0x100 EXP DUP2 SLOAD DUP2 PUSH20 0xFFFFFFFFFFFFFFFFFFFFFFFFFFFFFFFFFFFFFFFF MUL NOT AND SWAP1 DUP4 PUSH20 0xFFFFFFFFFFFFFFFFFFFFFFFFFFFFFFFFFFFFFFFF AND MUL OR SWAP1 SSTORE POP DUP2 PUSH20 0xFFFFFFFFFFFFFFFFFFFFFFFFFFFFFFFFFFFFFFFF AND DUP2 PUSH20 0xFFFFFFFFFFFFFFFFFFFFFFFFFFFFFFFFFFFFFFFF AND PUSH32 0x8BE0079C531659141344CD1FD0A4F28419497F9722A3DAAFE3B4186F6B6457E0 PUSH1 0x40 MLOAD PUSH1 0x40 MLOAD DUP1 SWAP2 SUB SWAP1 LOG3 POP POP JUMP JUMPDEST PUSH1 0x0 DUP1 REVERT JUMPDEST PUSH1 0x0 PUSH20 0xFFFFFFFFFFFFFFFFFFFFFFFFFFFFFFFFFFFFFFFF DUP3 AND SWAP1 POP SWAP2 SWAP1 POP JUMP JUMPDEST PUSH1 0x0 PUSH3 0x1FD DUP3 PUSH3 0x1D0 JUMP JUMPDEST SWAP1 POP SWAP2 SWAP1 POP JUMP JUMPDEST PUSH3 0x20F DUP2 PUSH3 0x1F0 JUMP JUMPDEST DUP2 EQ PUSH3 0x21B JUMPI PUSH1 0x0 DUP1 REVERT JUMPDEST POP JUMP JUMPDEST PUSH1 0x0 DUP2 MLOAD SWAP1 POP PUSH3 0x22F DUP2 PUSH3 0x204 JUMP JUMPDEST SWAP3 SWAP2 POP POP JUMP JUMPDEST PUSH1 0x0 PUSH1 0x20 DUP3 DUP5 SUB SLT ISZERO PUSH3 0x24E JUMPI PUSH3 0x24D PUSH3 0x1CB JUMP JUMPDEST JUMPDEST PUSH1 0x0 PUSH3 0x25E DUP5 DUP3 DUP6 ADD PUSH3 0x21E JUMP JUMPDEST SWAP2 POP POP SWAP3 SWAP2 POP POP JUMP JUMPDEST PUSH3 0x272 DUP2 PUSH3 0x1F0 JUMP JUMPDEST DUP3 MSTORE POP POP JUMP JUMPDEST PUSH1 0x0 PUSH1 0x20 DUP3 ADD SWAP1 POP PUSH3 0x28F PUSH1 0x0 DUP4 ADD DUP5 PUSH3 0x267 JUMP JUMPDEST SWAP3 SWAP2 POP POP JUMP JUMPDEST PUSH2 0x25E1 DUP1 PUSH3 0x2A5 PUSH1 0x0 CODECOPY PUSH1 0x0 RETURN INVALID PUSH1 0x80 PUSH1 0x40 MSTORE CALLVALUE DUP1 ISZERO PUSH3 0x11 JUMPI PUSH1 0x0 DUP1 REVERT JUMPDEST POP PUSH1 0x4 CALLDATASIZE LT PUSH3 0xE2 JUMPI PUSH1 0x0 CALLDATALOAD PUSH1 0xE0 SHR DUP1 PUSH4 0x8DA5CB5B GT PUSH3 0x99 JUMPI DUP1 PUSH4 0xCFB64AFE GT PUSH3 0x6F JUMPI DUP1 PUSH4 0xCFB64AFE EQ PUSH3 0x251 JUMPI DUP1 PUSH4 0xF2FDE38B EQ PUSH3 0x273 JUMPI DUP1 PUSH4 0xF3FEF3A3 EQ PUSH3 0x293 JUMPI DUP1 PUSH4 0xFB0135D1 EQ PUSH3 0x2B3 JUMPI PUSH3 0xE2 JUMP JUMPDEST DUP1 PUSH4 0x8DA5CB5B EQ PUSH3 0x1C3 JUMPI DUP1 PUSH4 0x8E739461 EQ PUSH3 0x1E5 JUMPI DUP1 PUSH4 0xA6F936AC EQ PUSH3 0x21B JUMPI PUSH3 0xE2 JUMP JUMPDEST DUP1 PUSH4 0x39CD53EE EQ PUSH3 0xE7 JUMPI DUP1 PUSH4 0x43923FDF EQ PUSH3 0x11D JUMPI DUP1 PUSH4 0x64790AE6 EQ PUSH3 0x13F JUMPI DUP1 PUSH4 0x65AC4341 EQ PUSH3 0x15F JUMPI DUP1 PUSH4 0x715018A6 EQ PUSH3 0x181 JUMPI DUP1 PUSH4 0x8909AA3F EQ PUSH3 0x18D JUMPI JUMPDEST PUSH1 0x0 DUP1 REVERT JUMPDEST PUSH3 0x105 PUSH1 0x4 DUP1 CALLDATASIZE SUB DUP2 ADD SWAP1 PUSH3 0xFF SWAP2 SWAP1 PUSH3 0xC0A JUMP JUMPDEST PUSH3 0x2D3 JUMP JUMPDEST PUSH1 0x40 MLOAD PUSH3 0x114 SWAP2 SWAP1 PUSH3 0xC59 JUMP JUMPDEST PUSH1 0x40 MLOAD DUP1 SWAP2 SUB SWAP1 RETURN JUMPDEST PUSH3 0x127 PUSH3 0x2F3 JUMP JUMPDEST PUSH1 0x40 MLOAD PUSH3 0x136 SWAP2 SWAP1 PUSH3 0xD44 JUMP JUMPDEST PUSH1 0x40 MLOAD DUP1 SWAP2 SUB SWAP1 RETURN JUMPDEST PUSH3 0x15D PUSH1 0x4 DUP1 CALLDATASIZE SUB DUP2 ADD SWAP1 PUSH3 0x157 SWAP2 SWAP1 PUSH3 0xF7D JUMP JUMPDEST PUSH3 0x39D JUMP JUMPDEST STOP JUMPDEST PUSH3 0x169 PUSH3 0x4D9 JUMP JUMPDEST PUSH1 0x40 MLOAD PUSH3 0x178 SWAP2 SWAP1 PUSH3 0xFF4 JUMP JUMPDEST PUSH1 0x40 MLOAD DUP1 SWAP2 SUB SWAP1 RETURN JUMPDEST PUSH3 0x18B PUSH3 0x4ED JUMP JUMPDEST STOP JUMPDEST PUSH3 0x1AB PUSH1 0x4 DUP1 CALLDATASIZE SUB DUP2 ADD SWAP1 PUSH3 0x1A5 SWAP2 SWAP1 PUSH3 0xC0A JUMP JUMPDEST PUSH3 0x505 JUMP JUMPDEST PUSH1 0x40 MLOAD PUSH3 0x1BA SWAP2 SWAP1 PUSH3 0xFF4 JUMP JUMPDEST PUSH1 0x40 MLOAD DUP1 SWAP2 SUB SWAP1 RETURN JUMPDEST PUSH3 0x1CD PUSH3 0x51D JUMP JUMPDEST PUSH1 0x40 MLOAD PUSH3 0x1DC SWAP2 SWAP1 PUSH3 0x1022 JUMP JUMPDEST PUSH1 0x40 MLOAD DUP1 SWAP2 SUB SWAP1 RETURN JUMPDEST PUSH3 0x203 PUSH1 0x4 DUP1 CALLDATASIZE SUB DUP2 ADD SWAP1 PUSH3 0x1FD SWAP2 SWAP1 PUSH3 0xC0A JUMP JUMPDEST PUSH3 0x546 JUMP JUMPDEST PUSH1 0x40 MLOAD PUSH3 0x212 SWAP2 SWAP1 PUSH3 0xFF4 JUMP JUMPDEST PUSH1 0x40 MLOAD DUP1 SWAP2 SUB SWAP1 RETURN JUMPDEST PUSH3 0x239 PUSH1 0x4 DUP1 CALLDATASIZE SUB DUP2 ADD SWAP1 PUSH3 0x233 SWAP2 SWAP1 PUSH3 0x103F JUMP JUMPDEST PUSH3 0x56D JUMP JUMPDEST PUSH1 0x40 MLOAD PUSH3 0x248 SWAP2 SWAP1 PUSH3 0xC59 JUMP JUMPDEST PUSH1 0x40 MLOAD DUP1 SWAP2 SUB SWAP1 RETURN JUMPDEST PUSH3 0x25B PUSH3 0x668 JUMP JUMPDEST PUSH1 0x40 MLOAD PUSH3 0x26A SWAP2 SWAP1 PUSH3 0xFF4 JUMP JUMPDEST PUSH1 0x40 MLOAD DUP1 SWAP2 SUB SWAP1 RETURN JUMPDEST PUSH3 0x291 PUSH1 0x4 DUP1 CALLDATASIZE SUB DUP2 ADD SWAP1 PUSH3 0x28B SWAP2 SWAP1 PUSH3 0x1086 JUMP JUMPDEST PUSH3 0x66E JUMP JUMPDEST STOP JUMPDEST PUSH3 0x2B1 PUSH1 0x4 DUP1 CALLDATASIZE SUB DUP2 ADD SWAP1 PUSH3 0x2AB SWAP2 SWAP1 PUSH3 0x10B8 JUMP JUMPDEST PUSH3 0x6FB JUMP JUMPDEST STOP JUMPDEST PUSH3 0x2D1 PUSH1 0x4 DUP1 CALLDATASIZE SUB DUP2 ADD SWAP1 PUSH3 0x2CB SWAP2 SWAP1 PUSH3 0xC0A JUMP JUMPDEST PUSH3 0x7F5 JUMP JUMPDEST STOP JUMPDEST PUSH1 0x7 PUSH1 0x20 MSTORE DUP1 PUSH1 0x0 MSTORE PUSH1 0x40 PUSH1 0x0 KECCAK256 PUSH1 0x0 SWAP2 POP SLOAD SWAP1 PUSH2 0x100 EXP SWAP1 DIV PUSH1 0xFF AND DUP2 JUMP JUMPDEST PUSH1 0x60 PUSH3 0x2FF PUSH3 0x8BC JUMP JUMPDEST PUSH1 0x2 PUSH1 0x0 SWAP1 SLOAD SWAP1 PUSH2 0x100 EXP SWAP1 DIV PUSH20 0xFFFFFFFFFFFFFFFFFFFFFFFFFFFFFFFFFFFFFFFF AND PUSH20 0xFFFFFFFFFFFFFFFFFFFFFFFFFFFFFFFFFFFFFFFF AND PUSH4 0x174F6E74 PUSH1 0x40 MLOAD DUP2 PUSH4 0xFFFFFFFF AND PUSH1 0xE0 SHL DUP2 MSTORE PUSH1 0x4 ADD PUSH1 0x0 PUSH1 0x40 MLOAD DUP1 DUP4 SUB DUP2 DUP7 GAS STATICCALL ISZERO DUP1 ISZERO PUSH3 0x36D JUMPI RETURNDATASIZE PUSH1 0x0 DUP1 RETURNDATACOPY RETURNDATASIZE PUSH1 0x0 REVERT JUMPDEST POP POP POP POP PUSH1 0x40 MLOAD RETURNDATASIZE PUSH1 0x0 DUP3 RETURNDATACOPY RETURNDATASIZE PUSH1 0x1F NOT PUSH1 0x1F DUP3 ADD AND DUP3 ADD DUP1 PUSH1 0x40 MSTORE POP DUP2 ADD SWAP1 PUSH3 0x398 SWAP2 SWAP1 PUSH3 0x11EC JUMP JUMPDEST SWAP1 POP SWAP1 JUMP JUMPDEST PUSH3 0x3A7 PUSH3 0x8BC JUMP JUMPDEST DUP2 PUSH1 0x3 DUP2 SWAP1 SSTORE POP DUP1 MLOAD PUSH1 0x4 DUP2 SWAP1 SSTORE POP PUSH1 0x4 SLOAD PUSH1 0x3 SLOAD PUSH3 0x3C8 SWAP2 SWAP1 PUSH3 0x129B JUMP JUMPDEST PUSH1 0x5 DUP2 SWAP1 SSTORE POP PUSH3 0x3D9 DUP2 PUSH3 0x94C JUMP JUMPDEST PUSH1 0x1 PUSH1 0x0 SWAP1 SLOAD SWAP1 PUSH2 0x100 EXP SWAP1 DIV PUSH20 0xFFFFFFFFFFFFFFFFFFFFFFFFFFFFFFFFFFFFFFFF AND PUSH20 0xFFFFFFFFFFFFFFFFFFFFFFFFFFFFFFFFFFFFFFFF AND PUSH4 0xA9059CBB ADDRESS PUSH1 0x3 SLOAD PUSH1 0x40 MLOAD DUP4 PUSH4 0xFFFFFFFF AND PUSH1 0xE0 SHL DUP2 MSTORE PUSH1 0x4 ADD PUSH3 0x43A SWAP3 SWAP2 SWAP1 PUSH3 0x12D3 JUMP JUMPDEST PUSH1 0x20 PUSH1 0x40 MLOAD DUP1 DUP4 SUB DUP2 PUSH1 0x0 DUP8 GAS CALL ISZERO DUP1 ISZERO PUSH3 0x45A JUMPI RETURNDATASIZE PUSH1 0x0 DUP1 RETURNDATACOPY RETURNDATASIZE PUSH1 0x0 REVERT JUMPDEST POP POP POP POP PUSH1 0x40 MLOAD RETURNDATASIZE PUSH1 0x1F NOT PUSH1 0x1F DUP3 ADD AND DUP3 ADD DUP1 PUSH1 0x40 MSTORE POP DUP2 ADD SWAP1 PUSH3 0x480 SWAP2 SWAP1 PUSH3 0x1331 JUMP JUMPDEST POP CALLER PUSH20 0xFFFFFFFFFFFFFFFFFFFFFFFFFFFFFFFFFFFFFFFF AND PUSH32 0xB9BED5E9893E4C14E02D675E2D4D7F758B6DE9CAAE770AC8E6DE20E17F1A84A8 DUP4 PUSH1 0x4 SLOAD PUSH1 0x40 MLOAD PUSH3 0x4CD SWAP3 SWAP2 SWAP1 PUSH3 0x1363 JUMP JUMPDEST PUSH1 0x40 MLOAD DUP1 SWAP2 SUB SWAP1 LOG2 POP POP JUMP JUMPDEST PUSH1 0x0 PUSH3 0x4E5 PUSH3 0x8BC JUMP JUMPDEST PUSH1 0x3 SLOAD SWAP1 POP SWAP1 JUMP JUMPDEST PUSH3 0x4F7 PUSH3 0x8BC JUMP JUMPDEST PUSH3 0x503 PUSH1 0x0 PUSH3 0xAE1 JUMP JUMPDEST JUMP JUMPDEST PUSH1 0x8 PUSH1 0x20 MSTORE DUP1 PUSH1 0x0 MSTORE PUSH1 0x40 PUSH1 0x0 KECCAK256 PUSH1 0x0 SWAP2 POP SWAP1 POP SLOAD DUP2 JUMP JUMPDEST PUSH1 0x0 DUP1 PUSH1 0x0 SWAP1 SLOAD SWAP1 PUSH2 0x100 EXP SWAP1 DIV PUSH20 0xFFFFFFFFFFFFFFFFFFFFFFFFFFFFFFFFFFFFFFFF AND SWAP1 POP SWAP1 JUMP JUMPDEST PUSH1 0x0 PUSH3 0x552 PUSH3 0x8BC JUMP JUMPDEST PUSH1 0x8 PUSH1 0x0 DUP4 DUP2 MSTORE PUSH1 0x20 ADD SWAP1 DUP2 MSTORE PUSH1 0x20 ADD PUSH1 0x0 KECCAK256 SLOAD SWAP1 POP SWAP2 SWAP1 POP JUMP JUMPDEST PUSH1 0x0 PUSH1 0x1 ISZERO ISZERO PUSH1 0x7 PUSH1 0x0 DUP6 DUP2 MSTORE PUSH1 0x20 ADD SWAP1 DUP2 MSTORE PUSH1 0x20 ADD PUSH1 0x0 KECCAK256 PUSH1 0x0 SWAP1 SLOAD SWAP1 PUSH2 0x100 EXP SWAP1 DIV PUSH1 0xFF AND ISZERO ISZERO EQ PUSH3 0x5D9 JUMPI PUSH1 0x40 MLOAD PUSH32 0x8C379A000000000000000000000000000000000000000000000000000000000 DUP2 MSTORE PUSH1 0x4 ADD PUSH3 0x5D0 SWAP1 PUSH3 0x13F1 JUMP JUMPDEST PUSH1 0x40 MLOAD DUP1 SWAP2 SUB SWAP1 REVERT JUMPDEST DUP2 PUSH1 0x8 PUSH1 0x0 DUP6 DUP2 MSTORE PUSH1 0x20 ADD SWAP1 DUP2 MSTORE PUSH1 0x20 ADD PUSH1 0x0 KECCAK256 SLOAD LT ISZERO PUSH3 0x632 JUMPI PUSH1 0x40 MLOAD PUSH32 0x8C379A000000000000000000000000000000000000000000000000000000000 DUP2 MSTORE PUSH1 0x4 ADD PUSH3 0x629 SWAP1 PUSH3 0x1463 JUMP JUMPDEST PUSH1 0x40 MLOAD DUP1 SWAP2 SUB SWAP1 REVERT JUMPDEST DUP2 PUSH1 0x8 PUSH1 0x0 DUP6 DUP2 MSTORE PUSH1 0x20 ADD SWAP1 DUP2 MSTORE PUSH1 0x20 ADD PUSH1 0x0 KECCAK256 PUSH1 0x0 DUP3 DUP3 SLOAD PUSH3 0x657 SWAP2 SWAP1 PUSH3 0x1485 JUMP JUMPDEST SWAP3 POP POP DUP2 SWAP1 SSTORE POP PUSH1 0x1 SWAP1 POP SWAP3 SWAP2 POP POP JUMP JUMPDEST PUSH1 0x5 SLOAD DUP2 JUMP JUMPDEST PUSH3 0x678 PUSH3 0x8BC JUMP JUMPDEST PUSH1 0x0 PUSH20 0xFFFFFFFFFFFFFFFFFFFFFFFFFFFFFFFFFFFFFFFF AND DUP2 PUSH20 0xFFFFFFFFFFFFFFFFFFFFFFFFFFFFFFFFFFFFFFFF AND SUB PUSH3 0x6ED JUMPI PUSH1 0x0 PUSH1 0x40 MLOAD PUSH32 0x1E4FBDF700000000000000000000000000000000000000000000000000000000 DUP2 MSTORE PUSH1 0x4 ADD PUSH3 0x6E4 SWAP2 SWAP1 PUSH3 0x1022 JUMP JUMPDEST PUSH1 0x40 MLOAD DUP1 SWAP2 SUB SWAP1 REVERT JUMPDEST PUSH3 0x6F8 DUP2 PUSH3 0xAE1 JUMP JUMPDEST POP JUMP JUMPDEST PUSH1 0x1 PUSH1 0x0 SWAP1 SLOAD SWAP1 PUSH2 0x100 EXP SWAP1 DIV PUSH20 0xFFFFFFFFFFFFFFFFFFFFFFFFFFFFFFFFFFFFFFFF AND PUSH20 0xFFFFFFFFFFFFFFFFFFFFFFFFFFFFFFFFFFFFFFFF AND PUSH4 0xA9059CBB DUP4 DUP4 PUSH1 0x40 MLOAD DUP4 PUSH4 0xFFFFFFFF AND PUSH1 0xE0 SHL DUP2 MSTORE PUSH1 0x4 ADD PUSH3 0x75A SWAP3 SWAP2 SWAP1 PUSH3 0x12D3 JUMP JUMPDEST PUSH1 0x20 PUSH1 0x40 MLOAD DUP1 DUP4 SUB DUP2 PUSH1 0x0 DUP8 GAS CALL ISZERO DUP1 ISZERO PUSH3 0x77A JUMPI RETURNDATASIZE PUSH1 0x0 DUP1 RETURNDATACOPY RETURNDATASIZE PUSH1 0x0 REVERT JUMPDEST POP POP POP POP PUSH1 0x40 MLOAD RETURNDATASIZE PUSH1 0x1F NOT PUSH1 0x1F DUP3 ADD AND DUP3 ADD DUP1 PUSH1 0x40 MSTORE POP DUP2 ADD SWAP1 PUSH3 0x7A0 SWAP2 SWAP1 PUSH3 0x1331 JUMP JUMPDEST POP DUP2 PUSH20 0xFFFFFFFFFFFFFFFFFFFFFFFFFFFFFFFFFFFFFFFF AND PUSH32 0x7FCF532C15F0A6DB0BD6D0E038BEA71D30D808C7D98CB3BF7268A95BF5081B65 DUP3 PUSH1 0x40 MLOAD PUSH3 0x7E9 SWAP2 SWAP1 PUSH3 0xFF4 JUMP JUMPDEST PUSH1 0x40 MLOAD DUP1 SWAP2 SUB SWAP1 LOG2 POP POP JUMP JUMPDEST PUSH1 0x0 ISZERO ISZERO PUSH1 0x7 PUSH1 0x0 DUP4 DUP2 MSTORE PUSH1 0x20 ADD SWAP1 DUP2 MSTORE PUSH1 0x20 ADD PUSH1 0x0 KECCAK256 PUSH1 0x0 SWAP1 SLOAD SWAP1 PUSH2 0x100 EXP SWAP1 DIV PUSH1 0xFF AND ISZERO ISZERO EQ PUSH3 0x85F JUMPI PUSH1 0x40 MLOAD PUSH32 0x8C379A000000000000000000000000000000000000000000000000000000000 DUP2 MSTORE PUSH1 0x4 ADD PUSH3 0x856 SWAP1 PUSH3 0x1510 JUMP JUMPDEST PUSH1 0x40 MLOAD DUP1 SWAP2 SUB SWAP1 REVERT JUMPDEST PUSH1 0x1 PUSH1 0x7 PUSH1 0x0 DUP4 DUP2 MSTORE PUSH1 0x20 ADD SWAP1 DUP2 MSTORE PUSH1 0x20 ADD PUSH1 0x0 KECCAK256 PUSH1 0x0 PUSH2 0x100 EXP DUP2 SLOAD DUP2 PUSH1 0xFF MUL NOT AND SWAP1 DUP4 ISZERO ISZERO MUL OR SWAP1 SSTORE POP PUSH1 0x5 SLOAD PUSH1 0x8 PUSH1 0x0 DUP4 DUP2 MSTORE PUSH1 0x20 ADD SWAP1 DUP2 MSTORE PUSH1 0x20 ADD PUSH1 0x0 KECCAK256 PUSH1 0x0 DUP3 DUP3 SLOAD PUSH3 0x8B2 SWAP2 SWAP1 PUSH3 0x1532 JUMP JUMPDEST SWAP3 POP POP DUP2 SWAP1 SSTORE POP POP JUMP JUMPDEST PUSH3 0x8C6 PUSH3 0xBA5 JUMP JUMPDEST PUSH20 0xFFFFFFFFFFFFFFFFFFFFFFFFFFFFFFFFFFFFFFFF AND PUSH3 0x8E6 PUSH3 0x51D JUMP JUMPDEST PUSH20 0xFFFFFFFFFFFFFFFFFFFFFFFFFFFFFFFFFFFFFFFF AND EQ PUSH3 0x94A JUMPI PUSH3 0x90C PUSH3 0xBA5 JUMP JUMPDEST PUSH1 0x40 MLOAD PUSH32 0x118CDAA700000000000000000000000000000000000000000000000000000000 DUP2 MSTORE PUSH1 0x4 ADD PUSH3 0x941 SWAP2 SWAP1 PUSH3 0x1022 JUMP JUMPDEST PUSH1 0x40 MLOAD DUP1 SWAP2 SUB SWAP1 REVERT JUMPDEST JUMP JUMPDEST DUP1 PUSH1 0x40 MLOAD PUSH3 0x95B SWAP1 PUSH3 0xBAD JUMP JUMPDEST PUSH3 0x967 SWAP2 SWAP1 PUSH3 0x163B JUMP JUMPDEST PUSH1 0x40 MLOAD DUP1 SWAP2 SUB SWAP1 PUSH1 0x0 CREATE DUP1 ISZERO DUP1 ISZERO PUSH3 0x984 JUMPI RETURNDATASIZE PUSH1 0x0 DUP1 RETURNDATACOPY RETURNDATASIZE PUSH1 0x0 REVERT JUMPDEST POP PUSH1 0x2 PUSH1 0x0 PUSH2 0x100 EXP DUP2 SLOAD DUP2 PUSH20 0xFFFFFFFFFFFFFFFFFFFFFFFFFFFFFFFFFFFFFFFF MUL NOT AND SWAP1 DUP4 PUSH20 0xFFFFFFFFFFFFFFFFFFFFFFFFFFFFFFFFFFFFFFFF AND MUL OR SWAP1 SSTORE POP PUSH1 0x0 PUSH1 0x2 PUSH1 0x0 SWAP1 SLOAD SWAP1 PUSH2 0x100 EXP SWAP1 DIV PUSH20 0xFFFFFFFFFFFFFFFFFFFFFFFFFFFFFFFFFFFFFFFF AND PUSH20 0xFFFFFFFFFFFFFFFFFFFFFFFFFFFFFFFFFFFFFFFF AND PUSH4 0x174F6E74 PUSH1 0x40 MLOAD DUP2 PUSH4 0xFFFFFFFF AND PUSH1 0xE0 SHL DUP2 MSTORE PUSH1 0x4 ADD PUSH1 0x0 PUSH1 0x40 MLOAD DUP1 DUP4 SUB DUP2 DUP7 GAS STATICCALL ISZERO DUP1 ISZERO PUSH3 0xA35 JUMPI RETURNDATASIZE PUSH1 0x0 DUP1 RETURNDATACOPY RETURNDATASIZE PUSH1 0x0 REVERT JUMPDEST POP POP POP POP PUSH1 0x40 MLOAD RETURNDATASIZE PUSH1 0x0 DUP3 RETURNDATACOPY RETURNDATASIZE PUSH1 0x1F NOT PUSH1 0x1F DUP3 ADD AND DUP3 ADD DUP1 PUSH1 0x40 MSTORE POP DUP2 ADD SWAP1 PUSH3 0xA60 SWAP2 SWAP1 PUSH3 0x11EC JUMP JUMPDEST SWAP1 POP PUSH1 0x0 JUMPDEST DUP2 MLOAD DUP2 LT ISZERO PUSH3 0xADC JUMPI PUSH3 0xA97 DUP3 DUP3 DUP2 MLOAD DUP2 LT PUSH3 0xA89 JUMPI PUSH3 0xA88 PUSH3 0x165F JUMP JUMPDEST JUMPDEST PUSH1 0x20 MUL PUSH1 0x20 ADD ADD MLOAD PUSH3 0x7F5 JUMP JUMPDEST PUSH1 0x5 SLOAD PUSH1 0x8 PUSH1 0x0 DUP5 DUP5 DUP2 MLOAD DUP2 LT PUSH3 0xAB4 JUMPI PUSH3 0xAB3 PUSH3 0x165F JUMP JUMPDEST JUMPDEST PUSH1 0x20 MUL PUSH1 0x20 ADD ADD MLOAD DUP2 MSTORE PUSH1 0x20 ADD SWAP1 DUP2 MSTORE PUSH1 0x20 ADD PUSH1 0x0 KECCAK256 DUP2 SWAP1 SSTORE POP DUP1 DUP1 PUSH1 0x1 ADD SWAP2 POP POP PUSH3 0xA65 JUMP JUMPDEST POP POP POP JUMP JUMPDEST PUSH1 0x0 DUP1 PUSH1 0x0 SWAP1 SLOAD SWAP1 PUSH2 0x100 EXP SWAP1 DIV PUSH20 0xFFFFFFFFFFFFFFFFFFFFFFFFFFFFFFFFFFFFFFFF AND SWAP1 POP DUP2 PUSH1 0x0 DUP1 PUSH2 0x100 EXP DUP2 SLOAD DUP2 PUSH20 0xFFFFFFFFFFFFFFFFFFFFFFFFFFFFFFFFFFFFFFFF MUL NOT AND SWAP1 DUP4 PUSH20 0xFFFFFFFFFFFFFFFFFFFFFFFFFFFFFFFFFFFFFFFF AND MUL OR SWAP1 SSTORE POP DUP2 PUSH20 0xFFFFFFFFFFFFFFFFFFFFFFFFFFFFFFFFFFFFFFFF AND DUP2 PUSH20 0xFFFFFFFFFFFFFFFFFFFFFFFFFFFFFFFFFFFFFFFF AND PUSH32 0x8BE0079C531659141344CD1FD0A4F28419497F9722A3DAAFE3B4186F6B6457E0 PUSH1 0x40 MLOAD PUSH1 0x40 MLOAD DUP1 SWAP2 SUB SWAP1 LOG3 POP POP JUMP JUMPDEST PUSH1 0x0 CALLER SWAP1 POP SWAP1 JUMP JUMPDEST PUSH2 0xF1D DUP1 PUSH3 0x168F DUP4 CODECOPY ADD SWAP1 JUMP JUMPDEST PUSH1 0x0 PUSH1 0x40 MLOAD SWAP1 POP SWAP1 JUMP JUMPDEST PUSH1 0x0 DUP1 REVERT JUMPDEST PUSH1 0x0 DUP1 REVERT JUMPDEST PUSH1 0x0 DUP2 SWAP1 POP SWAP2 SWAP1 POP JUMP JUMPDEST PUSH3 0xBE4 DUP2 PUSH3 0xBCF JUMP JUMPDEST DUP2 EQ PUSH3 0xBF0 JUMPI PUSH1 0x0 DUP1 REVERT JUMPDEST POP JUMP JUMPDEST PUSH1 0x0 DUP2 CALLDATALOAD SWAP1 POP PUSH3 0xC04 DUP2 PUSH3 0xBD9 JUMP JUMPDEST SWAP3 SWAP2 POP POP JUMP JUMPDEST PUSH1 0x0 PUSH1 0x20 DUP3 DUP5 SUB SLT ISZERO PUSH3 0xC23 JUMPI PUSH3 0xC22 PUSH3 0xBC5 JUMP JUMPDEST JUMPDEST PUSH1 0x0 PUSH3 0xC33 DUP5 DUP3 DUP6 ADD PUSH3 0xBF3 JUMP JUMPDEST SWAP2 POP POP SWAP3 SWAP2 POP POP JUMP JUMPDEST PUSH1 0x0 DUP2 ISZERO ISZERO SWAP1 POP SWAP2 SWAP1 POP JUMP JUMPDEST PUSH3 0xC53 DUP2 PUSH3 0xC3C JUMP JUMPDEST DUP3 MSTORE POP POP JUMP JUMPDEST PUSH1 0x0 PUSH1 0x20 DUP3 ADD SWAP1 POP PUSH3 0xC70 PUSH1 0x0 DUP4 ADD DUP5 PUSH3 0xC48 JUMP JUMPDEST SWAP3 SWAP2 POP POP JUMP JUMPDEST PUSH1 0x0 DUP2 MLOAD SWAP1 POP SWAP2 SWAP1 POP JUMP JUMPDEST PUSH1 0x0 DUP3 DUP3 MSTORE PUSH1 0x20 DUP3 ADD SWAP1 POP SWAP3 SWAP2 POP POP JUMP JUMPDEST PUSH1 0x0 DUP2 SWAP1 POP PUSH1 0x20 DUP3 ADD SWAP1 POP SWAP2 SWAP1 POP JUMP JUMPDEST PUSH3 0xCAD DUP2 PUSH3 0xBCF JUMP JUMPDEST DUP3 MSTORE POP POP JUMP JUMPDEST PUSH1 0x0 PUSH3 0xCC1 DUP4 DUP4 PUSH3 0xCA2 JUMP JUMPDEST PUSH1 0x20 DUP4 ADD SWAP1 POP SWAP3 SWAP2 POP POP JUMP JUMPDEST PUSH1 0x0 PUSH1 0x20 DUP3 ADD SWAP1 POP SWAP2 SWAP1 POP JUMP JUMPDEST PUSH1 0x0 PUSH3 0xCE7 DUP3 PUSH3 0xC76 JUMP JUMPDEST PUSH3 0xCF3 DUP2 DUP6 PUSH3 0xC81 JUMP JUMPDEST SWAP4 POP PUSH3 0xD00 DUP4 PUSH3 0xC92 JUMP JUMPDEST DUP1 PUSH1 0x0 JUMPDEST DUP4 DUP2 LT ISZERO PUSH3 0xD37 JUMPI DUP2 MLOAD PUSH3 0xD1B DUP9 DUP3 PUSH3 0xCB3 JUMP JUMPDEST SWAP8 POP PUSH3 0xD28 DUP4 PUSH3 0xCCD JUMP JUMPDEST SWAP3 POP POP PUSH1 0x1 DUP2 ADD SWAP1 POP PUSH3 0xD04 JUMP JUMPDEST POP DUP6 SWAP4 POP POP POP POP SWAP3 SWAP2 POP POP JUMP JUMPDEST PUSH1 0x0 PUSH1 0x20 DUP3 ADD SWAP1 POP DUP2 DUP2 SUB PUSH1 0x0 DUP4 ADD MSTORE PUSH3 0xD60 DUP2 DUP5 PUSH3 0xCDA JUMP JUMPDEST SWAP1 POP SWAP3 SWAP2 POP POP JUMP JUMPDEST PUSH1 0x0 DUP2 SWAP1 POP SWAP2 SWAP1 POP JUMP JUMPDEST PUSH3 0xD7D DUP2 PUSH3 0xD68 JUMP JUMPDEST DUP2 EQ PUSH3 0xD89 JUMPI PUSH1 0x0 DUP1 REVERT JUMPDEST POP JUMP JUMPDEST PUSH1 0x0 DUP2 CALLDATALOAD SWAP1 POP PUSH3 0xD9D DUP2 PUSH3 0xD72 JUMP JUMPDEST SWAP3 SWAP2 POP POP JUMP JUMPDEST PUSH1 0x0 DUP1 REVERT JUMPDEST PUSH1 0x0 PUSH1 0x1F NOT PUSH1 0x1F DUP4 ADD AND SWAP1 POP SWAP2 SWAP1 POP JUMP JUMPDEST PUSH32 0x4E487B7100000000000000000000000000000000000000000000000000000000 PUSH1 0x0 MSTORE PUSH1 0x41 PUSH1 0x4 MSTORE PUSH1 0x24 PUSH1 0x0 REVERT JUMPDEST PUSH3 0xDF3 DUP3 PUSH3 0xDA8 JUMP JUMPDEST DUP2 ADD DUP2 DUP2 LT PUSH8 0xFFFFFFFFFFFFFFFF DUP3 GT OR ISZERO PUSH3 0xE15 JUMPI PUSH3 0xE14 PUSH3 0xDB9 JUMP JUMPDEST JUMPDEST DUP1 PUSH1 0x40 MSTORE POP POP POP JUMP JUMPDEST PUSH1 0x0 PUSH3 0xE2A PUSH3 0xBBB JUMP JUMPDEST SWAP1 POP PUSH3 0xE38 DUP3 DUP3 PUSH3 0xDE8 JUMP JUMPDEST SWAP2 SWAP1 POP JUMP JUMPDEST PUSH1 0x0 PUSH8 0xFFFFFFFFFFFFFFFF DUP3 GT ISZERO PUSH3 0xE5B JUMPI PUSH3 0xE5A PUSH3 0xDB9 JUMP JUMPDEST JUMPDEST PUSH1 0x20 DUP3 MUL SWAP1 POP PUSH1 0x20 DUP2 ADD SWAP1 POP SWAP2 SWAP1 POP JUMP JUMPDEST PUSH1 0x0 DUP1 REVERT JUMPDEST PUSH1 0x0 PUSH20 0xFFFFFFFFFFFFFFFFFFFFFFFFFFFFFFFFFFFFFFFF DUP3 AND SWAP1 POP SWAP2 SWAP1 POP JUMP JUMPDEST PUSH1 0x0 PUSH3 0xE9E DUP3 PUSH3 0xE71 JUMP JUMPDEST SWAP1 POP SWAP2 SWAP1 POP JUMP JUMPDEST PUSH3 0xEB0 DUP2 PUSH3 0xE91 JUMP JUMPDEST DUP2 EQ PUSH3 0xEBC JUMPI PUSH1 0x0 DUP1 REVERT JUMPDEST POP JUMP JUMPDEST PUSH1 0x0 DUP2 CALLDATALOAD SWAP1 POP PUSH3 0xED0 DUP2 PUSH3 0xEA5 JUMP JUMPDEST SWAP3 SWAP2 POP POP JUMP JUMPDEST PUSH1 0x0 PUSH3 0xEED PUSH3 0xEE7 DUP5 PUSH3 0xE3D JUMP JUMPDEST PUSH3 0xE1E JUMP JUMPDEST SWAP1 POP DUP1 DUP4 DUP3 MSTORE PUSH1 0x20 DUP3 ADD SWAP1 POP PUSH1 0x20 DUP5 MUL DUP4 ADD DUP6 DUP2 GT ISZERO PUSH3 0xF13 JUMPI PUSH3 0xF12 PUSH3 0xE6C JUMP JUMPDEST JUMPDEST DUP4 JUMPDEST DUP2 DUP2 LT ISZERO PUSH3 0xF40 JUMPI DUP1 PUSH3 0xF2B DUP9 DUP3 PUSH3 0xEBF JUMP JUMPDEST DUP5 MSTORE PUSH1 0x20 DUP5 ADD SWAP4 POP POP PUSH1 0x20 DUP2 ADD SWAP1 POP PUSH3 0xF15 JUMP JUMPDEST POP POP POP SWAP4 SWAP3 POP POP POP JUMP JUMPDEST PUSH1 0x0 DUP3 PUSH1 0x1F DUP4 ADD SLT PUSH3 0xF62 JUMPI PUSH3 0xF61 PUSH3 0xDA3 JUMP JUMPDEST JUMPDEST DUP2 CALLDATALOAD PUSH3 0xF74 DUP5 DUP3 PUSH1 0x20 DUP7 ADD PUSH3 0xED6 JUMP JUMPDEST SWAP2 POP POP SWAP3 SWAP2 POP POP JUMP JUMPDEST PUSH1 0x0 DUP1 PUSH1 0x40 DUP4 DUP6 SUB SLT ISZERO PUSH3 0xF97 JUMPI PUSH3 0xF96 PUSH3 0xBC5 JUMP JUMPDEST JUMPDEST PUSH1 0x0 PUSH3 0xFA7 DUP6 DUP3 DUP7 ADD PUSH3 0xD8C JUMP JUMPDEST SWAP3 POP POP PUSH1 0x20 DUP4 ADD CALLDATALOAD PUSH8 0xFFFFFFFFFFFFFFFF DUP2 GT ISZERO PUSH3 0xFCB JUMPI PUSH3 0xFCA PUSH3 0xBCA JUMP JUMPDEST JUMPDEST PUSH3 0xFD9 DUP6 DUP3 DUP7 ADD PUSH3 0xF4A JUMP JUMPDEST SWAP2 POP POP SWAP3 POP SWAP3 SWAP1 POP JUMP JUMPDEST PUSH3 0xFEE DUP2 PUSH3 0xD68 JUMP JUMPDEST DUP3 MSTORE POP POP JUMP JUMPDEST PUSH1 0x0 PUSH1 0x20 DUP3 ADD SWAP1 POP PUSH3 0x100B PUSH1 0x0 DUP4 ADD DUP5 PUSH3 0xFE3 JUMP JUMPDEST SWAP3 SWAP2 POP POP JUMP JUMPDEST PUSH3 0x101C DUP2 PUSH3 0xE91 JUMP JUMPDEST DUP3 MSTORE POP POP JUMP JUMPDEST PUSH1 0x0 PUSH1 0x20 DUP3 ADD SWAP1 POP PUSH3 0x1039 PUSH1 0x0 DUP4 ADD DUP5 PUSH3 0x1011 JUMP JUMPDEST SWAP3 SWAP2 POP POP JUMP JUMPDEST PUSH1 0x0 DUP1 PUSH1 0x40 DUP4 DUP6 SUB SLT ISZERO PUSH3 0x1059 JUMPI PUSH3 0x1058 PUSH3 0xBC5 JUMP JUMPDEST JUMPDEST PUSH1 0x0 PUSH3 0x1069 DUP6 DUP3 DUP7 ADD PUSH3 0xBF3 JUMP JUMPDEST SWAP3 POP POP PUSH1 0x20 PUSH3 0x107C DUP6 DUP3 DUP7 ADD PUSH3 0xD8C JUMP JUMPDEST SWAP2 POP POP SWAP3 POP SWAP3 SWAP1 POP JUMP JUMPDEST PUSH1 0x0 PUSH1 0x20 DUP3 DUP5 SUB SLT ISZERO PUSH3 0x109F JUMPI PUSH3 0x109E PUSH3 0xBC5 JUMP JUMPDEST JUMPDEST PUSH1 0x0 PUSH3 0x10AF DUP5 DUP3 DUP6 ADD PUSH3 0xEBF JUMP JUMPDEST SWAP2 POP POP SWAP3 SWAP2 POP POP JUMP JUMPDEST PUSH1 0x0 DUP1 PUSH1 0x40 DUP4 DUP6 SUB SLT ISZERO PUSH3 0x10D2 JUMPI PUSH3 0x10D1 PUSH3 0xBC5 JUMP JUMPDEST JUMPDEST PUSH1 0x0 PUSH3 0x10E2 DUP6 DUP3 DUP7 ADD PUSH3 0xEBF JUMP JUMPDEST SWAP3 POP POP PUSH1 0x20 PUSH3 0x10F5 DUP6 DUP3 DUP7 ADD PUSH3 0xD8C JUMP JUMPDEST SWAP2 POP POP SWAP3 POP SWAP3 SWAP1 POP JUMP JUMPDEST PUSH1 0x0 PUSH8 0xFFFFFFFFFFFFFFFF DUP3 GT ISZERO PUSH3 0x111D JUMPI PUSH3 0x111C PUSH3 0xDB9 JUMP JUMPDEST JUMPDEST PUSH1 0x20 DUP3 MUL SWAP1 POP PUSH1 0x20 DUP2 ADD SWAP1 POP SWAP2 SWAP1 POP JUMP JUMPDEST PUSH1 0x0 DUP2 MLOAD SWAP1 POP PUSH3 0x113F DUP2 PUSH3 0xBD9 JUMP JUMPDEST SWAP3 SWAP2 POP POP JUMP JUMPDEST PUSH1 0x0 PUSH3 0x115C PUSH3 0x1156 DUP5 PUSH3 0x10FF JUMP JUMPDEST PUSH3 0xE1E JUMP JUMPDEST SWAP1 POP DUP1 DUP4 DUP3 MSTORE PUSH1 0x20 DUP3 ADD SWAP1 POP PUSH1 0x20 DUP5 MUL DUP4 ADD DUP6 DUP2 GT ISZERO PUSH3 0x1182 JUMPI PUSH3 0x1181 PUSH3 0xE6C JUMP JUMPDEST JUMPDEST DUP4 JUMPDEST DUP2 DUP2 LT ISZERO PUSH3 0x11AF JUMPI DUP1 PUSH3 0x119A DUP9 DUP3 PUSH3 0x112E JUMP JUMPDEST DUP5 MSTORE PUSH1 0x20 DUP5 ADD SWAP4 POP POP PUSH1 0x20 DUP2 ADD SWAP1 POP PUSH3 0x1184 JUMP JUMPDEST POP POP POP SWAP4 SWAP3 POP POP POP JUMP JUMPDEST PUSH1 0x0 DUP3 PUSH1 0x1F DUP4 ADD SLT PUSH3 0x11D1 JUMPI PUSH3 0x11D0 PUSH3 0xDA3 JUMP JUMPDEST JUMPDEST DUP2 MLOAD PUSH3 0x11E3 DUP5 DUP3 PUSH1 0x20 DUP7 ADD PUSH3 0x1145 JUMP JUMPDEST SWAP2 POP POP SWAP3 SWAP2 POP POP JUMP JUMPDEST PUSH1 0x0 PUSH1 0x20 DUP3 DUP5 SUB SLT ISZERO PUSH3 0x1205 JUMPI PUSH3 0x1204 PUSH3 0xBC5 JUMP JUMPDEST JUMPDEST PUSH1 0x0 DUP3 ADD MLOAD PUSH8 0xFFFFFFFFFFFFFFFF DUP2 GT ISZERO PUSH3 0x1226 JUMPI PUSH3 0x1225 PUSH3 0xBCA JUMP JUMPDEST JUMPDEST PUSH3 0x1234 DUP5 DUP3 DUP6 ADD PUSH3 0x11B9 JUMP JUMPDEST SWAP2 POP POP SWAP3 SWAP2 POP POP JUMP JUMPDEST PUSH32 0x4E487B7100000000000000000000000000000000000000000000000000000000 PUSH1 0x0 MSTORE PUSH1 0x12 PUSH1 0x4 MSTORE PUSH1 0x24 PUSH1 0x0 REVERT JUMPDEST PUSH32 0x4E487B7100000000000000000000000000000000000000000000000000000000 PUSH1 0x0 MSTORE PUSH1 0x11 PUSH1 0x4 MSTORE PUSH1 0x24 PUSH1 0x0 REVERT JUMPDEST PUSH1 0x0 PUSH3 0x12A8 DUP3 PUSH3 0xD68 JUMP JUMPDEST SWAP2 POP PUSH3 0x12B5 DUP4 PUSH3 0xD68 JUMP JUMPDEST SWAP3 POP DUP3 PUSH3 0x12C8 JUMPI PUSH3 0x12C7 PUSH3 0x123D JUMP JUMPDEST JUMPDEST DUP3 DUP3 DIV SWAP1 POP SWAP3 SWAP2 POP POP JUMP JUMPDEST PUSH1 0x0 PUSH1 0x40 DUP3 ADD SWAP1 POP PUSH3 0x12EA PUSH1 0x0 DUP4 ADD DUP6 PUSH3 0x1011 JUMP JUMPDEST PUSH3 0x12F9 PUSH1 0x20 DUP4 ADD DUP5 PUSH3 0xFE3 JUMP JUMPDEST SWAP4 SWAP3 POP POP POP JUMP JUMPDEST PUSH3 0x130B DUP2 PUSH3 0xC3C JUMP JUMPDEST DUP2 EQ PUSH3 0x1317 JUMPI PUSH1 0x0 DUP1 REVERT JUMPDEST POP JUMP JUMPDEST PUSH1 0x0 DUP2 MLOAD SWAP1 POP PUSH3 0x132B DUP2 PUSH3 0x1300 JUMP JUMPDEST SWAP3 SWAP2 POP POP JUMP JUMPDEST PUSH1 0x0 PUSH1 0x20 DUP3 DUP5 SUB SLT ISZERO PUSH3 0x134A JUMPI PUSH3 0x1349 PUSH3 0xBC5 JUMP JUMPDEST JUMPDEST PUSH1 0x0 PUSH3 0x135A DUP5 DUP3 DUP6 ADD PUSH3 0x131A JUMP JUMPDEST SWAP2 POP POP SWAP3 SWAP2 POP POP JUMP JUMPDEST PUSH1 0x0 PUSH1 0x40 DUP3 ADD SWAP1 POP PUSH3 0x137A PUSH1 0x0 DUP4 ADD DUP6 PUSH3 0xFE3 JUMP JUMPDEST PUSH3 0x1389 PUSH1 0x20 DUP4 ADD DUP5 PUSH3 0xFE3 JUMP JUMPDEST SWAP4 SWAP3 POP POP POP JUMP JUMPDEST PUSH1 0x0 DUP3 DUP3 MSTORE PUSH1 0x20 DUP3 ADD SWAP1 POP SWAP3 SWAP2 POP POP JUMP JUMPDEST PUSH32 0x4E6F7420612062656E6566696369617279000000000000000000000000000000 PUSH1 0x0 DUP3 ADD MSTORE POP JUMP JUMPDEST PUSH1 0x0 PUSH3 0x13D9 PUSH1 0x11 DUP4 PUSH3 0x1390 JUMP JUMPDEST SWAP2 POP PUSH3 0x13E6 DUP3 PUSH3 0x13A1 JUMP JUMPDEST PUSH1 0x20 DUP3 ADD SWAP1 POP SWAP2 SWAP1 POP JUMP JUMPDEST PUSH1 0x0 PUSH1 0x20 DUP3 ADD SWAP1 POP DUP2 DUP2 SUB PUSH1 0x0 DUP4 ADD MSTORE PUSH3 0x140C DUP2 PUSH3 0x13CA JUMP JUMPDEST SWAP1 POP SWAP2 SWAP1 POP JUMP JUMPDEST PUSH32 0x496E73756666696369656E742062616C616E6365000000000000000000000000 PUSH1 0x0 DUP3 ADD MSTORE POP JUMP JUMPDEST PUSH1 0x0 PUSH3 0x144B PUSH1 0x14 DUP4 PUSH3 0x1390 JUMP JUMPDEST SWAP2 POP PUSH3 0x1458 DUP3 PUSH3 0x1413 JUMP JUMPDEST PUSH1 0x20 DUP3 ADD SWAP1 POP SWAP2 SWAP1 POP JUMP JUMPDEST PUSH1 0x0 PUSH1 0x20 DUP3 ADD SWAP1 POP DUP2 DUP2 SUB PUSH1 0x0 DUP4 ADD MSTORE PUSH3 0x147E DUP2 PUSH3 0x143C JUMP JUMPDEST SWAP1 POP SWAP2 SWAP1 POP JUMP JUMPDEST PUSH1 0x0 PUSH3 0x1492 DUP3 PUSH3 0xD68 JUMP JUMPDEST SWAP2 POP PUSH3 0x149F DUP4 PUSH3 0xD68 JUMP JUMPDEST SWAP3 POP DUP3 DUP3 SUB SWAP1 POP DUP2 DUP2 GT ISZERO PUSH3 0x14BA JUMPI PUSH3 0x14B9 PUSH3 0x126C JUMP JUMPDEST JUMPDEST SWAP3 SWAP2 POP POP JUMP JUMPDEST PUSH32 0x416C726561647920612062656E65666963696172790000000000000000000000 PUSH1 0x0 DUP3 ADD MSTORE POP JUMP JUMPDEST PUSH1 0x0 PUSH3 0x14F8 PUSH1 0x15 DUP4 PUSH3 0x1390 JUMP JUMPDEST SWAP2 POP PUSH3 0x1505 DUP3 PUSH3 0x14C0 JUMP JUMPDEST PUSH1 0x20 DUP3 ADD SWAP1 POP SWAP2 SWAP1 POP JUMP JUMPDEST PUSH1 0x0 PUSH1 0x20 DUP3 ADD SWAP1 POP DUP2 DUP2 SUB PUSH1 0x0 DUP4 ADD MSTORE PUSH3 0x152B DUP2 PUSH3 0x14E9 JUMP JUMPDEST SWAP1 POP SWAP2 SWAP1 POP JUMP JUMPDEST PUSH1 0x0 PUSH3 0x153F DUP3 PUSH3 0xD68 JUMP JUMPDEST SWAP2 POP PUSH3 0x154C DUP4 PUSH3 0xD68 JUMP JUMPDEST SWAP3 POP DUP3 DUP3 ADD SWAP1 POP DUP1 DUP3 GT ISZERO PUSH3 0x1567 JUMPI PUSH3 0x1566 PUSH3 0x126C JUMP JUMPDEST JUMPDEST SWAP3 SWAP2 POP POP JUMP JUMPDEST PUSH1 0x0 DUP2 MLOAD SWAP1 POP SWAP2 SWAP1 POP JUMP JUMPDEST PUSH1 0x0 DUP3 DUP3 MSTORE PUSH1 0x20 DUP3 ADD SWAP1 POP SWAP3 SWAP2 POP POP JUMP JUMPDEST PUSH1 0x0 DUP2 SWAP1 POP PUSH1 0x20 DUP3 ADD SWAP1 POP SWAP2 SWAP1 POP JUMP JUMPDEST PUSH3 0x15A4 DUP2 PUSH3 0xE91 JUMP JUMPDEST DUP3 MSTORE POP POP JUMP JUMPDEST PUSH1 0x0 PUSH3 0x15B8 DUP4 DUP4 PUSH3 0x1599 JUMP JUMPDEST PUSH1 0x20 DUP4 ADD SWAP1 POP SWAP3 SWAP2 POP POP JUMP JUMPDEST PUSH1 0x0 PUSH1 0x20 DUP3 ADD SWAP1 POP SWAP2 SWAP1 POP JUMP JUMPDEST PUSH1 0x0 PUSH3 0x15DE DUP3 PUSH3 0x156D JUMP JUMPDEST PUSH3 0x15EA DUP2 DUP6 PUSH3 0x1578 JUMP JUMPDEST SWAP4 POP PUSH3 0x15F7 DUP4 PUSH3 0x1589 JUMP JUMPDEST DUP1 PUSH1 0x0 JUMPDEST DUP4 DUP2 LT ISZERO PUSH3 0x162E JUMPI DUP2 MLOAD PUSH3 0x1612 DUP9 DUP3 PUSH3 0x15AA JUMP JUMPDEST SWAP8 POP PUSH3 0x161F DUP4 PUSH3 0x15C4 JUMP JUMPDEST SWAP3 POP POP PUSH1 0x1 DUP2 ADD SWAP1 POP PUSH3 0x15FB JUMP JUMPDEST POP DUP6 SWAP4 POP POP POP POP SWAP3 SWAP2 POP POP JUMP JUMPDEST PUSH1 0x0 PUSH1 0x20 DUP3 ADD SWAP1 POP DUP2 DUP2 SUB PUSH1 0x0 DUP4 ADD MSTORE PUSH3 0x1657 DUP2 DUP5 PUSH3 0x15D1 JUMP JUMPDEST SWAP1 POP SWAP3 SWAP2 POP POP JUMP JUMPDEST PUSH32 0x4E487B7100000000000000000000000000000000000000000000000000000000 PUSH1 0x0 MSTORE PUSH1 0x32 PUSH1 0x4 MSTORE PUSH1 0x24 PUSH1 0x0 REVERT INVALID PUSH1 0x80 PUSH1 0x40 MSTORE CALLVALUE DUP1 ISZERO PUSH3 0x11 JUMPI PUSH1 0x0 DUP1 REVERT JUMPDEST POP PUSH1 0x40 MLOAD PUSH3 0xF1D CODESIZE SUB DUP1 PUSH3 0xF1D DUP4 CODECOPY DUP2 DUP2 ADD PUSH1 0x40 MSTORE DUP2 ADD SWAP1 PUSH3 0x37 SWAP2 SWAP1 PUSH3 0x471 JUMP JUMPDEST PUSH1 0x0 DUP2 SWAP1 POP PUSH1 0x0 JUMPDEST DUP2 MLOAD DUP2 LT ISZERO PUSH3 0xC5 JUMPI PUSH1 0x0 DUP3 DUP3 DUP2 MLOAD DUP2 LT PUSH3 0x61 JUMPI PUSH3 0x60 PUSH3 0x4C2 JUMP JUMPDEST JUMPDEST PUSH1 0x20 MUL PUSH1 0x20 ADD ADD MLOAD PUSH1 0x40 MLOAD PUSH1 0x20 ADD PUSH3 0x7B SWAP2 SWAP1 PUSH3 0x541 JUMP JUMPDEST PUSH1 0x40 MLOAD PUSH1 0x20 DUP2 DUP4 SUB SUB DUP2 MSTORE SWAP1 PUSH1 0x40 MSTORE DUP1 MLOAD SWAP1 PUSH1 0x20 ADD KECCAK256 SWAP1 DUP1 PUSH1 0x1 DUP2 SLOAD ADD DUP1 DUP3 SSTORE DUP1 SWAP2 POP POP PUSH1 0x1 SWAP1 SUB SWAP1 PUSH1 0x0 MSTORE PUSH1 0x20 PUSH1 0x0 KECCAK256 ADD PUSH1 0x0 SWAP1 SWAP2 SWAP1 SWAP2 SWAP1 SWAP2 POP SSTORE DUP1 DUP1 PUSH1 0x1 ADD SWAP2 POP POP PUSH3 0x3F JUMP JUMPDEST POP PUSH1 0x0 PUSH1 0x1 SWAP1 DUP1 SLOAD PUSH3 0xDA SWAP3 SWAP2 SWAP1 PUSH3 0x20D JUMP JUMPDEST POP PUSH1 0x0 DUP2 MLOAD SWAP1 POP PUSH1 0x0 JUMPDEST PUSH1 0x0 DUP3 GT ISZERO PUSH3 0x203 JUMPI PUSH1 0x0 JUMPDEST PUSH1 0x1 DUP4 PUSH3 0x100 SWAP2 SWAP1 PUSH3 0x597 JUMP JUMPDEST DUP2 LT ISZERO PUSH3 0x1DB JUMPI PUSH1 0x0 DUP1 DUP3 DUP5 PUSH3 0x119 SWAP2 SWAP1 PUSH3 0x5D2 JUMP JUMPDEST DUP2 SLOAD DUP2 LT PUSH3 0x12D JUMPI PUSH3 0x12C PUSH3 0x4C2 JUMP JUMPDEST JUMPDEST SWAP1 PUSH1 0x0 MSTORE PUSH1 0x20 PUSH1 0x0 KECCAK256 ADD SLOAD PUSH1 0x0 PUSH1 0x1 DUP5 DUP7 PUSH3 0x14A SWAP2 SWAP1 PUSH3 0x5D2 JUMP JUMPDEST PUSH3 0x156 SWAP2 SWAP1 PUSH3 0x5D2 JUMP JUMPDEST DUP2 SLOAD DUP2 LT PUSH3 0x16A JUMPI PUSH3 0x169 PUSH3 0x4C2 JUMP JUMPDEST JUMPDEST SWAP1 PUSH1 0x0 MSTORE PUSH1 0x20 PUSH1 0x0 KECCAK256 ADD SLOAD PUSH1 0x40 MLOAD PUSH1 0x20 ADD PUSH3 0x188 SWAP3 SWAP2 SWAP1 PUSH3 0x63C JUMP JUMPDEST PUSH1 0x40 MLOAD PUSH1 0x20 DUP2 DUP4 SUB SUB DUP2 MSTORE SWAP1 PUSH1 0x40 MSTORE DUP1 MLOAD SWAP1 PUSH1 0x20 ADD KECCAK256 SWAP1 DUP1 PUSH1 0x1 DUP2 SLOAD ADD DUP1 DUP3 SSTORE DUP1 SWAP2 POP POP PUSH1 0x1 SWAP1 SUB SWAP1 PUSH1 0x0 MSTORE PUSH1 0x20 PUSH1 0x0 KECCAK256 ADD PUSH1 0x0 SWAP1 SWAP2 SWAP1 SWAP2 SWAP1 SWAP2 POP SSTORE PUSH1 0x2 DUP2 PUSH3 0x1D3 SWAP2 SWAP1 PUSH3 0x5D2 JUMP JUMPDEST SWAP1 POP PUSH3 0xF1 JUMP JUMPDEST POP DUP2 DUP2 PUSH3 0x1EA SWAP2 SWAP1 PUSH3 0x5D2 JUMP JUMPDEST SWAP1 POP PUSH1 0x2 DUP3 PUSH3 0x1FB SWAP2 SWAP1 PUSH3 0x69B JUMP JUMPDEST SWAP2 POP PUSH3 0xE4 JUMP JUMPDEST POP POP POP POP PUSH3 0x6D3 JUMP JUMPDEST DUP3 DUP1 SLOAD DUP3 DUP3 SSTORE SWAP1 PUSH1 0x0 MSTORE PUSH1 0x20 PUSH1 0x0 KECCAK256 SWAP1 DUP2 ADD SWAP3 DUP3 ISZERO PUSH3 0x251 JUMPI PUSH1 0x0 MSTORE PUSH1 0x20 PUSH1 0x0 KECCAK256 SWAP2 DUP3 ADD JUMPDEST DUP3 DUP2 GT ISZERO PUSH3 0x250 JUMPI DUP3 SLOAD DUP3 SSTORE SWAP2 PUSH1 0x1 ADD SWAP2 SWAP1 PUSH1 0x1 ADD SWAP1 PUSH3 0x233 JUMP JUMPDEST JUMPDEST POP SWAP1 POP PUSH3 0x260 SWAP2 SWAP1 PUSH3 0x264 JUMP JUMPDEST POP SWAP1 JUMP JUMPDEST JUMPDEST DUP1 DUP3 GT ISZERO PUSH3 0x27F JUMPI PUSH1 0x0 DUP2 PUSH1 0x0 SWAP1 SSTORE POP PUSH1 0x1 ADD PUSH3 0x265 JUMP JUMPDEST POP SWAP1 JUMP JUMPDEST PUSH1 0x0 PUSH1 0x40 MLOAD SWAP1 POP SWAP1 JUMP JUMPDEST PUSH1 0x0 DUP1 REVERT JUMPDEST PUSH1 0x0 DUP1 REVERT JUMPDEST PUSH1 0x0 DUP1 REVERT JUMPDEST PUSH1 0x0 PUSH1 0x1F NOT PUSH1 0x1F DUP4 ADD AND SWAP1 POP SWAP2 SWAP1 POP JUMP JUMPDEST PUSH32 0x4E487B7100000000000000000000000000000000000000000000000000000000 PUSH1 0x0 MSTORE PUSH1 0x41 PUSH1 0x4 MSTORE PUSH1 0x24 PUSH1 0x0 REVERT JUMPDEST PUSH3 0x2E7 DUP3 PUSH3 0x29C JUMP JUMPDEST DUP2 ADD DUP2 DUP2 LT PUSH8 0xFFFFFFFFFFFFFFFF DUP3 GT OR ISZERO PUSH3 0x309 JUMPI PUSH3 0x308 PUSH3 0x2AD JUMP JUMPDEST JUMPDEST DUP1 PUSH1 0x40 MSTORE POP POP POP JUMP JUMPDEST PUSH1 0x0 PUSH3 0x31E PUSH3 0x283 JUMP JUMPDEST SWAP1 POP PUSH3 0x32C DUP3 DUP3 PUSH3 0x2DC JUMP JUMPDEST SWAP2 SWAP1 POP JUMP JUMPDEST PUSH1 0x0 PUSH8 0xFFFFFFFFFFFFFFFF DUP3 GT ISZERO PUSH3 0x34F JUMPI PUSH3 0x34E PUSH3 0x2AD JUMP JUMPDEST JUMPDEST PUSH1 0x20 DUP3 MUL SWAP1 POP PUSH1 0x20 DUP2 ADD SWAP1 POP SWAP2 SWAP1 POP JUMP JUMPDEST PUSH1 0x0 DUP1 REVERT JUMPDEST PUSH1 0x0 PUSH20 0xFFFFFFFFFFFFFFFFFFFFFFFFFFFFFFFFFFFFFFFF DUP3 AND SWAP1 POP SWAP2 SWAP1 POP JUMP JUMPDEST PUSH1 0x0 PUSH3 0x392 DUP3 PUSH3 0x365 JUMP JUMPDEST SWAP1 POP SWAP2 SWAP1 POP JUMP JUMPDEST PUSH3 0x3A4 DUP2 PUSH3 0x385 JUMP JUMPDEST DUP2 EQ PUSH3 0x3B0 JUMPI PUSH1 0x0 DUP1 REVERT JUMPDEST POP JUMP JUMPDEST PUSH1 0x0 DUP2 MLOAD SWAP1 POP PUSH3 0x3C4 DUP2 PUSH3 0x399 JUMP JUMPDEST SWAP3 SWAP2 POP POP JUMP JUMPDEST PUSH1 0x0 PUSH3 0x3E1 PUSH3 0x3DB DUP5 PUSH3 0x331 JUMP JUMPDEST PUSH3 0x312 JUMP JUMPDEST SWAP1 POP DUP1 DUP4 DUP3 MSTORE PUSH1 0x20 DUP3 ADD SWAP1 POP PUSH1 0x20 DUP5 MUL DUP4 ADD DUP6 DUP2 GT ISZERO PUSH3 0x407 JUMPI PUSH3 0x406 PUSH3 0x360 JUMP JUMPDEST JUMPDEST DUP4 JUMPDEST DUP2 DUP2 LT ISZERO PUSH3 0x434 JUMPI DUP1 PUSH3 0x41F DUP9 DUP3 PUSH3 0x3B3 JUMP JUMPDEST DUP5 MSTORE PUSH1 0x20 DUP5 ADD SWAP4 POP POP PUSH1 0x20 DUP2 ADD SWAP1 POP PUSH3 0x409 JUMP JUMPDEST POP POP POP SWAP4 SWAP3 POP POP POP JUMP JUMPDEST PUSH1 0x0 DUP3 PUSH1 0x1F DUP4 ADD SLT PUSH3 0x456 JUMPI PUSH3 0x455 PUSH3 0x297 JUMP JUMPDEST JUMPDEST DUP2 MLOAD PUSH3 0x468 DUP5 DUP3 PUSH1 0x20 DUP7 ADD PUSH3 0x3CA JUMP JUMPDEST SWAP2 POP POP SWAP3 SWAP2 POP POP JUMP JUMPDEST PUSH1 0x0 PUSH1 0x20 DUP3 DUP5 SUB SLT ISZERO PUSH3 0x48A JUMPI PUSH3 0x489 PUSH3 0x28D JUMP JUMPDEST JUMPDEST PUSH1 0x0 DUP3 ADD MLOAD PUSH8 0xFFFFFFFFFFFFFFFF DUP2 GT ISZERO PUSH3 0x4AB JUMPI PUSH3 0x4AA PUSH3 0x292 JUMP JUMPDEST JUMPDEST PUSH3 0x4B9 DUP5 DUP3 DUP6 ADD PUSH3 0x43E JUMP JUMPDEST SWAP2 POP POP SWAP3 SWAP2 POP POP JUMP JUMPDEST PUSH32 0x4E487B7100000000000000000000000000000000000000000000000000000000 PUSH1 0x0 MSTORE PUSH1 0x32 PUSH1 0x4 MSTORE PUSH1 0x24 PUSH1 0x0 REVERT JUMPDEST PUSH1 0x0 DUP2 PUSH1 0x60 SHL SWAP1 POP SWAP2 SWAP1 POP JUMP JUMPDEST PUSH1 0x0 PUSH3 0x50B DUP3 PUSH3 0x4F1 JUMP JUMPDEST SWAP1 POP SWAP2 SWAP1 POP JUMP JUMPDEST PUSH1 0x0 PUSH3 0x51F DUP3 PUSH3 0x4FE JUMP JUMPDEST SWAP1 POP SWAP2 SWAP1 POP JUMP JUMPDEST PUSH3 0x53B PUSH3 0x535 DUP3 PUSH3 0x385 JUMP JUMPDEST PUSH3 0x512 JUMP JUMPDEST DUP3 MSTORE POP POP JUMP JUMPDEST PUSH1 0x0 PUSH3 0x54F DUP3 DUP5 PUSH3 0x526 JUMP JUMPDEST PUSH1 0x14 DUP3 ADD SWAP2 POP DUP2 SWAP1 POP SWAP3 SWAP2 POP POP JUMP JUMPDEST PUSH1 0x0 DUP2 SWAP1 POP SWAP2 SWAP1 POP JUMP JUMPDEST PUSH32 0x4E487B7100000000000000000000000000000000000000000000000000000000 PUSH1 0x0 MSTORE PUSH1 0x11 PUSH1 0x4 MSTORE PUSH1 0x24 PUSH1 0x0 REVERT JUMPDEST PUSH1 0x0 PUSH3 0x5A4 DUP3 PUSH3 0x55E JUMP JUMPDEST SWAP2 POP PUSH3 0x5B1 DUP4 PUSH3 0x55E JUMP JUMPDEST SWAP3 POP DUP3 DUP3 SUB SWAP1 POP DUP2 DUP2 GT ISZERO PUSH3 0x5CC JUMPI PUSH3 0x5CB PUSH3 0x568 JUMP JUMPDEST JUMPDEST SWAP3 SWAP2 POP POP JUMP JUMPDEST PUSH1 0x0 PUSH3 0x5DF DUP3 PUSH3 0x55E JUMP JUMPDEST SWAP2 POP PUSH3 0x5EC DUP4 PUSH3 0x55E JUMP JUMPDEST SWAP3 POP DUP3 DUP3 ADD SWAP1 POP DUP1 DUP3 GT ISZERO PUSH3 0x607 JUMPI PUSH3 0x606 PUSH3 0x568 JUMP JUMPDEST JUMPDEST SWAP3 SWAP2 POP POP JUMP JUMPDEST PUSH1 0x0 DUP2 SWAP1 POP SWAP2 SWAP1 POP JUMP JUMPDEST PUSH1 0x0 DUP2 SWAP1 POP SWAP2 SWAP1 POP JUMP JUMPDEST PUSH3 0x636 PUSH3 0x630 DUP3 PUSH3 0x60D JUMP JUMPDEST PUSH3 0x617 JUMP JUMPDEST DUP3 MSTORE POP POP JUMP JUMPDEST PUSH1 0x0 PUSH3 0x64A DUP3 DUP6 PUSH3 0x621 JUMP JUMPDEST PUSH1 0x20 DUP3 ADD SWAP2 POP PUSH3 0x65C DUP3 DUP5 PUSH3 0x621 JUMP JUMPDEST PUSH1 0x20 DUP3 ADD SWAP2 POP DUP2 SWAP1 POP SWAP4 SWAP3 POP POP POP JUMP JUMPDEST PUSH32 0x4E487B7100000000000000000000000000000000000000000000000000000000 PUSH1 0x0 MSTORE PUSH1 0x12 PUSH1 0x4 MSTORE PUSH1 0x24 PUSH1 0x0 REVERT JUMPDEST PUSH1 0x0 PUSH3 0x6A8 DUP3 PUSH3 0x55E JUMP JUMPDEST SWAP2 POP PUSH3 0x6B5 DUP4 PUSH3 0x55E JUMP JUMPDEST SWAP3 POP DUP3 PUSH3 0x6C8 JUMPI PUSH3 0x6C7 PUSH3 0x66C JUMP JUMPDEST JUMPDEST DUP3 DUP3 DIV SWAP1 POP SWAP3 SWAP2 POP POP JUMP JUMPDEST PUSH2 0x83A DUP1 PUSH3 0x6E3 PUSH1 0x0 CODECOPY PUSH1 0x0 RETURN INVALID PUSH1 0x80 PUSH1 0x40 MSTORE CALLVALUE DUP1 ISZERO PUSH2 0x10 JUMPI PUSH1 0x0 DUP1 REVERT JUMPDEST POP PUSH1 0x4 CALLDATASIZE LT PUSH2 0x57 JUMPI PUSH1 0x0 CALLDATALOAD PUSH1 0xE0 SHR DUP1 PUSH4 0x174F6E74 EQ PUSH2 0x5C JUMPI DUP1 PUSH4 0x21FB335C EQ PUSH2 0x7A JUMPI DUP1 PUSH4 0x3FF721BA EQ PUSH2 0xAA JUMPI DUP1 PUSH4 0x501895AE EQ PUSH2 0xDA JUMPI DUP1 PUSH4 0x5CA1E165 EQ PUSH2 0x10A JUMPI JUMPDEST PUSH1 0x0 DUP1 REVERT JUMPDEST PUSH2 0x64 PUSH2 0x128 JUMP JUMPDEST PUSH1 0x40 MLOAD PUSH2 0x71 SWAP2 SWAP1 PUSH2 0x393 JUMP JUMPDEST PUSH1 0x40 MLOAD DUP1 SWAP2 SUB SWAP1 RETURN JUMPDEST PUSH2 0x94 PUSH1 0x4 DUP1 CALLDATASIZE SUB DUP2 ADD SWAP1 PUSH2 0x8F SWAP2 SWAP1 PUSH2 0x584 JUMP JUMPDEST PUSH2 0x180 JUMP JUMPDEST PUSH1 0x40 MLOAD PUSH2 0xA1 SWAP2 SWAP1 PUSH2 0x622 JUMP JUMPDEST PUSH1 0x40 MLOAD DUP1 SWAP2 SUB SWAP1 RETURN JUMPDEST PUSH2 0xC4 PUSH1 0x4 DUP1 CALLDATASIZE SUB DUP2 ADD SWAP1 PUSH2 0xBF SWAP2 SWAP1 PUSH2 0x63D JUMP JUMPDEST PUSH2 0x24D JUMP JUMPDEST PUSH1 0x40 MLOAD PUSH2 0xD1 SWAP2 SWAP1 PUSH2 0x679 JUMP JUMPDEST PUSH1 0x40 MLOAD DUP1 SWAP2 SUB SWAP1 RETURN JUMPDEST PUSH2 0xF4 PUSH1 0x4 DUP1 CALLDATASIZE SUB DUP2 ADD SWAP1 PUSH2 0xEF SWAP2 SWAP1 PUSH2 0x63D JUMP JUMPDEST PUSH2 0x271 JUMP JUMPDEST PUSH1 0x40 MLOAD PUSH2 0x101 SWAP2 SWAP1 PUSH2 0x679 JUMP JUMPDEST PUSH1 0x40 MLOAD DUP1 SWAP2 SUB SWAP1 RETURN JUMPDEST PUSH2 0x112 PUSH2 0x295 JUMP JUMPDEST PUSH1 0x40 MLOAD PUSH2 0x11F SWAP2 SWAP1 PUSH2 0x679 JUMP JUMPDEST PUSH1 0x40 MLOAD DUP1 SWAP2 SUB SWAP1 RETURN JUMPDEST PUSH1 0x60 PUSH1 0x1 DUP1 SLOAD DUP1 PUSH1 0x20 MUL PUSH1 0x20 ADD PUSH1 0x40 MLOAD SWAP1 DUP2 ADD PUSH1 0x40 MSTORE DUP1 SWAP3 SWAP2 SWAP1 DUP2 DUP2 MSTORE PUSH1 0x20 ADD DUP3 DUP1 SLOAD DUP1 ISZERO PUSH2 0x176 JUMPI PUSH1 0x20 MUL DUP3 ADD SWAP2 SWAP1 PUSH1 0x0 MSTORE PUSH1 0x20 PUSH1 0x0 KECCAK256 SWAP1 JUMPDEST DUP2 SLOAD DUP2 MSTORE PUSH1 0x20 ADD SWAP1 PUSH1 0x1 ADD SWAP1 DUP1 DUP4 GT PUSH2 0x162 JUMPI JUMPDEST POP POP POP POP POP SWAP1 POP SWAP1 JUMP JUMPDEST PUSH1 0x0 DUP1 DUP4 SWAP1 POP PUSH1 0x0 JUMPDEST DUP7 MLOAD DUP2 LT ISZERO PUSH2 0x23E JUMPI PUSH1 0x0 DUP8 DUP3 DUP2 MLOAD DUP2 LT PUSH2 0x1A7 JUMPI PUSH2 0x1A6 PUSH2 0x694 JUMP JUMPDEST JUMPDEST PUSH1 0x20 MUL PUSH1 0x20 ADD ADD MLOAD SWAP1 POP PUSH1 0x0 PUSH1 0x2 DUP7 PUSH2 0x1C0 SWAP2 SWAP1 PUSH2 0x6F2 JUMP JUMPDEST SUB PUSH2 0x1F5 JUMPI DUP3 DUP2 PUSH1 0x40 MLOAD PUSH1 0x20 ADD PUSH2 0x1D8 SWAP3 SWAP2 SWAP1 PUSH2 0x744 JUMP JUMPDEST PUSH1 0x40 MLOAD PUSH1 0x20 DUP2 DUP4 SUB SUB DUP2 MSTORE SWAP1 PUSH1 0x40 MSTORE DUP1 MLOAD SWAP1 PUSH1 0x20 ADD KECCAK256 SWAP3 POP PUSH2 0x221 JUMP JUMPDEST DUP1 DUP4 PUSH1 0x40 MLOAD PUSH1 0x20 ADD PUSH2 0x208 SWAP3 SWAP2 SWAP1 PUSH2 0x744 JUMP JUMPDEST PUSH1 0x40 MLOAD PUSH1 0x20 DUP2 DUP4 SUB SUB DUP2 MSTORE SWAP1 PUSH1 0x40 MSTORE DUP1 MLOAD SWAP1 PUSH1 0x20 ADD KECCAK256 SWAP3 POP JUMPDEST PUSH1 0x2 DUP6 PUSH2 0x22E SWAP2 SWAP1 PUSH2 0x79F JUMP JUMPDEST SWAP5 POP POP DUP1 DUP1 PUSH1 0x1 ADD SWAP2 POP POP PUSH2 0x189 JUMP JUMPDEST POP DUP5 DUP2 EQ SWAP2 POP POP SWAP5 SWAP4 POP POP POP POP JUMP JUMPDEST PUSH1 0x1 DUP2 DUP2 SLOAD DUP2 LT PUSH2 0x25D JUMPI PUSH1 0x0 DUP1 REVERT JUMPDEST SWAP1 PUSH1 0x0 MSTORE PUSH1 0x20 PUSH1 0x0 KECCAK256 ADD PUSH1 0x0 SWAP2 POP SWAP1 POP SLOAD DUP2 JUMP JUMPDEST PUSH1 0x0 DUP2 DUP2 SLOAD DUP2 LT PUSH2 0x281 JUMPI PUSH1 0x0 DUP1 REVERT JUMPDEST SWAP1 PUSH1 0x0 MSTORE PUSH1 0x20 PUSH1 0x0 KECCAK256 ADD PUSH1 0x0 SWAP2 POP SWAP1 POP SLOAD DUP2 JUMP JUMPDEST PUSH1 0x0 DUP1 PUSH1 0x1 PUSH1 0x0 DUP1 SLOAD SWAP1 POP PUSH2 0x2AA SWAP2 SWAP1 PUSH2 0x7D0 JUMP JUMPDEST DUP2 SLOAD DUP2 LT PUSH2 0x2BB JUMPI PUSH2 0x2BA PUSH2 0x694 JUMP JUMPDEST JUMPDEST SWAP1 PUSH1 0x0 MSTORE PUSH1 0x20 PUSH1 0x0 KECCAK256 ADD SLOAD SWAP1 POP SWAP1 JUMP JUMPDEST PUSH1 0x0 DUP2 MLOAD SWAP1 POP SWAP2 SWAP1 POP JUMP JUMPDEST PUSH1 0x0 DUP3 DUP3 MSTORE PUSH1 0x20 DUP3 ADD SWAP1 POP SWAP3 SWAP2 POP POP JUMP JUMPDEST PUSH1 0x0 DUP2 SWAP1 POP PUSH1 0x20 DUP3 ADD SWAP1 POP SWAP2 SWAP1 POP JUMP JUMPDEST PUSH1 0x0 DUP2 SWAP1 POP SWAP2 SWAP1 POP JUMP JUMPDEST PUSH2 0x30A DUP2 PUSH2 0x2F7 JUMP JUMPDEST DUP3 MSTORE POP POP JUMP JUMPDEST PUSH1 0x0 PUSH2 0x31C DUP4 DUP4 PUSH2 0x301 JUMP JUMPDEST PUSH1 0x20 DUP4 ADD SWAP1 POP SWAP3 SWAP2 POP POP JUMP JUMPDEST PUSH1 0x0 PUSH1 0x20 DUP3 ADD SWAP1 POP SWAP2 SWAP1 POP JUMP JUMPDEST PUSH1 0x0 PUSH2 0x340 DUP3 PUSH2 0x2CB JUMP JUMPDEST PUSH2 0x34A DUP2 DUP6 PUSH2 0x2D6 JUMP JUMPDEST SWAP4 POP PUSH2 0x355 DUP4 PUSH2 0x2E7 JUMP JUMPDEST DUP1 PUSH1 0x0 JUMPDEST DUP4 DUP2 LT ISZERO PUSH2 0x386 JUMPI DUP2 MLOAD PUSH2 0x36D DUP9 DUP3 PUSH2 0x310 JUMP JUMPDEST SWAP8 POP PUSH2 0x378 DUP4 PUSH2 0x328 JUMP JUMPDEST SWAP3 POP POP PUSH1 0x1 DUP2 ADD SWAP1 POP PUSH2 0x359 JUMP JUMPDEST POP DUP6 SWAP4 POP POP POP POP SWAP3 SWAP2 POP POP JUMP JUMPDEST PUSH1 0x0 PUSH1 0x20 DUP3 ADD SWAP1 POP DUP2 DUP2 SUB PUSH1 0x0 DUP4 ADD MSTORE PUSH2 0x3AD DUP2 DUP5 PUSH2 0x335 JUMP JUMPDEST SWAP1 POP SWAP3 SWAP2 POP POP JUMP JUMPDEST PUSH1 0x0 PUSH1 0x40 MLOAD SWAP1 POP SWAP1 JUMP JUMPDEST PUSH1 0x0 DUP1 REVERT JUMPDEST PUSH1 0x0 DUP1 REVERT JUMPDEST PUSH1 0x0 DUP1 REVERT JUMPDEST PUSH1 0x0 PUSH1 0x1F NOT PUSH1 0x1F DUP4 ADD AND SWAP1 POP SWAP2 SWAP1 POP JUMP JUMPDEST PUSH32 0x4E487B7100000000000000000000000000000000000000000000000000000000 PUSH1 0x0 MSTORE PUSH1 0x41 PUSH1 0x4 MSTORE PUSH1 0x24 PUSH1 0x0 REVERT JUMPDEST PUSH2 0x417 DUP3 PUSH2 0x3CE JUMP JUMPDEST DUP2 ADD DUP2 DUP2 LT PUSH8 0xFFFFFFFFFFFFFFFF DUP3 GT OR ISZERO PUSH2 0x436 JUMPI PUSH2 0x435 PUSH2 0x3DF JUMP JUMPDEST JUMPDEST DUP1 PUSH1 0x40 MSTORE POP POP POP JUMP JUMPDEST PUSH1 0x0 PUSH2 0x449 PUSH2 0x3B5 JUMP JUMPDEST SWAP1 POP PUSH2 0x455 DUP3 DUP3 PUSH2 0x40E JUMP JUMPDEST SWAP2 SWAP1 POP JUMP JUMPDEST PUSH1 0x0 PUSH8 0xFFFFFFFFFFFFFFFF DUP3 GT ISZERO PUSH2 0x475 JUMPI PUSH2 0x474 PUSH2 0x3DF JUMP JUMPDEST JUMPDEST PUSH1 0x20 DUP3 MUL SWAP1 POP PUSH1 0x20 DUP2 ADD SWAP1 POP SWAP2 SWAP1 POP JUMP JUMPDEST PUSH1 0x0 DUP1 REVERT JUMPDEST PUSH2 0x494 DUP2 PUSH2 0x2F7 JUMP JUMPDEST DUP2 EQ PUSH2 0x49F JUMPI PUSH1 0x0 DUP1 REVERT JUMPDEST POP JUMP JUMPDEST PUSH1 0x0 DUP2 CALLDATALOAD SWAP1 POP PUSH2 0x4B1 DUP2 PUSH2 0x48B JUMP JUMPDEST SWAP3 SWAP2 POP POP JUMP JUMPDEST PUSH1 0x0 PUSH2 0x4CA PUSH2 0x4C5 DUP5 PUSH2 0x45A JUMP JUMPDEST PUSH2 0x43F JUMP JUMPDEST SWAP1 POP DUP1 DUP4 DUP3 MSTORE PUSH1 0x20 DUP3 ADD SWAP1 POP PUSH1 0x20 DUP5 MUL DUP4 ADD DUP6 DUP2 GT ISZERO PUSH2 0x4ED JUMPI PUSH2 0x4EC PUSH2 0x486 JUMP JUMPDEST JUMPDEST DUP4 JUMPDEST DUP2 DUP2 LT ISZERO PUSH2 0x516 JUMPI DUP1 PUSH2 0x502 DUP9 DUP3 PUSH2 0x4A2 JUMP JUMPDEST DUP5 MSTORE PUSH1 0x20 DUP5 ADD SWAP4 POP POP PUSH1 0x20 DUP2 ADD SWAP1 POP PUSH2 0x4EF JUMP JUMPDEST POP POP POP SWAP4 SWAP3 POP POP POP JUMP JUMPDEST PUSH1 0x0 DUP3 PUSH1 0x1F DUP4 ADD SLT PUSH2 0x535 JUMPI PUSH2 0x534 PUSH2 0x3C9 JUMP JUMPDEST JUMPDEST DUP2 CALLDATALOAD PUSH2 0x545 DUP5 DUP3 PUSH1 0x20 DUP7 ADD PUSH2 0x4B7 JUMP JUMPDEST SWAP2 POP POP SWAP3 SWAP2 POP POP JUMP JUMPDEST PUSH1 0x0 DUP2 SWAP1 POP SWAP2 SWAP1 POP JUMP JUMPDEST PUSH2 0x561 DUP2 PUSH2 0x54E JUMP JUMPDEST DUP2 EQ PUSH2 0x56C JUMPI PUSH1 0x0 DUP1 REVERT JUMPDEST POP JUMP JUMPDEST PUSH1 0x0 DUP2 CALLDATALOAD SWAP1 POP PUSH2 0x57E DUP2 PUSH2 0x558 JUMP JUMPDEST SWAP3 SWAP2 POP POP JUMP JUMPDEST PUSH1 0x0 DUP1 PUSH1 0x0 DUP1 PUSH1 0x80 DUP6 DUP8 SUB SLT ISZERO PUSH2 0x59E JUMPI PUSH2 0x59D PUSH2 0x3BF JUMP JUMPDEST JUMPDEST PUSH1 0x0 DUP6 ADD CALLDATALOAD PUSH8 0xFFFFFFFFFFFFFFFF DUP2 GT ISZERO PUSH2 0x5BC JUMPI PUSH2 0x5BB PUSH2 0x3C4 JUMP JUMPDEST JUMPDEST PUSH2 0x5C8 DUP8 DUP3 DUP9 ADD PUSH2 0x520 JUMP JUMPDEST SWAP5 POP POP PUSH1 0x20 PUSH2 0x5D9 DUP8 DUP3 DUP9 ADD PUSH2 0x4A2 JUMP JUMPDEST SWAP4 POP POP PUSH1 0x40 PUSH2 0x5EA DUP8 DUP3 DUP9 ADD PUSH2 0x4A2 JUMP JUMPDEST SWAP3 POP POP PUSH1 0x60 PUSH2 0x5FB DUP8 DUP3 DUP9 ADD PUSH2 0x56F JUMP JUMPDEST SWAP2 POP POP SWAP3 SWAP6 SWAP2 SWAP5 POP SWAP3 POP JUMP JUMPDEST PUSH1 0x0 DUP2 ISZERO ISZERO SWAP1 POP SWAP2 SWAP1 POP JUMP JUMPDEST PUSH2 0x61C DUP2 PUSH2 0x607 JUMP JUMPDEST DUP3 MSTORE POP POP JUMP JUMPDEST PUSH1 0x0 PUSH1 0x20 DUP3 ADD SWAP1 POP PUSH2 0x637 PUSH1 0x0 DUP4 ADD DUP5 PUSH2 0x613 JUMP JUMPDEST SWAP3 SWAP2 POP POP JUMP JUMPDEST PUSH1 0x0 PUSH1 0x20 DUP3 DUP5 SUB SLT ISZERO PUSH2 0x653 JUMPI PUSH2 0x652 PUSH2 0x3BF JUMP JUMPDEST JUMPDEST PUSH1 0x0 PUSH2 0x661 DUP5 DUP3 DUP6 ADD PUSH2 0x56F JUMP JUMPDEST SWAP2 POP POP SWAP3 SWAP2 POP POP JUMP JUMPDEST PUSH2 0x673 DUP2 PUSH2 0x2F7 JUMP JUMPDEST DUP3 MSTORE POP POP JUMP JUMPDEST PUSH1 0x0 PUSH1 0x20 DUP3 ADD SWAP1 POP PUSH2 0x68E PUSH1 0x0 DUP4 ADD DUP5 PUSH2 0x66A JUMP JUMPDEST SWAP3 SWAP2 POP POP JUMP JUMPDEST PUSH32 0x4E487B7100000000000000000000000000000000000000000000000000000000 PUSH1 0x0 MSTORE PUSH1 0x32 PUSH1 0x4 MSTORE PUSH1 0x24 PUSH1 0x0 REVERT JUMPDEST PUSH32 0x4E487B7100000000000000000000000000000000000000000000000000000000 PUSH1 0x0 MSTORE PUSH1 0x12 PUSH1 0x4 MSTORE PUSH1 0x24 PUSH1 0x0 REVERT JUMPDEST PUSH1 0x0 PUSH2 0x6FD DUP3 PUSH2 0x54E JUMP JUMPDEST SWAP2 POP PUSH2 0x708 DUP4 PUSH2 0x54E JUMP JUMPDEST SWAP3 POP DUP3 PUSH2 0x718 JUMPI PUSH2 0x717 PUSH2 0x6C3 JUMP JUMPDEST JUMPDEST DUP3 DUP3 MOD SWAP1 POP SWAP3 SWAP2 POP POP JUMP JUMPDEST PUSH1 0x0 DUP2 SWAP1 POP SWAP2 SWAP1 POP JUMP JUMPDEST PUSH2 0x73E PUSH2 0x739 DUP3 PUSH2 0x2F7 JUMP JUMPDEST PUSH2 0x723 JUMP JUMPDEST DUP3 MSTORE POP POP JUMP JUMPDEST PUSH1 0x0 PUSH2 0x750 DUP3 DUP6 PUSH2 0x72D JUMP JUMPDEST PUSH1 0x20 DUP3 ADD SWAP2 POP PUSH2 0x760 DUP3 DUP5 PUSH2 0x72D JUMP JUMPDEST PUSH1 0x20 DUP3 ADD SWAP2 POP DUP2 SWAP1 POP SWAP4 SWAP3 POP POP POP JUMP JUMPDEST PUSH32 0x4E487B7100000000000000000000000000000000000000000000000000000000 PUSH1 0x0 MSTORE PUSH1 0x11 PUSH1 0x4 MSTORE PUSH1 0x24 PUSH1 0x0 REVERT JUMPDEST PUSH1 0x0 PUSH2 0x7AA DUP3 PUSH2 0x54E JUMP JUMPDEST SWAP2 POP PUSH2 0x7B5 DUP4 PUSH2 0x54E JUMP JUMPDEST SWAP3 POP DUP3 PUSH2 0x7C5 JUMPI PUSH2 0x7C4 PUSH2 0x6C3 JUMP JUMPDEST JUMPDEST DUP3 DUP3 DIV SWAP1 POP SWAP3 SWAP2 POP POP JUMP JUMPDEST PUSH1 0x0 PUSH2 0x7DB DUP3 PUSH2 0x54E JUMP JUMPDEST SWAP2 POP PUSH2 0x7E6 DUP4 PUSH2 0x54E JUMP JUMPDEST SWAP3 POP DUP3 DUP3 SUB SWAP1 POP DUP2 DUP2 GT ISZERO PUSH2 0x7FE JUMPI PUSH2 0x7FD PUSH2 0x770 JUMP JUMPDEST JUMPDEST SWAP3 SWAP2 POP POP JUMP INVALID LOG2 PUSH5 0x6970667358 0x22 SLT KECCAK256 PUSH6 0x4EAC042AAC8E ISZERO GAS SWAP12 0xF9 CODESIZE JUMPDEST 0xB1 PUSH15 0x963DBB6E97C32E2B66FB50CF090629 SWAP3 0xE0 PUSH5 0x736F6C6343 STOP ADDMOD XOR STOP CALLER LOG2 PUSH5 0x6970667358 0x22 SLT KECCAK256 0xED PUSH2 0xF190 INVALID PUSH23 0xC727B8ED27EDA68D99C9F227C2CAF7B071FCE87431DA41 0xB7 PUSH32 0xAB64736F6C634300081800330000000000000000000000000000000000000000 "},"methodIdentifiers":{"amountPerBeneficiary()":"cfb64afe","balances(bytes32)":"8909aa3f","beneficiaries(bytes32)":"39cd53ee","createGroup(uint256,address[])":"64790ae6","createVoucher(bytes32,uint256)":"a6f936ac","getBalance(bytes32)":"8e739461","getBeneficiaryHashes()":"43923fdf","getTotalAmount()":"65ac4341","joinGroup(bytes32)":"fb0135d1","owner()":"8da5cb5b","renounceOwnership()":"715018a6","transferOwnership(address)":"f2fde38b","withdraw(address,uint256)":"f3fef3a3"}}}}}