{
  "_format": "hh-sol-artifact-1",
  "contractName": "Airdrop",
  "sourceName": "contracts/Airdrop.sol",
  "abi": [
    {
      "inputs": [
        {
          "internalType": "address",
          "name": "_token",
          "type": "address"
        }
      ],
      "stateMutability": "nonpayable",
      "type": "constructor"
    },
    {
      "inputs": [
        {
          "internalType": "address",
          "name": "owner",
          "type": "address"
        }
      ],
      "name": "OwnableInvalidOwner",
      "type": "error"
    },
    {
      "inputs": [
        {
          "internalType": "address",
          "name": "account",
          "type": "address"
        }
      ],
      "name": "OwnableUnauthorizedAccount",
      "type": "error"
    },
    {
      "anonymous": false,
      "inputs": [
        {
          "indexed": true,
          "internalType": "address",
          "name": "manager",
          "type": "address"
        },
        {
          "indexed": false,
          "internalType": "uint256",
          "name": "totalAmount",
          "type": "uint256"
        },
        {
          "indexed": false,
          "internalType": "uint256",
          "name": "numBeneficiaries",
          "type": "uint256"
        }
      ],
      "name": "GroupCreated",
      "type": "event"
    },
    {
      "anonymous": false,
      "inputs": [
        {
          "indexed": true,
          "internalType": "address",
          "name": "previousOwner",
          "type": "address"
        },
        {
          "indexed": true,
          "internalType": "address",
          "name": "newOwner",
          "type": "address"
        }
      ],
      "name": "OwnershipTransferred",
      "type": "event"
    },
    {
      "anonymous": false,
      "inputs": [
        {
          "indexed": true,
          "internalType": "address",
          "name": "beneficiary",
          "type": "address"
        },
        {
          "indexed": false,
          "internalType": "uint256",
          "name": "amount",
          "type": "uint256"
        }
      ],
      "name": "VoucherCreated",
      "type": "event"
    },
    {
      "anonymous": false,
      "inputs": [
        {
          "indexed": true,
          "internalType": "address",
          "name": "thirdParty",
          "type": "address"
        },
        {
          "indexed": false,
          "internalType": "uint256",
          "name": "amount",
          "type": "uint256"
        }
      ],
      "name": "Withdrawal",
      "type": "event"
    },
    {
      "inputs": [],
      "name": "amountPerBeneficiary",
      "outputs": [
        {
          "internalType": "uint256",
          "name": "",
          "type": "uint256"
        }
      ],
      "stateMutability": "view",
      "type": "function"
    },
    {
      "inputs": [
        {
          "internalType": "address",
          "name": "",
          "type": "address"
        }
      ],
      "name": "balances",
      "outputs": [
        {
          "internalType": "uint256",
          "name": "",
          "type": "uint256"
        }
      ],
      "stateMutability": "view",
      "type": "function"
    },
    {
      "inputs": [
        {
          "internalType": "address",
          "name": "",
          "type": "address"
        }
      ],
      "name": "beneficiaries",
      "outputs": [
        {
          "internalType": "bool",
          "name": "",
          "type": "bool"
        }
      ],
      "stateMutability": "view",
      "type": "function"
    },
    {
      "inputs": [
        {
          "internalType": "uint256",
          "name": "_totalAmount",
          "type": "uint256"
        },
        {
          "internalType": "uint256[]",
          "name": "_keygenValues",
          "type": "uint256[]"
        }
      ],
      "name": "createGroup",
      "outputs": [],
      "stateMutability": "nonpayable",
      "type": "function"
    },
    {
      "inputs": [
        {
          "internalType": "address",
          "name": "_beneficiary",
          "type": "address"
        },
        {
          "internalType": "uint256",
          "name": "_amount",
          "type": "uint256"
        }
      ],
      "name": "createVoucher",
      "outputs": [],
      "stateMutability": "nonpayable",
      "type": "function"
    },
    {
      "inputs": [],
      "name": "getJoinKeys",
      "outputs": [
        {
          "internalType": "bytes32[]",
          "name": "",
          "type": "bytes32[]"
        }
      ],
      "stateMutability": "view",
      "type": "function"
    },
    {
      "inputs": [],
      "name": "getTotalAmount",
      "outputs": [
        {
          "internalType": "uint256",
          "name": "",
          "type": "uint256"
        }
      ],
      "stateMutability": "view",
      "type": "function"
    },
    {
      "inputs": [
        {
          "internalType": "address",
          "name": "_beneficiary",
          "type": "address"
        }
      ],
      "name": "joinGroup",
      "outputs": [],
      "stateMutability": "nonpayable",
      "type": "function"
    },
    {
      "inputs": [],
      "name": "owner",
      "outputs": [
        {
          "internalType": "address",
          "name": "",
          "type": "address"
        }
      ],
      "stateMutability": "view",
      "type": "function"
    },
    {
      "inputs": [],
      "name": "renounceOwnership",
      "outputs": [],
      "stateMutability": "nonpayable",
      "type": "function"
    },
    {
      "inputs": [
        {
          "internalType": "address",
          "name": "newOwner",
          "type": "address"
        }
      ],
      "name": "transferOwnership",
      "outputs": [],
      "stateMutability": "nonpayable",
      "type": "function"
    },
    {
      "inputs": [
        {
          "internalType": "address",
          "name": "_thirdParty",
          "type": "address"
        },
        {
          "internalType": "uint256",
          "name": "_amount",
          "type": "uint256"
        }
      ],
      "name": "withdraw",
      "outputs": [],
      "stateMutability": "nonpayable",
      "type": "function"
    }
  ],
  "bytecode": "0x60806040523480156200001157600080fd5b506040516200159138038062001591833981810160405281019062000037919062000235565b33600073ffffffffffffffffffffffffffffffffffffffff168173ffffffffffffffffffffffffffffffffffffffff1603620000ad5760006040517f1e4fbdf7000000000000000000000000000000000000000000000000000000008152600401620000a4919062000278565b60405180910390fd5b620000be816200010760201b60201c565b5080600160006101000a81548173ffffffffffffffffffffffffffffffffffffffff021916908373ffffffffffffffffffffffffffffffffffffffff1602179055505062000295565b60008060009054906101000a900473ffffffffffffffffffffffffffffffffffffffff169050816000806101000a81548173ffffffffffffffffffffffffffffffffffffffff021916908373ffffffffffffffffffffffffffffffffffffffff1602179055508173ffffffffffffffffffffffffffffffffffffffff168173ffffffffffffffffffffffffffffffffffffffff167f8be0079c531659141344cd1fd0a4f28419497f9722a3daafe3b4186f6b6457e060405160405180910390a35050565b600080fd5b600073ffffffffffffffffffffffffffffffffffffffff82169050919050565b6000620001fd82620001d0565b9050919050565b6200020f81620001f0565b81146200021b57600080fd5b50565b6000815190506200022f8162000204565b92915050565b6000602082840312156200024e576200024d620001cb565b5b60006200025e848285016200021e565b91505092915050565b6200027281620001f0565b82525050565b60006020820190506200028f600083018462000267565b92915050565b6112ec80620002a56000396000f3fe608060405234801561001057600080fd5b50600436106100b45760003560e01c80638da5cb5b116100715780638da5cb5b1461017b57806394daf2ab146101995780639a824c4f146101b5578063cfb64afe146101d1578063f2fde38b146101ef578063f3fef3a31461020b576100b4565b806301567739146100b95780630a600009146100e957806327e235e31461010557806365ac434114610135578063715018a61461015357806386d314421461015d575b600080fd5b6100d360048036038101906100ce9190610bbc565b610227565b6040516100e09190610c04565b60405180910390f35b61010360048036038101906100fe9190610dae565b610247565b005b61011f600480360381019061011a9190610bbc565b610376565b60405161012c9190610e19565b60405180910390f35b61013d61038e565b60405161014a9190610e19565b60405180910390f35b61015b6103a0565b005b6101656103b4565b6040516101729190610efc565b60405180910390f35b610183610414565b6040516101909190610f2d565b60405180910390f35b6101b360048036038101906101ae9190610f48565b61043d565b005b6101cf60048036038101906101ca9190610bbc565b6105fa565b005b6101d961072e565b6040516101e69190610e19565b60405180910390f35b61020960048036038101906102049190610bbc565b610734565b005b61022560048036038101906102209190610f48565b6107ba565b005b60066020528060005260406000206000915054906101000a900460ff1681565b61024f6108ad565b81600281905550805160038190555061026781610934565b6003546002546102779190610fe6565b600481905550600160009054906101000a900473ffffffffffffffffffffffffffffffffffffffff1673ffffffffffffffffffffffffffffffffffffffff1663a9059cbb306002546040518363ffffffff1660e01b81526004016102dc929190611017565b6020604051808303816000875af11580156102fb573d6000803e3d6000fd5b505050506040513d601f19601f8201168201806040525081019061031f919061106c565b503373ffffffffffffffffffffffffffffffffffffffff167fb9bed5e9893e4c14e02d675e2d4d7f758b6de9caae770ac8e6de20e17f1a84a88360035460405161036a929190611099565b60405180910390a25050565b60076020528060005260406000206000915090505481565b60006103986108ad565b600254905090565b6103a86108ad565b6103b26000610a14565b565b60606103be6108ad565b600580548060200260200160405190810160405280929190818152602001828054801561040a57602002820191906000526020600020905b8154815260200190600101908083116103f6575b5050505050905090565b60008060009054906101000a900473ffffffffffffffffffffffffffffffffffffffff16905090565b60011515600660008473ffffffffffffffffffffffffffffffffffffffff1673ffffffffffffffffffffffffffffffffffffffff16815260200190815260200160002060009054906101000a900460ff161515146104d0576040517f08c379a00000000000000000000000000000000000000000000000000000000081526004016104c79061111f565b60405180910390fd5b80600760008473ffffffffffffffffffffffffffffffffffffffff1673ffffffffffffffffffffffffffffffffffffffff168152602001908152602001600020541015610552576040517f08c379a00000000000000000000000000000000000000000000000000000000081526004016105499061118b565b60405180910390fd5b80600760008473ffffffffffffffffffffffffffffffffffffffff1673ffffffffffffffffffffffffffffffffffffffff16815260200190815260200160002060008282546105a191906111ab565b925050819055508173ffffffffffffffffffffffffffffffffffffffff167f7637461bd399750f08b28bfbc01b40957d63b4d2dce5ef805a99bc9439063567826040516105ee9190610e19565b60405180910390a25050565b60001515600660008373ffffffffffffffffffffffffffffffffffffffff1673ffffffffffffffffffffffffffffffffffffffff16815260200190815260200160002060009054906101000a900460ff1615151461068d576040517f08c379a00000000000000000000000000000000000000000000000000000000081526004016106849061122b565b60405180910390fd5b6001600660008373ffffffffffffffffffffffffffffffffffffffff1673ffffffffffffffffffffffffffffffffffffffff16815260200190815260200160002060006101000a81548160ff021916908315150217905550600454600760008373ffffffffffffffffffffffffffffffffffffffff1673ffffffffffffffffffffffffffffffffffffffff1681526020019081526020016000208190555050565b60045481565b61073c6108ad565b600073ffffffffffffffffffffffffffffffffffffffff168173ffffffffffffffffffffffffffffffffffffffff16036107ae5760006040517f1e4fbdf70000000000000000000000000000000000000000000000000000000081526004016107a59190610f2d565b60405180910390fd5b6107b781610a14565b50565b600160009054906101000a900473ffffffffffffffffffffffffffffffffffffffff1673ffffffffffffffffffffffffffffffffffffffff1663a9059cbb83836040518363ffffffff1660e01b8152600401610817929190611017565b6020604051808303816000875af1158015610836573d6000803e3d6000fd5b505050506040513d601f19601f8201168201806040525081019061085a919061106c565b508173ffffffffffffffffffffffffffffffffffffffff167f7fcf532c15f0a6db0bd6d0e038bea71d30d808c7d98cb3bf7268a95bf5081b65826040516108a19190610e19565b60405180910390a25050565b6108b5610ad8565b73ffffffffffffffffffffffffffffffffffffffff166108d3610414565b73ffffffffffffffffffffffffffffffffffffffff1614610932576108f6610ad8565b6040517f118cdaa70000000000000000000000000000000000000000000000000000000081526004016109299190610f2d565b60405180910390fd5b565b805167ffffffffffffffff81111561094f5761094e610c6b565b5b60405190808252806020026020018201604052801561097d5781602001602082028036833780820191505090505b5060059080519060200190610993929190610ae0565b5060005b8151811015610a10578181815181106109b3576109b261124b565b5b60200260200101516040516020016109cb919061129b565b60405160208183030381529060405280519060200120600582815481106109f5576109f461124b565b5b90600052602060002001819055508080600101915050610997565b5050565b60008060009054906101000a900473ffffffffffffffffffffffffffffffffffffffff169050816000806101000a81548173ffffffffffffffffffffffffffffffffffffffff021916908373ffffffffffffffffffffffffffffffffffffffff1602179055508173ffffffffffffffffffffffffffffffffffffffff168173ffffffffffffffffffffffffffffffffffffffff167f8be0079c531659141344cd1fd0a4f28419497f9722a3daafe3b4186f6b6457e060405160405180910390a35050565b600033905090565b828054828255906000526020600020908101928215610b1c579160200282015b82811115610b1b578251825591602001919060010190610b00565b5b509050610b299190610b2d565b5090565b5b80821115610b46576000816000905550600101610b2e565b5090565b6000604051905090565b600080fd5b600080fd5b600073ffffffffffffffffffffffffffffffffffffffff82169050919050565b6000610b8982610b5e565b9050919050565b610b9981610b7e565b8114610ba457600080fd5b50565b600081359050610bb681610b90565b92915050565b600060208284031215610bd257610bd1610b54565b5b6000610be084828501610ba7565b91505092915050565b60008115159050919050565b610bfe81610be9565b82525050565b6000602082019050610c196000830184610bf5565b92915050565b6000819050919050565b610c3281610c1f565b8114610c3d57600080fd5b50565b600081359050610c4f81610c29565b92915050565b600080fd5b6000601f19601f8301169050919050565b7f4e487b7100000000000000000000000000000000000000000000000000000000600052604160045260246000fd5b610ca382610c5a565b810181811067ffffffffffffffff82111715610cc257610cc1610c6b565b5b80604052505050565b6000610cd5610b4a565b9050610ce18282610c9a565b919050565b600067ffffffffffffffff821115610d0157610d00610c6b565b5b602082029050602081019050919050565b600080fd5b6000610d2a610d2584610ce6565b610ccb565b90508083825260208201905060208402830185811115610d4d57610d4c610d12565b5b835b81811015610d765780610d628882610c40565b845260208401935050602081019050610d4f565b5050509392505050565b600082601f830112610d9557610d94610c55565b5b8135610da5848260208601610d17565b91505092915050565b60008060408385031215610dc557610dc4610b54565b5b6000610dd385828601610c40565b925050602083013567ffffffffffffffff811115610df457610df3610b59565b5b610e0085828601610d80565b9150509250929050565b610e1381610c1f565b82525050565b6000602082019050610e2e6000830184610e0a565b92915050565b600081519050919050565b600082825260208201905092915050565b6000819050602082019050919050565b6000819050919050565b610e7381610e60565b82525050565b6000610e858383610e6a565b60208301905092915050565b6000602082019050919050565b6000610ea982610e34565b610eb38185610e3f565b9350610ebe83610e50565b8060005b83811015610eef578151610ed68882610e79565b9750610ee183610e91565b925050600181019050610ec2565b5085935050505092915050565b60006020820190508181036000830152610f168184610e9e565b905092915050565b610f2781610b7e565b82525050565b6000602082019050610f426000830184610f1e565b92915050565b60008060408385031215610f5f57610f5e610b54565b5b6000610f6d85828601610ba7565b9250506020610f7e85828601610c40565b9150509250929050565b7f4e487b7100000000000000000000000000000000000000000000000000000000600052601260045260246000fd5b7f4e487b7100000000000000000000000000000000000000000000000000000000600052601160045260246000fd5b6000610ff182610c1f565b9150610ffc83610c1f565b92508261100c5761100b610f88565b5b828204905092915050565b600060408201905061102c6000830185610f1e565b6110396020830184610e0a565b9392505050565b61104981610be9565b811461105457600080fd5b50565b60008151905061106681611040565b92915050565b60006020828403121561108257611081610b54565b5b600061109084828501611057565b91505092915050565b60006040820190506110ae6000830185610e0a565b6110bb6020830184610e0a565b9392505050565b600082825260208201905092915050565b7f4e6f7420612062656e6566696369617279000000000000000000000000000000600082015250565b60006111096011836110c2565b9150611114826110d3565b602082019050919050565b60006020820190508181036000830152611138816110fc565b9050919050565b7f496e73756666696369656e742062616c616e6365000000000000000000000000600082015250565b60006111756014836110c2565b91506111808261113f565b602082019050919050565b600060208201905081810360008301526111a481611168565b9050919050565b60006111b682610c1f565b91506111c183610c1f565b92508282039050818111156111d9576111d8610fb7565b5b92915050565b7f416c726561647920612062656e65666963696172790000000000000000000000600082015250565b60006112156015836110c2565b9150611220826111df565b602082019050919050565b6000602082019050818103600083015261124481611208565b9050919050565b7f4e487b7100000000000000000000000000000000000000000000000000000000600052603260045260246000fd5b6000819050919050565b61129561129082610c1f565b61127a565b82525050565b60006112a78284611284565b6020820191508190509291505056fea264697066735822122087b605850884d76fd59eb1b53678ccaee1ed78f011e1b16e8db9b62a0572527364736f6c63430008180033",
  "linkReferences": {},
  "deployedLinkReferences": {}
}