{
  "_format": "hh-sol-artifact-1",
  "contractName": "Airdrop",
  "sourceName": "contracts/Airdrop.sol",
  "abi": [
    {
      "inputs": [
        {
          "internalType": "address",
          "name": "_token",
          "type": "address"
        }
      ],
      "stateMutability": "nonpayable",
      "type": "constructor"
    },
    {
      "inputs": [
        {
          "internalType": "address",
          "name": "owner",
          "type": "address"
        }
      ],
      "name": "OwnableInvalidOwner",
      "type": "error"
    },
    {
      "inputs": [
        {
          "internalType": "address",
          "name": "account",
          "type": "address"
        }
      ],
      "name": "OwnableUnauthorizedAccount",
      "type": "error"
    },
    {
      "anonymous": false,
      "inputs": [
        {
          "indexed": true,
          "internalType": "address",
          "name": "manager",
          "type": "address"
        },
        {
          "indexed": false,
          "internalType": "uint256",
          "name": "totalAmount",
          "type": "uint256"
        },
        {
          "indexed": false,
          "internalType": "uint256",
          "name": "numBeneficiaries",
          "type": "uint256"
        }
      ],
      "name": "GroupCreated",
      "type": "event"
    },
    {
      "anonymous": false,
      "inputs": [
        {
          "indexed": true,
          "internalType": "address",
          "name": "previousOwner",
          "type": "address"
        },
        {
          "indexed": true,
          "internalType": "address",
          "name": "newOwner",
          "type": "address"
        }
      ],
      "name": "OwnershipTransferred",
      "type": "event"
    },
    {
      "anonymous": false,
      "inputs": [
        {
          "indexed": true,
          "internalType": "address",
          "name": "beneficiary",
          "type": "address"
        },
        {
          "indexed": false,
          "internalType": "uint256",
          "name": "amount",
          "type": "uint256"
        }
      ],
      "name": "VoucherCreated",
      "type": "event"
    },
    {
      "anonymous": false,
      "inputs": [
        {
          "indexed": true,
          "internalType": "address",
          "name": "thirdParty",
          "type": "address"
        },
        {
          "indexed": false,
          "internalType": "uint256",
          "name": "amount",
          "type": "uint256"
        }
      ],
      "name": "Withdrawal",
      "type": "event"
    },
    {
      "inputs": [],
      "name": "amountPerBeneficiary",
      "outputs": [
        {
          "internalType": "uint256",
          "name": "",
          "type": "uint256"
        }
      ],
      "stateMutability": "view",
      "type": "function"
    },
    {
      "inputs": [
        {
          "internalType": "address",
          "name": "",
          "type": "address"
        }
      ],
      "name": "balances",
      "outputs": [
        {
          "internalType": "uint256",
          "name": "",
          "type": "uint256"
        }
      ],
      "stateMutability": "view",
      "type": "function"
    },
    {
      "inputs": [
        {
          "internalType": "address",
          "name": "",
          "type": "address"
        }
      ],
      "name": "beneficiaries",
      "outputs": [
        {
          "internalType": "bool",
          "name": "",
          "type": "bool"
        }
      ],
      "stateMutability": "view",
      "type": "function"
    },
    {
      "inputs": [
        {
          "internalType": "uint256",
          "name": "_totalAmount",
          "type": "uint256"
        },
        {
          "internalType": "uint256",
          "name": "_numBeneficiaries",
          "type": "uint256"
        }
      ],
      "name": "createGroup",
      "outputs": [],
      "stateMutability": "nonpayable",
      "type": "function"
    },
    {
      "inputs": [
        {
          "internalType": "address",
          "name": "_beneficiary",
          "type": "address"
        },
        {
          "internalType": "uint256",
          "name": "_amount",
          "type": "uint256"
        }
      ],
      "name": "createVoucher",
      "outputs": [],
      "stateMutability": "nonpayable",
      "type": "function"
    },
    {
      "inputs": [
        {
          "internalType": "address",
          "name": "_beneficiary",
          "type": "address"
        }
      ],
      "name": "joinGroup",
      "outputs": [],
      "stateMutability": "nonpayable",
      "type": "function"
    },
    {
      "inputs": [],
      "name": "numBeneficiaries",
      "outputs": [
        {
          "internalType": "uint256",
          "name": "",
          "type": "uint256"
        }
      ],
      "stateMutability": "view",
      "type": "function"
    },
    {
      "inputs": [],
      "name": "owner",
      "outputs": [
        {
          "internalType": "address",
          "name": "",
          "type": "address"
        }
      ],
      "stateMutability": "view",
      "type": "function"
    },
    {
      "inputs": [],
      "name": "renounceOwnership",
      "outputs": [],
      "stateMutability": "nonpayable",
      "type": "function"
    },
    {
      "inputs": [],
      "name": "token",
      "outputs": [
        {
          "internalType": "contract IERC20",
          "name": "",
          "type": "address"
        }
      ],
      "stateMutability": "view",
      "type": "function"
    },
    {
      "inputs": [],
      "name": "totalAmount",
      "outputs": [
        {
          "internalType": "uint256",
          "name": "",
          "type": "uint256"
        }
      ],
      "stateMutability": "view",
      "type": "function"
    },
    {
      "inputs": [
        {
          "internalType": "address",
          "name": "newOwner",
          "type": "address"
        }
      ],
      "name": "transferOwnership",
      "outputs": [],
      "stateMutability": "nonpayable",
      "type": "function"
    },
    {
      "inputs": [
        {
          "internalType": "address",
          "name": "_thirdParty",
          "type": "address"
        },
        {
          "internalType": "uint256",
          "name": "_amount",
          "type": "uint256"
        }
      ],
      "name": "withdraw",
      "outputs": [],
      "stateMutability": "nonpayable",
      "type": "function"
    }
  ],
  "bytecode": "0x60806040523480156200001157600080fd5b506040516200128038038062001280833981810160405281019062000037919062000235565b33600073ffffffffffffffffffffffffffffffffffffffff168173ffffffffffffffffffffffffffffffffffffffff1603620000ad5760006040517f1e4fbdf7000000000000000000000000000000000000000000000000000000008152600401620000a4919062000278565b60405180910390fd5b620000be816200010760201b60201c565b5080600160006101000a81548173ffffffffffffffffffffffffffffffffffffffff021916908373ffffffffffffffffffffffffffffffffffffffff1602179055505062000295565b60008060009054906101000a900473ffffffffffffffffffffffffffffffffffffffff169050816000806101000a81548173ffffffffffffffffffffffffffffffffffffffff021916908373ffffffffffffffffffffffffffffffffffffffff1602179055508173ffffffffffffffffffffffffffffffffffffffff168173ffffffffffffffffffffffffffffffffffffffff167f8be0079c531659141344cd1fd0a4f28419497f9722a3daafe3b4186f6b6457e060405160405180910390a35050565b600080fd5b600073ffffffffffffffffffffffffffffffffffffffff82169050919050565b6000620001fd82620001d0565b9050919050565b6200020f81620001f0565b81146200021b57600080fd5b50565b6000815190506200022f8162000204565b92915050565b6000602082840312156200024e576200024d620001cb565b5b60006200025e848285016200021e565b91505092915050565b6200027281620001f0565b82525050565b60006020820190506200028f600083018462000267565b92915050565b610fdb80620002a56000396000f3fe608060405234801561001057600080fd5b50600436106100cf5760003560e01c8063980cb3ac1161008c578063cfb64afe11610066578063cfb64afe146101ec578063f2fde38b1461020a578063f3fef3a314610226578063fc0c546a14610242576100cf565b8063980cb3ac146101965780639a824c4f146101b2578063cb22d41b146101ce576100cf565b806301567739146100d45780631a39d8ef1461010457806327e235e314610122578063715018a6146101525780638da5cb5b1461015c57806394daf2ab1461017a575b600080fd5b6100ee60048036038101906100e99190610afb565b610260565b6040516100fb9190610b43565b60405180910390f35b61010c610280565b6040516101199190610b77565b60405180910390f35b61013c60048036038101906101379190610afb565b610286565b6040516101499190610b77565b60405180910390f35b61015a61029e565b005b6101646102b2565b6040516101719190610ba1565b60405180910390f35b610194600480360381019061018f9190610be8565b6102db565b005b6101b060048036038101906101ab9190610c28565b610498565b005b6101cc60048036038101906101c79190610afb565b610656565b005b6101d6610792565b6040516101e39190610b77565b60405180910390f35b6101f4610798565b6040516102019190610b77565b60405180910390f35b610224600480360381019061021f9190610afb565b61079e565b005b610240600480360381019061023b9190610be8565b610824565b005b61024a61091f565b6040516102579190610cc7565b60405180910390f35b60056020528060005260406000206000915054906101000a900460ff1681565b60025481565b60066020528060005260406000206000915090505481565b6102a6610945565b6102b060006109cc565b565b60008060009054906101000a900473ffffffffffffffffffffffffffffffffffffffff16905090565b60011515600560008473ffffffffffffffffffffffffffffffffffffffff1673ffffffffffffffffffffffffffffffffffffffff16815260200190815260200160002060009054906101000a900460ff1615151461036e576040517f08c379a000000000000000000000000000000000000000000000000000000000815260040161036590610d3f565b60405180910390fd5b80600660008473ffffffffffffffffffffffffffffffffffffffff1673ffffffffffffffffffffffffffffffffffffffff1681526020019081526020016000205410156103f0576040517f08c379a00000000000000000000000000000000000000000000000000000000081526004016103e790610dab565b60405180910390fd5b80600660008473ffffffffffffffffffffffffffffffffffffffff1673ffffffffffffffffffffffffffffffffffffffff168152602001908152602001600020600082825461043f9190610dfa565b925050819055508173ffffffffffffffffffffffffffffffffffffffff167f7637461bd399750f08b28bfbc01b40957d63b4d2dce5ef805a99bc94390635678260405161048c9190610b77565b60405180910390a25050565b6104a0610945565b816002819055508060038190555080826104ba9190610e5d565b600481905550600160009054906101000a900473ffffffffffffffffffffffffffffffffffffffff1673ffffffffffffffffffffffffffffffffffffffff1663095ea7b330846040518363ffffffff1660e01b815260040161051d929190610e8e565b6020604051808303816000875af115801561053c573d6000803e3d6000fd5b505050506040513d601f19601f820116820180604052508101906105609190610ee3565b50600160009054906101000a900473ffffffffffffffffffffffffffffffffffffffff1673ffffffffffffffffffffffffffffffffffffffff1663a9059cbb30846040518363ffffffff1660e01b81526004016105be929190610e8e565b6020604051808303816000875af11580156105dd573d6000803e3d6000fd5b505050506040513d601f19601f820116820180604052508101906106019190610ee3565b503373ffffffffffffffffffffffffffffffffffffffff167fb9bed5e9893e4c14e02d675e2d4d7f758b6de9caae770ac8e6de20e17f1a84a8838360405161064a929190610f10565b60405180910390a25050565b61065e610945565b60001515600560008373ffffffffffffffffffffffffffffffffffffffff1673ffffffffffffffffffffffffffffffffffffffff16815260200190815260200160002060009054906101000a900460ff161515146106f1576040517f08c379a00000000000000000000000000000000000000000000000000000000081526004016106e890610f85565b60405180910390fd5b6001600560008373ffffffffffffffffffffffffffffffffffffffff1673ffffffffffffffffffffffffffffffffffffffff16815260200190815260200160002060006101000a81548160ff021916908315150217905550600454600660008373ffffffffffffffffffffffffffffffffffffffff1673ffffffffffffffffffffffffffffffffffffffff1681526020019081526020016000208190555050565b60035481565b60045481565b6107a6610945565b600073ffffffffffffffffffffffffffffffffffffffff168173ffffffffffffffffffffffffffffffffffffffff16036108185760006040517f1e4fbdf700000000000000000000000000000000000000000000000000000000815260040161080f9190610ba1565b60405180910390fd5b610821816109cc565b50565b61082c610945565b600160009054906101000a900473ffffffffffffffffffffffffffffffffffffffff1673ffffffffffffffffffffffffffffffffffffffff1663a9059cbb83836040518363ffffffff1660e01b8152600401610889929190610e8e565b6020604051808303816000875af11580156108a8573d6000803e3d6000fd5b505050506040513d601f19601f820116820180604052508101906108cc9190610ee3565b508173ffffffffffffffffffffffffffffffffffffffff167f7fcf532c15f0a6db0bd6d0e038bea71d30d808c7d98cb3bf7268a95bf5081b65826040516109139190610b77565b60405180910390a25050565b600160009054906101000a900473ffffffffffffffffffffffffffffffffffffffff1681565b61094d610a90565b73ffffffffffffffffffffffffffffffffffffffff1661096b6102b2565b73ffffffffffffffffffffffffffffffffffffffff16146109ca5761098e610a90565b6040517f118cdaa70000000000000000000000000000000000000000000000000000000081526004016109c19190610ba1565b60405180910390fd5b565b60008060009054906101000a900473ffffffffffffffffffffffffffffffffffffffff169050816000806101000a81548173ffffffffffffffffffffffffffffffffffffffff021916908373ffffffffffffffffffffffffffffffffffffffff1602179055508173ffffffffffffffffffffffffffffffffffffffff168173ffffffffffffffffffffffffffffffffffffffff167f8be0079c531659141344cd1fd0a4f28419497f9722a3daafe3b4186f6b6457e060405160405180910390a35050565b600033905090565b600080fd5b600073ffffffffffffffffffffffffffffffffffffffff82169050919050565b6000610ac882610a9d565b9050919050565b610ad881610abd565b8114610ae357600080fd5b50565b600081359050610af581610acf565b92915050565b600060208284031215610b1157610b10610a98565b5b6000610b1f84828501610ae6565b91505092915050565b60008115159050919050565b610b3d81610b28565b82525050565b6000602082019050610b586000830184610b34565b92915050565b6000819050919050565b610b7181610b5e565b82525050565b6000602082019050610b8c6000830184610b68565b92915050565b610b9b81610abd565b82525050565b6000602082019050610bb66000830184610b92565b92915050565b610bc581610b5e565b8114610bd057600080fd5b50565b600081359050610be281610bbc565b92915050565b60008060408385031215610bff57610bfe610a98565b5b6000610c0d85828601610ae6565b9250506020610c1e85828601610bd3565b9150509250929050565b60008060408385031215610c3f57610c3e610a98565b5b6000610c4d85828601610bd3565b9250506020610c5e85828601610bd3565b9150509250929050565b6000819050919050565b6000610c8d610c88610c8384610a9d565b610c68565b610a9d565b9050919050565b6000610c9f82610c72565b9050919050565b6000610cb182610c94565b9050919050565b610cc181610ca6565b82525050565b6000602082019050610cdc6000830184610cb8565b92915050565b600082825260208201905092915050565b7f4e6f7420612062656e6566696369617279000000000000000000000000000000600082015250565b6000610d29601183610ce2565b9150610d3482610cf3565b602082019050919050565b60006020820190508181036000830152610d5881610d1c565b9050919050565b7f496e73756666696369656e742062616c616e6365000000000000000000000000600082015250565b6000610d95601483610ce2565b9150610da082610d5f565b602082019050919050565b60006020820190508181036000830152610dc481610d88565b9050919050565b7f4e487b7100000000000000000000000000000000000000000000000000000000600052601160045260246000fd5b6000610e0582610b5e565b9150610e1083610b5e565b9250828203905081811115610e2857610e27610dcb565b5b92915050565b7f4e487b7100000000000000000000000000000000000000000000000000000000600052601260045260246000fd5b6000610e6882610b5e565b9150610e7383610b5e565b925082610e8357610e82610e2e565b5b828204905092915050565b6000604082019050610ea36000830185610b92565b610eb06020830184610b68565b9392505050565b610ec081610b28565b8114610ecb57600080fd5b50565b600081519050610edd81610eb7565b92915050565b600060208284031215610ef957610ef8610a98565b5b6000610f0784828501610ece565b91505092915050565b6000604082019050610f256000830185610b68565b610f326020830184610b68565b9392505050565b7f416c726561647920612062656e65666963696172790000000000000000000000600082015250565b6000610f6f601583610ce2565b9150610f7a82610f39565b602082019050919050565b60006020820190508181036000830152610f9e81610f62565b905091905056fea26469706673582212200bcda7b5d95f847100b2be1f27b4fc9968ce6cba86f27d43dbe70cfd279605ef64736f6c63430008180033",
  "linkReferences": {},
  "deployedLinkReferences": {}
}